{
  "_format": "hh-sol-artifact-1",
  "contractName": "KYC",
  "sourceName": "contracts/KYC.sol",
  "abi": [
    {
      "inputs": [
        {
          "internalType": "string",
          "name": "_password",
          "type": "string"
        }
      ],
      "stateMutability": "nonpayable",
      "type": "constructor"
    },
    {
      "inputs": [
        {
          "internalType": "address",
          "name": "_address",
          "type": "address"
        }
      ],
      "name": "addCustomer",
      "outputs": [],
      "stateMutability": "nonpayable",
      "type": "function"
    },
    {
      "inputs": [],
      "name": "admin_address",
      "outputs": [
        {
          "internalType": "address",
          "name": "",
          "type": "address"
        }
      ],
      "stateMutability": "view",
      "type": "function"
    },
    {
      "inputs": [],
      "name": "admin_password",
      "outputs": [
        {
          "internalType": "string",
          "name": "",
          "type": "string"
        }
      ],
      "stateMutability": "view",
      "type": "function"
    },
    {
      "inputs": [
        {
          "internalType": "address",
          "name": "",
          "type": "address"
        }
      ],
      "name": "admins",
      "outputs": [
        {
          "internalType": "address",
          "name": "adminAddress",
          "type": "address"
        },
        {
          "internalType": "string",
          "name": "adminName",
          "type": "string"
        }
      ],
      "stateMutability": "view",
      "type": "function"
    },
    {
      "inputs": [],
      "name": "bankCount",
      "outputs": [
        {
          "internalType": "uint256",
          "name": "",
          "type": "uint256"
        }
      ],
      "stateMutability": "view",
      "type": "function"
    },
    {
      "inputs": [
        {
          "internalType": "address",
          "name": "_address",
          "type": "address"
        }
      ],
      "name": "bankLogin",
      "outputs": [
        {
          "internalType": "string",
          "name": "",
          "type": "string"
        },
        {
          "internalType": "string",
          "name": "",
          "type": "string"
        },
        {
          "internalType": "string",
          "name": "",
          "type": "string"
        },
        {
          "internalType": "string",
          "name": "",
          "type": "string"
        },
        {
          "internalType": "string",
          "name": "",
          "type": "string"
        }
      ],
      "stateMutability": "view",
      "type": "function"
    },
    {
      "inputs": [
        {
          "internalType": "uint256",
          "name": "",
          "type": "uint256"
        }
      ],
      "name": "bankRequests",
      "outputs": [
        {
          "internalType": "address",
          "name": "",
          "type": "address"
        }
      ],
      "stateMutability": "view",
      "type": "function"
    },
    {
      "inputs": [
        {
          "internalType": "address",
          "name": "",
          "type": "address"
        }
      ],
      "name": "banks",
      "outputs": [
        {
          "internalType": "address",
          "name": "bankAddress",
          "type": "address"
        },
        {
          "internalType": "string",
          "name": "bankName",
          "type": "string"
        },
        {
          "internalType": "string",
          "name": "regNumber",
          "type": "string"
        },
        {
          "internalType": "bool",
          "name": "isVerified",
          "type": "bool"
        }
      ],
      "stateMutability": "view",
      "type": "function"
    },
    {
      "inputs": [
        {
          "internalType": "address",
          "name": "_address",
          "type": "address"
        }
      ],
      "name": "compareAdminAddress",
      "outputs": [
        {
          "internalType": "bool",
          "name": "",
          "type": "bool"
        }
      ],
      "stateMutability": "view",
      "type": "function"
    },
    {
      "inputs": [
        {
          "internalType": "string",
          "name": "_password",
          "type": "string"
        }
      ],
      "name": "comparePassword",
      "outputs": [
        {
          "internalType": "bool",
          "name": "",
          "type": "bool"
        }
      ],
      "stateMutability": "view",
      "type": "function"
    },
    {
      "inputs": [
        {
          "internalType": "string",
          "name": "_name",
          "type": "string"
        },
        {
          "internalType": "string",
          "name": "_regNumber",
          "type": "string"
        }
      ],
      "name": "createBank",
      "outputs": [],
      "stateMutability": "nonpayable",
      "type": "function"
    },
    {
      "inputs": [
        {
          "internalType": "string",
          "name": "_name",
          "type": "string"
        },
        {
          "internalType": "string",
          "name": "_email",
          "type": "string"
        },
        {
          "internalType": "string",
          "name": "_password",
          "type": "string"
        },
        {
          "internalType": "string",
          "name": "_data",
          "type": "string"
        },
        {
          "internalType": "address",
          "name": "_bankAddress",
          "type": "address"
        },
        {
          "internalType": "string",
          "name": "_balance",
          "type": "string"
        }
      ],
      "name": "createCustomer",
      "outputs": [],
      "stateMutability": "nonpayable",
      "type": "function"
    },
    {
      "inputs": [
        {
          "internalType": "address",
          "name": "_to",
          "type": "address"
        },
        {
          "internalType": "uint256",
          "name": "_amount",
          "type": "uint256"
        },
        {
          "internalType": "string",
          "name": "_data",
          "type": "string"
        }
      ],
      "name": "createTransaction",
      "outputs": [],
      "stateMutability": "nonpayable",
      "type": "function"
    },
    {
      "inputs": [
        {
          "internalType": "address",
          "name": "",
          "type": "address"
        }
      ],
      "name": "customers",
      "outputs": [
        {
          "internalType": "address",
          "name": "customerAddress",
          "type": "address"
        },
        {
          "internalType": "string",
          "name": "customerName",
          "type": "string"
        },
        {
          "internalType": "string",
          "name": "customerEmail",
          "type": "string"
        },
        {
          "internalType": "string",
          "name": "password",
          "type": "string"
        },
        {
          "internalType": "string",
          "name": "customerData",
          "type": "string"
        },
        {
          "internalType": "string",
          "name": "isVerified",
          "type": "string"
        },
        {
          "internalType": "address",
          "name": "bankAddress",
          "type": "address"
        },
        {
          "internalType": "string",
          "name": "balance",
          "type": "string"
        }
      ],
      "stateMutability": "view",
      "type": "function"
    },
    {
      "inputs": [
        {
          "internalType": "address",
          "name": "_address",
          "type": "address"
        }
      ],
      "name": "getBankDetails",
      "outputs": [
        {
          "internalType": "string",
          "name": "",
          "type": "string"
        },
        {
          "internalType": "string",
          "name": "",
          "type": "string"
        },
        {
          "internalType": "bool",
          "name": "",
          "type": "bool"
        }
      ],
      "stateMutability": "view",
      "type": "function"
    },
    {
      "inputs": [],
      "name": "getBankRequests",
      "outputs": [
        {
          "internalType": "address[]",
          "name": "",
          "type": "address[]"
        }
      ],
      "stateMutability": "view",
      "type": "function"
    },
    {
      "inputs": [],
      "name": "getBankRequestsAllData",
      "outputs": [
        {
          "components": [
            {
              "internalType": "address",
              "name": "bankAddress",
              "type": "address"
            },
            {
              "internalType": "string",
              "name": "bankName",
              "type": "string"
            },
            {
              "internalType": "string",
              "name": "regNumber",
              "type": "string"
            },
            {
              "internalType": "bool",
              "name": "isVerified",
              "type": "bool"
            },
            {
              "internalType": "address[]",
              "name": "customers",
              "type": "address[]"
            }
          ],
          "internalType": "struct KYC.Bank[]",
          "name": "",
          "type": "tuple[]"
        }
      ],
      "stateMutability": "view",
      "type": "function"
    },
    {
      "inputs": [
        {
          "internalType": "address",
          "name": "_address",
          "type": "address"
        }
      ],
      "name": "getCustomer",
      "outputs": [
        {
          "internalType": "string",
          "name": "",
          "type": "string"
        },
        {
          "internalType": "string",
          "name": "",
          "type": "string"
        },
        {
          "internalType": "string",
          "name": "",
          "type": "string"
        },
        {
          "internalType": "string",
          "name": "",
          "type": "string"
        },
        {
          "internalType": "address",
          "name": "",
          "type": "address"
        },
        {
          "internalType": "string",
          "name": "",
          "type": "string"
        }
      ],
      "stateMutability": "view",
      "type": "function"
    },
    {
      "inputs": [],
      "name": "getCustomerTransaction",
      "outputs": [
        {
          "components": [
            {
              "internalType": "address",
              "name": "from",
              "type": "address"
            },
            {
              "internalType": "address",
              "name": "to",
              "type": "address"
            },
            {
              "internalType": "uint256",
              "name": "amount",
              "type": "uint256"
            },
            {
              "internalType": "string",
              "name": "transactionData",
              "type": "string"
            }
          ],
          "internalType": "struct KYC.Transaction[]",
          "name": "",
          "type": "tuple[]"
        }
      ],
      "stateMutability": "view",
      "type": "function"
    },
    {
      "inputs": [],
      "name": "getCustomers",
      "outputs": [
        {
          "internalType": "address[]",
          "name": "",
          "type": "address[]"
        }
      ],
      "stateMutability": "view",
      "type": "function"
    },
    {
      "inputs": [
        {
          "internalType": "address",
          "name": "_address",
          "type": "address"
        }
      ],
      "name": "getCustomersinABank",
      "outputs": [
        {
          "components": [
            {
              "internalType": "address",
              "name": "customerAddress",
              "type": "address"
            },
            {
              "internalType": "string",
              "name": "customerName",
              "type": "string"
            },
            {
              "internalType": "string",
              "name": "customerEmail",
              "type": "string"
            },
            {
              "internalType": "string",
              "name": "password",
              "type": "string"
            },
            {
              "internalType": "string",
              "name": "customerData",
              "type": "string"
            },
            {
              "internalType": "string",
              "name": "isVerified",
              "type": "string"
            },
            {
              "internalType": "address",
              "name": "bankAddress",
              "type": "address"
            },
            {
              "internalType": "string",
              "name": "balance",
              "type": "string"
            }
          ],
          "internalType": "struct KYC.Customer[]",
          "name": "",
          "type": "tuple[]"
        }
      ],
      "stateMutability": "view",
      "type": "function"
    },
    {
      "inputs": [],
      "name": "getTransactionCount",
      "outputs": [
        {
          "internalType": "uint256",
          "name": "",
          "type": "uint256"
        }
      ],
      "stateMutability": "view",
      "type": "function"
    },
    {
      "inputs": [],
      "name": "getTransactions",
      "outputs": [
        {
          "components": [
            {
              "internalType": "address",
              "name": "from",
              "type": "address"
            },
            {
              "internalType": "address",
              "name": "to",
              "type": "address"
            },
            {
              "internalType": "uint256",
              "name": "amount",
              "type": "uint256"
            },
            {
              "internalType": "string",
              "name": "transactionData",
              "type": "string"
            }
          ],
          "internalType": "struct KYC.Transaction[]",
          "name": "",
          "type": "tuple[]"
        }
      ],
      "stateMutability": "view",
      "type": "function"
    },
    {
      "inputs": [],
      "name": "getVerifiedBanks",
      "outputs": [
        {
          "components": [
            {
              "internalType": "address",
              "name": "bankAddress",
              "type": "address"
            },
            {
              "internalType": "string",
              "name": "bankName",
              "type": "string"
            },
            {
              "internalType": "string",
              "name": "regNumber",
              "type": "string"
            },
            {
              "internalType": "bool",
              "name": "isVerified",
              "type": "bool"
            },
            {
              "internalType": "address[]",
              "name": "customers",
              "type": "address[]"
            }
          ],
          "internalType": "struct KYC.Bank[]",
          "name": "",
          "type": "tuple[]"
        }
      ],
      "stateMutability": "view",
      "type": "function"
    },
    {
      "inputs": [
        {
          "internalType": "address",
          "name": "_address",
          "type": "address"
        }
      ],
      "name": "rejectBank",
      "outputs": [],
      "stateMutability": "nonpayable",
      "type": "function"
    },
    {
      "inputs": [
        {
          "internalType": "address",
          "name": "_address",
          "type": "address"
        }
      ],
      "name": "rejectCustomer",
      "outputs": [],
      "stateMutability": "nonpayable",
      "type": "function"
    },
    {
      "inputs": [],
      "name": "transactionCount",
      "outputs": [
        {
          "internalType": "uint256",
          "name": "",
          "type": "uint256"
        }
      ],
      "stateMutability": "view",
      "type": "function"
    },
    {
      "inputs": [
        {
          "internalType": "uint256",
          "name": "",
          "type": "uint256"
        }
      ],
      "name": "transactions",
      "outputs": [
        {
          "internalType": "address",
          "name": "from",
          "type": "address"
        },
        {
          "internalType": "address",
          "name": "to",
          "type": "address"
        },
        {
          "internalType": "uint256",
          "name": "amount",
          "type": "uint256"
        },
        {
          "internalType": "string",
          "name": "transactionData",
          "type": "string"
        }
      ],
      "stateMutability": "view",
      "type": "function"
    },
    {
      "inputs": [
        {
          "internalType": "address",
          "name": "_address",
          "type": "address"
        },
        {
          "internalType": "string",
          "name": "_balance",
          "type": "string"
        }
      ],
      "name": "updateBalace",
      "outputs": [],
      "stateMutability": "nonpayable",
      "type": "function"
    },
    {
      "inputs": [
        {
          "internalType": "address",
          "name": "_address",
          "type": "address"
        }
      ],
      "name": "verifyBank",
      "outputs": [],
      "stateMutability": "nonpayable",
      "type": "function"
    },
    {
      "inputs": [
        {
          "internalType": "address",
          "name": "_address",
          "type": "address"
        }
      ],
      "name": "verifyCustomer",
      "outputs": [],
      "stateMutability": "nonpayable",
      "type": "function"
    }
  ],
  "bytecode": "0x60806040523480156200001157600080fd5b5060405162006315380380620063158339818101604052810190620000379190620003ec565b336000806101000a81548173ffffffffffffffffffffffffffffffffffffffff021916908373ffffffffffffffffffffffffffffffffffffffff16021790555080600190805190602001906200008f9291906200019f565b5060405180604001604052803373ffffffffffffffffffffffffffffffffffffffff1681526020016040518060400160405280600581526020017f41646d696e000000000000000000000000000000000000000000000000000000815250815250600260003373ffffffffffffffffffffffffffffffffffffffff1673ffffffffffffffffffffffffffffffffffffffff16815260200190815260200160002060008201518160000160006101000a81548173ffffffffffffffffffffffffffffffffffffffff021916908373ffffffffffffffffffffffffffffffffffffffff1602179055506020820151816001019080519060200190620001949291906200019f565b5090505050620004a2565b828054620001ad906200046c565b90600052602060002090601f016020900481019282620001d157600085556200021d565b82601f10620001ec57805160ff19168380011785556200021d565b828001600101855582156200021d579182015b828111156200021c578251825591602001919060010190620001ff565b5b5090506200022c919062000230565b5090565b5b808211156200024b57600081600090555060010162000231565b5090565b6000604051905090565b600080fd5b600080fd5b600080fd5b600080fd5b6000601f19601f8301169050919050565b7f4e487b7100000000000000000000000000000000000000000000000000000000600052604160045260246000fd5b620002b8826200026d565b810181811067ffffffffffffffff82111715620002da57620002d96200027e565b5b80604052505050565b6000620002ef6200024f565b9050620002fd8282620002ad565b919050565b600067ffffffffffffffff82111562000320576200031f6200027e565b5b6200032b826200026d565b9050602081019050919050565b60005b83811015620003585780820151818401526020810190506200033b565b8381111562000368576000848401525b50505050565b6000620003856200037f8462000302565b620002e3565b905082815260208101848484011115620003a457620003a362000268565b5b620003b184828562000338565b509392505050565b600082601f830112620003d157620003d062000263565b5b8151620003e38482602086016200036e565b91505092915050565b60006020828403121562000405576200040462000259565b5b600082015167ffffffffffffffff8111156200042657620004256200025e565b5b6200043484828501620003b9565b91505092915050565b7f4e487b7100000000000000000000000000000000000000000000000000000000600052602260045260246000fd5b600060028204905060018216806200048557607f821691505b602082108114156200049c576200049b6200043d565b5b50919050565b615e6380620004b26000396000f3fe608060405234801561001057600080fd5b50600436106101e55760003560e01c8063833ee7201161010f578063d81fcc86116100a2578063f1ba712711610071578063f1ba7127146105cf578063f2e62772146105ed578063f5bfe6221461060b578063f879eb571461063b576101e5565b8063d81fcc8614610545578063daa6b8f114610579578063e1f6048d14610595578063e4da9ebc146105b1576101e5565b8063b77bf600116100de578063b77bf600146104a6578063b97eb2dd146104c4578063c80cb27c146104e0578063cb949e5114610510576101e5565b8063833ee7201461041d57806383920e90146104395780639ace38c214610457578063ad973d741461048a576101e5565b80634a5e9628116101875780636956686c116101565780636956686c146103945780636a505df4146103b25780636da04e64146103ce57806380c3b8c2146103ea576101e5565b80634a5e9628146102fa57806352dffc961461032a57806353af8dd6146103485780635ebbe30914610364576101e5565b80632e7700f0116101c35780632e7700f014610258578063336989ae1461027657806335fab5d5146102ad578063429b62e5146102c9576101e5565b8063101ad1c8146101ea57806315101e02146102085780632cc5c5f11461023a575b600080fd5b6101f2610659565b6040516101ff91906147e5565b60405180910390f35b610222600480360381019061021d9190614879565b6106e7565b604051610231939291906148c1565b60405180910390f35b6102426108e5565b60405161024f91906149c4565b60405180910390f35b610260610a01565b60405161026d91906149ff565b60405180910390f35b610290600480360381019061028b9190614879565b610a0b565b6040516102a4989796959493929190614a29565b60405180910390f35b6102c760048036038101906102c29190614879565b610dc3565b005b6102e360048036038101906102de9190614879565b610fe2565b6040516102f1929190614ad1565b60405180910390f35b610314600480360381019061030f9190614879565b6110ae565b6040516103219190614b01565b60405180910390f35b610332611107565b60405161033f9190614d2a565b60405180910390f35b610362600480360381019061035d9190614879565b6114fb565b005b61037e60048036038101906103799190614d78565b61165a565b60405161038b9190614da5565b60405180910390f35b61039c611699565b6040516103a99190614d2a565b60405180910390f35b6103cc60048036038101906103c79190614ef5565b611b0d565b005b6103e860048036038101906103e39190614879565b611c38565b005b61040460048036038101906103ff9190614879565b611d3c565b6040516104149493929190614f51565b60405180910390f35b61043760048036038101906104329190614fa4565b611ea9565b005b61044161219b565b60405161044e91906151f1565b60405180910390f35b610471600480360381019061046c9190614d78565b612342565b6040516104819493929190615213565b60405180910390f35b6104a4600480360381019061049f9190614879565b61244a565b005b6104ae6125c0565b6040516104bb91906149ff565b60405180910390f35b6104de60048036038101906104d9919061525f565b6125c6565b005b6104fa60048036038101906104f59190614879565b612887565b604051610507919061546c565b60405180910390f35b61052a60048036038101906105259190614879565b612f62565b60405161053c9695949392919061548e565b60405180910390f35b61055f600480360381019061055a9190614879565b6133ea565b604051610570959493929190615512565b60405180910390f35b610593600480360381019061058e9190614879565b61384c565b005b6105af60048036038101906105aa9190615588565b6139ab565b005b6105b9613f06565b6040516105c691906151f1565b60405180910390f35b6105d76142f2565b6040516105e491906149c4565b60405180910390f35b6105f5614490565b6040516106029190614da5565b60405180910390f35b610625600480360381019061062091906155f7565b6144b4565b6040516106329190614b01565b60405180910390f35b61064361450d565b60405161065091906149ff565b60405180910390f35b600180546106669061566f565b80601f01602080910402602001604051908101604052809291908181526020018280546106929061566f565b80156106df5780601f106106b4576101008083540402835291602001916106df565b820191906000526020600020905b8154815290600101906020018083116106c257829003601f168201915b505050505081565b6060806000600560008573ffffffffffffffffffffffffffffffffffffffff1673ffffffffffffffffffffffffffffffffffffffff168152602001908152602001600020600101600560008673ffffffffffffffffffffffffffffffffffffffff1673ffffffffffffffffffffffffffffffffffffffff168152602001908152602001600020600201600560008773ffffffffffffffffffffffffffffffffffffffff1673ffffffffffffffffffffffffffffffffffffffff16815260200190815260200160002060030160009054906101000a900460ff168280546107cc9061566f565b80601f01602080910402602001604051908101604052809291908181526020018280546107f89061566f565b80156108455780601f1061081a57610100808354040283529160200191610845565b820191906000526020600020905b81548152906001019060200180831161082857829003601f168201915b505050505092508180546108589061566f565b80601f01602080910402602001604051908101604052809291908181526020018280546108849061566f565b80156108d15780601f106108a6576101008083540402835291602001916108d1565b820191906000526020600020905b8154815290600101906020018083116108b457829003601f168201915b505050505091509250925092509193909250565b606060008054906101000a900473ffffffffffffffffffffffffffffffffffffffff1673ffffffffffffffffffffffffffffffffffffffff163373ffffffffffffffffffffffffffffffffffffffff1614610975576040517f08c379a000000000000000000000000000000000000000000000000000000000815260040161096c90615713565b60405180910390fd5b60038054806020026020016040519081016040528092919081815260200182805480156109f757602002820191906000526020600020905b8160009054906101000a900473ffffffffffffffffffffffffffffffffffffffff1673ffffffffffffffffffffffffffffffffffffffff16815260200190600101908083116109ad575b5050505050905090565b6000600854905090565b60066020528060005260406000206000915090508060000160009054906101000a900473ffffffffffffffffffffffffffffffffffffffff1690806001018054610a549061566f565b80601f0160208091040260200160405190810160405280929190818152602001828054610a809061566f565b8015610acd5780601f10610aa257610100808354040283529160200191610acd565b820191906000526020600020905b815481529060010190602001808311610ab057829003601f168201915b505050505090806002018054610ae29061566f565b80601f0160208091040260200160405190810160405280929190818152602001828054610b0e9061566f565b8015610b5b5780601f10610b3057610100808354040283529160200191610b5b565b820191906000526020600020905b815481529060010190602001808311610b3e57829003601f168201915b505050505090806003018054610b709061566f565b80601f0160208091040260200160405190810160405280929190818152602001828054610b9c9061566f565b8015610be95780601f10610bbe57610100808354040283529160200191610be9565b820191906000526020600020905b815481529060010190602001808311610bcc57829003601f168201915b505050505090806004018054610bfe9061566f565b80601f0160208091040260200160405190810160405280929190818152602001828054610c2a9061566f565b8015610c775780601f10610c4c57610100808354040283529160200191610c77565b820191906000526020600020905b815481529060010190602001808311610c5a57829003601f168201915b505050505090806005018054610c8c9061566f565b80601f0160208091040260200160405190810160405280929190818152602001828054610cb89061566f565b8015610d055780601f10610cda57610100808354040283529160200191610d05565b820191906000526020600020905b815481529060010190602001808311610ce857829003601f168201915b5050505050908060060160009054906101000a900473ffffffffffffffffffffffffffffffffffffffff1690806007018054610d409061566f565b80601f0160208091040260200160405190810160405280929190818152602001828054610d6c9061566f565b8015610db95780601f10610d8e57610100808354040283529160200191610db9565b820191906000526020600020905b815481529060010190602001808311610d9c57829003601f168201915b5050505050905088565b60008054906101000a900473ffffffffffffffffffffffffffffffffffffffff1673ffffffffffffffffffffffffffffffffffffffff163373ffffffffffffffffffffffffffffffffffffffff1614610e51576040517f08c379a0000000000000000000000000000000000000000000000000000000008152600401610e4890615713565b60405180910390fd5b60005b600380549050811015610fde578173ffffffffffffffffffffffffffffffffffffffff1660038281548110610e8c57610e8b615733565b5b9060005260206000200160009054906101000a900473ffffffffffffffffffffffffffffffffffffffff1673ffffffffffffffffffffffffffffffffffffffff161415610fcb5760036001600380549050610ee79190615791565b81548110610ef857610ef7615733565b5b9060005260206000200160009054906101000a900473ffffffffffffffffffffffffffffffffffffffff1660038281548110610f3757610f36615733565b5b9060005260206000200160006101000a81548173ffffffffffffffffffffffffffffffffffffffff021916908373ffffffffffffffffffffffffffffffffffffffff1602179055506003805480610f9157610f906157c5565b5b6001900381819060005260206000200160006101000a81549073ffffffffffffffffffffffffffffffffffffffff02191690559055610fde565b8080610fd6906157f4565b915050610e54565b5050565b60026020528060005260406000206000915090508060000160009054906101000a900473ffffffffffffffffffffffffffffffffffffffff169080600101805461102b9061566f565b80601f01602080910402602001604051908101604052809291908181526020018280546110579061566f565b80156110a45780601f10611079576101008083540402835291602001916110a4565b820191906000526020600020905b81548152906001019060200180831161108757829003601f168201915b5050505050905082565b60008060009054906101000a900473ffffffffffffffffffffffffffffffffffffffff1673ffffffffffffffffffffffffffffffffffffffff168273ffffffffffffffffffffffffffffffffffffffff16149050919050565b6060600060045467ffffffffffffffff81111561112757611126614dca565b5b60405190808252806020026020018201604052801561116057816020015b61114d614513565b8152602001906001900390816111455790505b5090506000805b6003805490508110156114f257600560006003838154811061118c5761118b615733565b5b9060005260206000200160009054906101000a900473ffffffffffffffffffffffffffffffffffffffff1673ffffffffffffffffffffffffffffffffffffffff1673ffffffffffffffffffffffffffffffffffffffff16815260200190815260200160002060030160009054906101000a900460ff16156114df57600560006003838154811061121f5761121e615733565b5b9060005260206000200160009054906101000a900473ffffffffffffffffffffffffffffffffffffffff1673ffffffffffffffffffffffffffffffffffffffff1673ffffffffffffffffffffffffffffffffffffffff1681526020019081526020016000206040518060a00160405290816000820160009054906101000a900473ffffffffffffffffffffffffffffffffffffffff1673ffffffffffffffffffffffffffffffffffffffff1673ffffffffffffffffffffffffffffffffffffffff1681526020016001820180546112f59061566f565b80601f01602080910402602001604051908101604052809291908181526020018280546113219061566f565b801561136e5780601f106113435761010080835404028352916020019161136e565b820191906000526020600020905b81548152906001019060200180831161135157829003601f168201915b505050505081526020016002820180546113879061566f565b80601f01602080910402602001604051908101604052809291908181526020018280546113b39061566f565b80156114005780601f106113d557610100808354040283529160200191611400565b820191906000526020600020905b8154815290600101906020018083116113e357829003601f168201915b505050505081526020016003820160009054906101000a900460ff16151515158152602001600482018054806020026020016040519081016040528092919081815260200182805480156114a957602002820191906000526020600020905b8160009054906101000a900473ffffffffffffffffffffffffffffffffffffffff1673ffffffffffffffffffffffffffffffffffffffff168152602001906001019080831161145f575b5050505050815250508383815181106114c5576114c4615733565b5b602002602001018190525081806114db906157f4565b9250505b80806114ea906157f4565b915050611167565b50819250505090565b3373ffffffffffffffffffffffffffffffffffffffff16600560003373ffffffffffffffffffffffffffffffffffffffff1673ffffffffffffffffffffffffffffffffffffffff16815260200190815260200160002060000160009054906101000a900473ffffffffffffffffffffffffffffffffffffffff1673ffffffffffffffffffffffffffffffffffffffff16146115cb576040517f08c379a00000000000000000000000000000000000000000000000000000000081526004016115c290615889565b60405180910390fd5b6040518060400160405280600581526020017f66616c7365000000000000000000000000000000000000000000000000000000815250600660008373ffffffffffffffffffffffffffffffffffffffff1673ffffffffffffffffffffffffffffffffffffffff168152602001908152602001600020600501908051906020019061165692919061455a565b5050565b6003818154811061166a57600080fd5b906000526020600020016000915054906101000a900473ffffffffffffffffffffffffffffffffffffffff1681565b606060008054906101000a900473ffffffffffffffffffffffffffffffffffffffff1673ffffffffffffffffffffffffffffffffffffffff163373ffffffffffffffffffffffffffffffffffffffff1614611729576040517f08c379a000000000000000000000000000000000000000000000000000000000815260040161172090615713565b60405180910390fd5b600060038054905067ffffffffffffffff81111561174a57611749614dca565b5b60405190808252806020026020018201604052801561178357816020015b611770614513565b8152602001906001900390816117685790505b50905060005b600380549050811015611b055760056000600383815481106117ae576117ad615733565b5b9060005260206000200160009054906101000a900473ffffffffffffffffffffffffffffffffffffffff1673ffffffffffffffffffffffffffffffffffffffff1673ffffffffffffffffffffffffffffffffffffffff16815260200190815260200160002060030160009054906101000a900460ff16611af25760056000600383815481106118405761183f615733565b5b9060005260206000200160009054906101000a900473ffffffffffffffffffffffffffffffffffffffff1673ffffffffffffffffffffffffffffffffffffffff1673ffffffffffffffffffffffffffffffffffffffff1681526020019081526020016000206040518060a00160405290816000820160009054906101000a900473ffffffffffffffffffffffffffffffffffffffff1673ffffffffffffffffffffffffffffffffffffffff1673ffffffffffffffffffffffffffffffffffffffff1681526020016001820180546119169061566f565b80601f01602080910402602001604051908101604052809291908181526020018280546119429061566f565b801561198f5780601f106119645761010080835404028352916020019161198f565b820191906000526020600020905b81548152906001019060200180831161197257829003601f168201915b505050505081526020016002820180546119a89061566f565b80601f01602080910402602001604051908101604052809291908181526020018280546119d49061566f565b8015611a215780601f106119f657610100808354040283529160200191611a21565b820191906000526020600020905b815481529060010190602001808311611a0457829003601f168201915b505050505081526020016003820160009054906101000a900460ff1615151515815260200160048201805480602002602001604051908101604052809291908181526020018280548015611aca57602002820191906000526020600020905b8160009054906101000a900473ffffffffffffffffffffffffffffffffffffffff1673ffffffffffffffffffffffffffffffffffffffff1681526020019060010190808311611a80575b505050505081525050828281518110611ae657611ae5615733565b5b60200260200101819052505b8080611afd906157f4565b915050611789565b508091505090565b3373ffffffffffffffffffffffffffffffffffffffff16600560003373ffffffffffffffffffffffffffffffffffffffff1673ffffffffffffffffffffffffffffffffffffffff16815260200190815260200160002060000160009054906101000a900473ffffffffffffffffffffffffffffffffffffffff1673ffffffffffffffffffffffffffffffffffffffff1614611bdd576040517f08c379a0000000000000000000000000000000000000000000000000000000008152600401611bd490615889565b60405180910390fd5b80600660008473ffffffffffffffffffffffffffffffffffffffff1673ffffffffffffffffffffffffffffffffffffffff1681526020019081526020016000206007019080519060200190611c3392919061455a565b505050565b60008054906101000a900473ffffffffffffffffffffffffffffffffffffffff1673ffffffffffffffffffffffffffffffffffffffff163373ffffffffffffffffffffffffffffffffffffffff1614611cc6576040517f08c379a0000000000000000000000000000000000000000000000000000000008152600401611cbd90615713565b60405180910390fd5b6001600560008373ffffffffffffffffffffffffffffffffffffffff1673ffffffffffffffffffffffffffffffffffffffff16815260200190815260200160002060030160006101000a81548160ff02191690831515021790555060046000815480929190611d34906157f4565b919050555050565b60056020528060005260406000206000915090508060000160009054906101000a900473ffffffffffffffffffffffffffffffffffffffff1690806001018054611d859061566f565b80601f0160208091040260200160405190810160405280929190818152602001828054611db19061566f565b8015611dfe5780601f10611dd357610100808354040283529160200191611dfe565b820191906000526020600020905b815481529060010190602001808311611de157829003601f168201915b505050505090806002018054611e139061566f565b80601f0160208091040260200160405190810160405280929190818152602001828054611e3f9061566f565b8015611e8c5780601f10611e6157610100808354040283529160200191611e8c565b820191906000526020600020905b815481529060010190602001808311611e6f57829003601f168201915b5050505050908060030160009054906101000a900460ff16905084565b3373ffffffffffffffffffffffffffffffffffffffff16600660003373ffffffffffffffffffffffffffffffffffffffff1673ffffffffffffffffffffffffffffffffffffffff16815260200190815260200160002060000160009054906101000a900473ffffffffffffffffffffffffffffffffffffffff1673ffffffffffffffffffffffffffffffffffffffff161415611f7a576040517f08c379a0000000000000000000000000000000000000000000000000000000008152600401611f71906158f5565b60405180910390fd5b6040518061010001604052803373ffffffffffffffffffffffffffffffffffffffff1681526020018781526020018681526020018581526020018481526020016040518060400160405280600581526020017f66616c736500000000000000000000000000000000000000000000000000000081525081526020018373ffffffffffffffffffffffffffffffffffffffff16815260200182815250600660003373ffffffffffffffffffffffffffffffffffffffff1673ffffffffffffffffffffffffffffffffffffffff16815260200190815260200160002060008201518160000160006101000a81548173ffffffffffffffffffffffffffffffffffffffff021916908373ffffffffffffffffffffffffffffffffffffffff16021790555060208201518160010190805190602001906120b792919061455a565b5060408201518160020190805190602001906120d492919061455a565b5060608201518160030190805190602001906120f192919061455a565b50608082015181600401908051906020019061210e92919061455a565b5060a082015181600501908051906020019061212b92919061455a565b5060c08201518160060160006101000a81548173ffffffffffffffffffffffffffffffffffffffff021916908373ffffffffffffffffffffffffffffffffffffffff16021790555060e082015181600701908051906020019061218f92919061455a565b50905050505050505050565b60606007805480602002602001604051908101604052809291908181526020016000905b8282101561233957838290600052602060002090600402016040518060800160405290816000820160009054906101000a900473ffffffffffffffffffffffffffffffffffffffff1673ffffffffffffffffffffffffffffffffffffffff1673ffffffffffffffffffffffffffffffffffffffff1681526020016001820160009054906101000a900473ffffffffffffffffffffffffffffffffffffffff1673ffffffffffffffffffffffffffffffffffffffff1673ffffffffffffffffffffffffffffffffffffffff168152602001600282015481526020016003820180546122a89061566f565b80601f01602080910402602001604051908101604052809291908181526020018280546122d49061566f565b80156123215780601f106122f657610100808354040283529160200191612321565b820191906000526020600020905b81548152906001019060200180831161230457829003601f168201915b505050505081525050815260200190600101906121bf565b50505050905090565b6007818154811061235257600080fd5b90600052602060002090600402016000915090508060000160009054906101000a900473ffffffffffffffffffffffffffffffffffffffff16908060010160009054906101000a900473ffffffffffffffffffffffffffffffffffffffff16908060020154908060030180546123c79061566f565b80601f01602080910402602001604051908101604052809291908181526020018280546123f39061566f565b80156124405780601f1061241557610100808354040283529160200191612440565b820191906000526020600020905b81548152906001019060200180831161242357829003601f168201915b5050505050905084565b3373ffffffffffffffffffffffffffffffffffffffff16600560003373ffffffffffffffffffffffffffffffffffffffff1673ffffffffffffffffffffffffffffffffffffffff16815260200190815260200160002060000160009054906101000a900473ffffffffffffffffffffffffffffffffffffffff1673ffffffffffffffffffffffffffffffffffffffff161461251a576040517f08c379a000000000000000000000000000000000000000000000000000000000815260040161251190615889565b60405180910390fd5b600560003373ffffffffffffffffffffffffffffffffffffffff1673ffffffffffffffffffffffffffffffffffffffff168152602001908152602001600020600401819080600181540180825580915050600190039060005260206000200160009091909190916101000a81548173ffffffffffffffffffffffffffffffffffffffff021916908373ffffffffffffffffffffffffffffffffffffffff16021790555050565b60085481565b3373ffffffffffffffffffffffffffffffffffffffff16600560003373ffffffffffffffffffffffffffffffffffffffff1673ffffffffffffffffffffffffffffffffffffffff16815260200190815260200160002060000160009054906101000a900473ffffffffffffffffffffffffffffffffffffffff1673ffffffffffffffffffffffffffffffffffffffff161415612697576040517f08c379a000000000000000000000000000000000000000000000000000000000815260040161268e90615961565b60405180910390fd5b6040518060a001604052803373ffffffffffffffffffffffffffffffffffffffff168152602001838152602001828152602001600015158152602001600067ffffffffffffffff8111156126ee576126ed614dca565b5b60405190808252806020026020018201604052801561271c5781602001602082028036833780820191505090505b50815250600560003373ffffffffffffffffffffffffffffffffffffffff1673ffffffffffffffffffffffffffffffffffffffff16815260200190815260200160002060008201518160000160006101000a81548173ffffffffffffffffffffffffffffffffffffffff021916908373ffffffffffffffffffffffffffffffffffffffff16021790555060208201518160010190805190602001906127c292919061455a565b5060408201518160020190805190602001906127df92919061455a565b5060608201518160030160006101000a81548160ff021916908315150217905550608082015181600401908051906020019061281c9291906145e0565b509050506003339080600181540180825580915050600190039060005260206000200160009091909190916101000a81548173ffffffffffffffffffffffffffffffffffffffff021916908373ffffffffffffffffffffffffffffffffffffffff1602179055505050565b60603373ffffffffffffffffffffffffffffffffffffffff16600560003373ffffffffffffffffffffffffffffffffffffffff1673ffffffffffffffffffffffffffffffffffffffff16815260200190815260200160002060000160009054906101000a900473ffffffffffffffffffffffffffffffffffffffff1673ffffffffffffffffffffffffffffffffffffffff1614612959576040517f08c379a000000000000000000000000000000000000000000000000000000000815260040161295090615889565b60405180910390fd5b6000600560008473ffffffffffffffffffffffffffffffffffffffff1673ffffffffffffffffffffffffffffffffffffffff1681526020019081526020016000206004018054905067ffffffffffffffff8111156129ba576129b9614dca565b5b6040519080825280602002602001820160405280156129f357816020015b6129e061466a565b8152602001906001900390816129d85790505b50905060005b600560008573ffffffffffffffffffffffffffffffffffffffff1673ffffffffffffffffffffffffffffffffffffffff16815260200190815260200160002060040180549050811015612f585760066000600560008773ffffffffffffffffffffffffffffffffffffffff1673ffffffffffffffffffffffffffffffffffffffff1681526020019081526020016000206004018381548110612a9e57612a9d615733565b5b9060005260206000200160009054906101000a900473ffffffffffffffffffffffffffffffffffffffff1673ffffffffffffffffffffffffffffffffffffffff1673ffffffffffffffffffffffffffffffffffffffff168152602001908152602001600020604051806101000160405290816000820160009054906101000a900473ffffffffffffffffffffffffffffffffffffffff1673ffffffffffffffffffffffffffffffffffffffff1673ffffffffffffffffffffffffffffffffffffffff168152602001600182018054612b759061566f565b80601f0160208091040260200160405190810160405280929190818152602001828054612ba19061566f565b8015612bee5780601f10612bc357610100808354040283529160200191612bee565b820191906000526020600020905b815481529060010190602001808311612bd157829003601f168201915b50505050508152602001600282018054612c079061566f565b80601f0160208091040260200160405190810160405280929190818152602001828054612c339061566f565b8015612c805780601f10612c5557610100808354040283529160200191612c80565b820191906000526020600020905b815481529060010190602001808311612c6357829003601f168201915b50505050508152602001600382018054612c999061566f565b80601f0160208091040260200160405190810160405280929190818152602001828054612cc59061566f565b8015612d125780601f10612ce757610100808354040283529160200191612d12565b820191906000526020600020905b815481529060010190602001808311612cf557829003601f168201915b50505050508152602001600482018054612d2b9061566f565b80601f0160208091040260200160405190810160405280929190818152602001828054612d579061566f565b8015612da45780601f10612d7957610100808354040283529160200191612da4565b820191906000526020600020905b815481529060010190602001808311612d8757829003601f168201915b50505050508152602001600582018054612dbd9061566f565b80601f0160208091040260200160405190810160405280929190818152602001828054612de99061566f565b8015612e365780601f10612e0b57610100808354040283529160200191612e36565b820191906000526020600020905b815481529060010190602001808311612e1957829003601f168201915b505050505081526020016006820160009054906101000a900473ffffffffffffffffffffffffffffffffffffffff1673ffffffffffffffffffffffffffffffffffffffff1673ffffffffffffffffffffffffffffffffffffffff168152602001600782018054612ea59061566f565b80601f0160208091040260200160405190810160405280929190818152602001828054612ed19061566f565b8015612f1e5780601f10612ef357610100808354040283529160200191612f1e565b820191906000526020600020905b815481529060010190602001808311612f0157829003601f168201915b505050505081525050828281518110612f3a57612f39615733565b5b60200260200101819052508080612f50906157f4565b9150506129f9565b5080915050919050565b60608060608060006060600660008873ffffffffffffffffffffffffffffffffffffffff1673ffffffffffffffffffffffffffffffffffffffff168152602001908152602001600020600101600660008973ffffffffffffffffffffffffffffffffffffffff1673ffffffffffffffffffffffffffffffffffffffff168152602001908152602001600020600201600660008a73ffffffffffffffffffffffffffffffffffffffff1673ffffffffffffffffffffffffffffffffffffffff168152602001908152602001600020600301600660008b73ffffffffffffffffffffffffffffffffffffffff1673ffffffffffffffffffffffffffffffffffffffff168152602001908152602001600020600401600660008c73ffffffffffffffffffffffffffffffffffffffff1673ffffffffffffffffffffffffffffffffffffffff16815260200190815260200160002060060160009054906101000a900473ffffffffffffffffffffffffffffffffffffffff16600660008d73ffffffffffffffffffffffffffffffffffffffff1673ffffffffffffffffffffffffffffffffffffffff1681526020019081526020016000206007018580546131259061566f565b80601f01602080910402602001604051908101604052809291908181526020018280546131519061566f565b801561319e5780601f106131735761010080835404028352916020019161319e565b820191906000526020600020905b81548152906001019060200180831161318157829003601f168201915b505050505095508480546131b19061566f565b80601f01602080910402602001604051908101604052809291908181526020018280546131dd9061566f565b801561322a5780601f106131ff5761010080835404028352916020019161322a565b820191906000526020600020905b81548152906001019060200180831161320d57829003601f168201915b5050505050945083805461323d9061566f565b80601f01602080910402602001604051908101604052809291908181526020018280546132699061566f565b80156132b65780601f1061328b576101008083540402835291602001916132b6565b820191906000526020600020905b81548152906001019060200180831161329957829003601f168201915b505050505093508280546132c99061566f565b80601f01602080910402602001604051908101604052809291908181526020018280546132f59061566f565b80156133425780601f1061331757610100808354040283529160200191613342565b820191906000526020600020905b81548152906001019060200180831161332557829003601f168201915b505050505092508080546133559061566f565b80601f01602080910402602001604051908101604052809291908181526020018280546133819061566f565b80156133ce5780601f106133a3576101008083540402835291602001916133ce565b820191906000526020600020905b8154815290600101906020018083116133b157829003601f168201915b5050505050905095509550955095509550955091939550919395565b60608060608060608573ffffffffffffffffffffffffffffffffffffffff16600560008873ffffffffffffffffffffffffffffffffffffffff1673ffffffffffffffffffffffffffffffffffffffff16815260200190815260200160002060000160009054906101000a900473ffffffffffffffffffffffffffffffffffffffff1673ffffffffffffffffffffffffffffffffffffffff16146134c2576040517f08c379a00000000000000000000000000000000000000000000000000000000081526004016134b990615889565b60405180910390fd5b600560008773ffffffffffffffffffffffffffffffffffffffff1673ffffffffffffffffffffffffffffffffffffffff16815260200190815260200160002060030160009054906101000a900460ff16613551576040517f08c379a0000000000000000000000000000000000000000000000000000000008152600401613548906159cd565b60405180910390fd5b600560008773ffffffffffffffffffffffffffffffffffffffff1673ffffffffffffffffffffffffffffffffffffffff168152602001908152602001600020600101600560008873ffffffffffffffffffffffffffffffffffffffff1673ffffffffffffffffffffffffffffffffffffffff168152602001908152602001600020600201600560008973ffffffffffffffffffffffffffffffffffffffff1673ffffffffffffffffffffffffffffffffffffffff1681526020019081526020016000206004018054905060405160200161362b9190615a0e565b604051602081830303815290604052600560008a73ffffffffffffffffffffffffffffffffffffffff1673ffffffffffffffffffffffffffffffffffffffff16815260200190815260200160002060000160009054906101000a900473ffffffffffffffffffffffffffffffffffffffff166040516020016136ad9190615a71565b604051602081830303815290604052600560008b73ffffffffffffffffffffffffffffffffffffffff1673ffffffffffffffffffffffffffffffffffffffff168152602001908152602001600020600401805490506040516020016137129190615a0e565b60405160208183030381529060405284805461372d9061566f565b80601f01602080910402602001604051908101604052809291908181526020018280546137599061566f565b80156137a65780601f1061377b576101008083540402835291602001916137a6565b820191906000526020600020905b81548152906001019060200180831161378957829003601f168201915b505050505094508380546137b99061566f565b80601f01602080910402602001604051908101604052809291908181526020018280546137e59061566f565b80156138325780601f1061380757610100808354040283529160200191613832565b820191906000526020600020905b81548152906001019060200180831161381557829003601f168201915b505050505093509450945094509450945091939590929450565b3373ffffffffffffffffffffffffffffffffffffffff16600560003373ffffffffffffffffffffffffffffffffffffffff1673ffffffffffffffffffffffffffffffffffffffff16815260200190815260200160002060000160009054906101000a900473ffffffffffffffffffffffffffffffffffffffff1673ffffffffffffffffffffffffffffffffffffffff161461391c576040517f08c379a000000000000000000000000000000000000000000000000000000000815260040161391390615889565b60405180910390fd5b6040518060400160405280600481526020017f7472756500000000000000000000000000000000000000000000000000000000815250600660008373ffffffffffffffffffffffffffffffffffffffff1673ffffffffffffffffffffffffffffffffffffffff16815260200190815260200160002060050190805190602001906139a792919061455a565b5050565b3373ffffffffffffffffffffffffffffffffffffffff16600660003373ffffffffffffffffffffffffffffffffffffffff1673ffffffffffffffffffffffffffffffffffffffff16815260200190815260200160002060000160009054906101000a900473ffffffffffffffffffffffffffffffffffffffff1673ffffffffffffffffffffffffffffffffffffffff1614613a7b576040517f08c379a0000000000000000000000000000000000000000000000000000000008152600401613a7290615afe565b60405180910390fd5b8273ffffffffffffffffffffffffffffffffffffffff16600660008573ffffffffffffffffffffffffffffffffffffffff1673ffffffffffffffffffffffffffffffffffffffff16815260200190815260200160002060000160009054906101000a900473ffffffffffffffffffffffffffffffffffffffff1673ffffffffffffffffffffffffffffffffffffffff1614613b4b576040517f08c379a0000000000000000000000000000000000000000000000000000000008152600401613b4290615b6a565b60405180910390fd5b604051602001613b5a90615be1565b60405160208183030381529060405280519060200120600660008573ffffffffffffffffffffffffffffffffffffffff1673ffffffffffffffffffffffffffffffffffffffff168152602001908152602001600020600501604051602001613bc29190615c8a565b6040516020818303038152906040528051906020012014613c18576040517f08c379a0000000000000000000000000000000000000000000000000000000008152600401613c0f90615ced565b60405180910390fd5b3373ffffffffffffffffffffffffffffffffffffffff16600560003373ffffffffffffffffffffffffffffffffffffffff1673ffffffffffffffffffffffffffffffffffffffff16815260200190815260200160002060000160009054906101000a900473ffffffffffffffffffffffffffffffffffffffff1673ffffffffffffffffffffffffffffffffffffffff161415613ce9576040517f08c379a0000000000000000000000000000000000000000000000000000000008152600401613ce090615d59565b60405180910390fd5b8273ffffffffffffffffffffffffffffffffffffffff16600560008573ffffffffffffffffffffffffffffffffffffffff1673ffffffffffffffffffffffffffffffffffffffff16815260200190815260200160002060000160009054906101000a900473ffffffffffffffffffffffffffffffffffffffff1673ffffffffffffffffffffffffffffffffffffffff161415613dba576040517f08c379a0000000000000000000000000000000000000000000000000000000008152600401613db190615dc5565b60405180910390fd5b600760405180608001604052803373ffffffffffffffffffffffffffffffffffffffff1681526020018573ffffffffffffffffffffffffffffffffffffffff16815260200184815260200183815250908060018154018082558091505060019003906000526020600020906004020160009091909190915060008201518160000160006101000a81548173ffffffffffffffffffffffffffffffffffffffff021916908373ffffffffffffffffffffffffffffffffffffffff16021790555060208201518160010160006101000a81548173ffffffffffffffffffffffffffffffffffffffff021916908373ffffffffffffffffffffffffffffffffffffffff160217905550604082015181600201556060820151816003019080519060200190613ee692919061455a565b50505060086000815480929190613efc906157f4565b9190505550505050565b60603373ffffffffffffffffffffffffffffffffffffffff16600660003373ffffffffffffffffffffffffffffffffffffffff1673ffffffffffffffffffffffffffffffffffffffff16815260200190815260200160002060000160009054906101000a900473ffffffffffffffffffffffffffffffffffffffff1673ffffffffffffffffffffffffffffffffffffffff1614613fd8576040517f08c379a0000000000000000000000000000000000000000000000000000000008152600401613fcf90615afe565b60405180910390fd5b600060085467ffffffffffffffff811115613ff657613ff5614dca565b5b60405190808252806020026020018201604052801561402f57816020015b61401c6146db565b8152602001906001900390816140145790505b5090506000805b6008548110156142e9573373ffffffffffffffffffffffffffffffffffffffff166007828154811061406b5761406a615733565b5b906000526020600020906004020160000160009054906101000a900473ffffffffffffffffffffffffffffffffffffffff1673ffffffffffffffffffffffffffffffffffffffff16148061412f57503373ffffffffffffffffffffffffffffffffffffffff16600782815481106140e5576140e4615733565b5b906000526020600020906004020160010160009054906101000a900473ffffffffffffffffffffffffffffffffffffffff1673ffffffffffffffffffffffffffffffffffffffff16145b156142d6576007818154811061414857614147615733565b5b90600052602060002090600402016040518060800160405290816000820160009054906101000a900473ffffffffffffffffffffffffffffffffffffffff1673ffffffffffffffffffffffffffffffffffffffff1673ffffffffffffffffffffffffffffffffffffffff1681526020016001820160009054906101000a900473ffffffffffffffffffffffffffffffffffffffff1673ffffffffffffffffffffffffffffffffffffffff1673ffffffffffffffffffffffffffffffffffffffff168152602001600282015481526020016003820180546142279061566f565b80601f01602080910402602001604051908101604052809291908181526020018280546142539061566f565b80156142a05780601f10614275576101008083540402835291602001916142a0565b820191906000526020600020905b81548152906001019060200180831161428357829003601f168201915b5050505050815250508383815181106142bc576142bb615733565b5b602002602001018190525081806142d2906157f4565b9250505b80806142e1906157f4565b915050614036565b50819250505090565b60603373ffffffffffffffffffffffffffffffffffffffff16600560003373ffffffffffffffffffffffffffffffffffffffff1673ffffffffffffffffffffffffffffffffffffffff16815260200190815260200160002060000160009054906101000a900473ffffffffffffffffffffffffffffffffffffffff1673ffffffffffffffffffffffffffffffffffffffff16146143c4576040517f08c379a00000000000000000000000000000000000000000000000000000000081526004016143bb90615889565b60405180910390fd5b600560003373ffffffffffffffffffffffffffffffffffffffff1673ffffffffffffffffffffffffffffffffffffffff16815260200190815260200160002060040180548060200260200160405190810160405280929190818152602001828054801561448657602002820191906000526020600020905b8160009054906101000a900473ffffffffffffffffffffffffffffffffffffffff1673ffffffffffffffffffffffffffffffffffffffff168152602001906001019080831161443c575b5050505050905090565b60008054906101000a900473ffffffffffffffffffffffffffffffffffffffff1681565b600060016040516020016144c89190615c8a565b60405160208183030381529060405280519060200120826040516020016144ef9190615e16565b60405160208183030381529060405280519060200120149050919050565b60045481565b6040518060a00160405280600073ffffffffffffffffffffffffffffffffffffffff1681526020016060815260200160608152602001600015158152602001606081525090565b8280546145669061566f565b90600052602060002090601f01602090048101928261458857600085556145cf565b82601f106145a157805160ff19168380011785556145cf565b828001600101855582156145cf579182015b828111156145ce5782518255916020019190600101906145b3565b5b5090506145dc919061472f565b5090565b828054828255906000526020600020908101928215614659579160200282015b828111156146585782518260006101000a81548173ffffffffffffffffffffffffffffffffffffffff021916908373ffffffffffffffffffffffffffffffffffffffff16021790555091602001919060010190614600565b5b509050614666919061472f565b5090565b604051806101000160405280600073ffffffffffffffffffffffffffffffffffffffff1681526020016060815260200160608152602001606081526020016060815260200160608152602001600073ffffffffffffffffffffffffffffffffffffffff168152602001606081525090565b6040518060800160405280600073ffffffffffffffffffffffffffffffffffffffff168152602001600073ffffffffffffffffffffffffffffffffffffffff16815260200160008152602001606081525090565b5b80821115614748576000816000905550600101614730565b5090565b600081519050919050565b600082825260208201905092915050565b60005b8381101561478657808201518184015260208101905061476b565b83811115614795576000848401525b50505050565b6000601f19601f8301169050919050565b60006147b78261474c565b6147c18185614757565b93506147d1818560208601614768565b6147da8161479b565b840191505092915050565b600060208201905081810360008301526147ff81846147ac565b905092915050565b6000604051905090565b600080fd5b600080fd5b600073ffffffffffffffffffffffffffffffffffffffff82169050919050565b60006148468261481b565b9050919050565b6148568161483b565b811461486157600080fd5b50565b6000813590506148738161484d565b92915050565b60006020828403121561488f5761488e614811565b5b600061489d84828501614864565b91505092915050565b60008115159050919050565b6148bb816148a6565b82525050565b600060608201905081810360008301526148db81866147ac565b905081810360208301526148ef81856147ac565b90506148fe60408301846148b2565b949350505050565b600081519050919050565b600082825260208201905092915050565b6000819050602082019050919050565b61493b8161483b565b82525050565b600061494d8383614932565b60208301905092915050565b6000602082019050919050565b600061497182614906565b61497b8185614911565b935061498683614922565b8060005b838110156149b757815161499e8882614941565b97506149a983614959565b92505060018101905061498a565b5085935050505092915050565b600060208201905081810360008301526149de8184614966565b905092915050565b6000819050919050565b6149f9816149e6565b82525050565b6000602082019050614a1460008301846149f0565b92915050565b614a238161483b565b82525050565b600061010082019050614a3f600083018b614a1a565b8181036020830152614a51818a6147ac565b90508181036040830152614a6581896147ac565b90508181036060830152614a7981886147ac565b90508181036080830152614a8d81876147ac565b905081810360a0830152614aa181866147ac565b9050614ab060c0830185614a1a565b81810360e0830152614ac281846147ac565b90509998505050505050505050565b6000604082019050614ae66000830185614a1a565b8181036020830152614af881846147ac565b90509392505050565b6000602082019050614b1660008301846148b2565b92915050565b600081519050919050565b600082825260208201905092915050565b6000819050602082019050919050565b600082825260208201905092915050565b6000614b648261474c565b614b6e8185614b48565b9350614b7e818560208601614768565b614b878161479b565b840191505092915050565b614b9b816148a6565b82525050565b600082825260208201905092915050565b6000614bbd82614906565b614bc78185614ba1565b9350614bd283614922565b8060005b83811015614c03578151614bea8882614941565b9750614bf583614959565b925050600181019050614bd6565b5085935050505092915050565b600060a083016000830151614c286000860182614932565b5060208301518482036020860152614c408282614b59565b91505060408301518482036040860152614c5a8282614b59565b9150506060830151614c6f6060860182614b92565b5060808301518482036080860152614c878282614bb2565b9150508091505092915050565b6000614ca08383614c10565b905092915050565b6000602082019050919050565b6000614cc082614b1c565b614cca8185614b27565b935083602082028501614cdc85614b38565b8060005b85811015614d185784840389528151614cf98582614c94565b9450614d0483614ca8565b925060208a01995050600181019050614ce0565b50829750879550505050505092915050565b60006020820190508181036000830152614d448184614cb5565b905092915050565b614d55816149e6565b8114614d6057600080fd5b50565b600081359050614d7281614d4c565b92915050565b600060208284031215614d8e57614d8d614811565b5b6000614d9c84828501614d63565b91505092915050565b6000602082019050614dba6000830184614a1a565b92915050565b600080fd5b600080fd5b7f4e487b7100000000000000000000000000000000000000000000000000000000600052604160045260246000fd5b614e028261479b565b810181811067ffffffffffffffff82111715614e2157614e20614dca565b5b80604052505050565b6000614e34614807565b9050614e408282614df9565b919050565b600067ffffffffffffffff821115614e6057614e5f614dca565b5b614e698261479b565b9050602081019050919050565b82818337600083830152505050565b6000614e98614e9384614e45565b614e2a565b905082815260208101848484011115614eb457614eb3614dc5565b5b614ebf848285614e76565b509392505050565b600082601f830112614edc57614edb614dc0565b5b8135614eec848260208601614e85565b91505092915050565b60008060408385031215614f0c57614f0b614811565b5b6000614f1a85828601614864565b925050602083013567ffffffffffffffff811115614f3b57614f3a614816565b5b614f4785828601614ec7565b9150509250929050565b6000608082019050614f666000830187614a1a565b8181036020830152614f7881866147ac565b90508181036040830152614f8c81856147ac565b9050614f9b60608301846148b2565b95945050505050565b60008060008060008060c08789031215614fc157614fc0614811565b5b600087013567ffffffffffffffff811115614fdf57614fde614816565b5b614feb89828a01614ec7565b965050602087013567ffffffffffffffff81111561500c5761500b614816565b5b61501889828a01614ec7565b955050604087013567ffffffffffffffff81111561503957615038614816565b5b61504589828a01614ec7565b945050606087013567ffffffffffffffff81111561506657615065614816565b5b61507289828a01614ec7565b935050608061508389828a01614864565b92505060a087013567ffffffffffffffff8111156150a4576150a3614816565b5b6150b089828a01614ec7565b9150509295509295509295565b600081519050919050565b600082825260208201905092915050565b6000819050602082019050919050565b6150f2816149e6565b82525050565b60006080830160008301516151106000860182614932565b5060208301516151236020860182614932565b50604083015161513660408601826150e9565b506060830151848203606086015261514e8282614b59565b9150508091505092915050565b600061516783836150f8565b905092915050565b6000602082019050919050565b6000615187826150bd565b61519181856150c8565b9350836020820285016151a3856150d9565b8060005b858110156151df57848403895281516151c0858261515b565b94506151cb8361516f565b925060208a019950506001810190506151a7565b50829750879550505050505092915050565b6000602082019050818103600083015261520b818461517c565b905092915050565b60006080820190506152286000830187614a1a565b6152356020830186614a1a565b61524260408301856149f0565b818103606083015261525481846147ac565b905095945050505050565b6000806040838503121561527657615275614811565b5b600083013567ffffffffffffffff81111561529457615293614816565b5b6152a085828601614ec7565b925050602083013567ffffffffffffffff8111156152c1576152c0614816565b5b6152cd85828601614ec7565b9150509250929050565b600081519050919050565b600082825260208201905092915050565b6000819050602082019050919050565b60006101008301600083015161531c6000860182614932565b50602083015184820360208601526153348282614b59565b9150506040830151848203604086015261534e8282614b59565b915050606083015184820360608601526153688282614b59565b915050608083015184820360808601526153828282614b59565b91505060a083015184820360a086015261539c8282614b59565b91505060c08301516153b160c0860182614932565b5060e083015184820360e08601526153c98282614b59565b9150508091505092915050565b60006153e28383615303565b905092915050565b6000602082019050919050565b6000615402826152d7565b61540c81856152e2565b93508360208202850161541e856152f3565b8060005b8581101561545a578484038952815161543b85826153d6565b9450615446836153ea565b925060208a01995050600181019050615422565b50829750879550505050505092915050565b6000602082019050818103600083015261548681846153f7565b905092915050565b600060c08201905081810360008301526154a881896147ac565b905081810360208301526154bc81886147ac565b905081810360408301526154d081876147ac565b905081810360608301526154e481866147ac565b90506154f36080830185614a1a565b81810360a083015261550581846147ac565b9050979650505050505050565b600060a082019050818103600083015261552c81886147ac565b9050818103602083015261554081876147ac565b9050818103604083015261555481866147ac565b9050818103606083015261556881856147ac565b9050818103608083015261557c81846147ac565b90509695505050505050565b6000806000606084860312156155a1576155a0614811565b5b60006155af86828701614864565b93505060206155c086828701614d63565b925050604084013567ffffffffffffffff8111156155e1576155e0614816565b5b6155ed86828701614ec7565b9150509250925092565b60006020828403121561560d5761560c614811565b5b600082013567ffffffffffffffff81111561562b5761562a614816565b5b61563784828501614ec7565b91505092915050565b7f4e487b7100000000000000000000000000000000000000000000000000000000600052602260045260246000fd5b6000600282049050600182168061568757607f821691505b6020821081141561569b5761569a615640565b5b50919050565b7f4f6e6c792061646d696e2063616e2063616c6c20746869732066756e6374696f60008201527f6e00000000000000000000000000000000000000000000000000000000000000602082015250565b60006156fd602183614757565b9150615708826156a1565b604082019050919050565b6000602082019050818103600083015261572c816156f0565b9050919050565b7f4e487b7100000000000000000000000000000000000000000000000000000000600052603260045260246000fd5b7f4e487b7100000000000000000000000000000000000000000000000000000000600052601160045260246000fd5b600061579c826149e6565b91506157a7836149e6565b9250828210156157ba576157b9615762565b5b828203905092915050565b7f4e487b7100000000000000000000000000000000000000000000000000000000600052603160045260246000fd5b60006157ff826149e6565b91507fffffffffffffffffffffffffffffffffffffffffffffffffffffffffffffffff82141561583257615831615762565b5b600182019050919050565b7f4f6e6c792062616e6b2063616e2063616c6c20746869732066756e6374696f6e600082015250565b6000615873602083614757565b915061587e8261583d565b602082019050919050565b600060208201905081810360008301526158a281615866565b9050919050565b7f437573746f6d657220616c726561647920657869737473000000000000000000600082015250565b60006158df601783614757565b91506158ea826158a9565b602082019050919050565b6000602082019050818103600083015261590e816158d2565b9050919050565b7f42616e6b20616c72656164792065786973747300000000000000000000000000600082015250565b600061594b601383614757565b915061595682615915565b602082019050919050565b6000602082019050818103600083015261597a8161593e565b9050919050565b7f42616e6b206e6f74207665726966696564000000000000000000000000000000600082015250565b60006159b7601183614757565b91506159c282615981565b602082019050919050565b600060208201905081810360008301526159e6816159aa565b9050919050565b6000819050919050565b615a08615a03826149e6565b6159ed565b82525050565b6000615a1a82846159f7565b60208201915081905092915050565b60008160601b9050919050565b6000615a4182615a29565b9050919050565b6000615a5382615a36565b9050919050565b615a6b615a668261483b565b615a48565b82525050565b6000615a7d8284615a5a565b60148201915081905092915050565b7f4f6e6c7920637573746f6d65722063616e2063616c6c20746869732066756e6360008201527f74696f6e00000000000000000000000000000000000000000000000000000000602082015250565b6000615ae8602483614757565b9150615af382615a8c565b604082019050919050565b60006020820190508181036000830152615b1781615adb565b9050919050565b7f526563697069656e7420646f6573206e6f742065786973740000000000000000600082015250565b6000615b54601883614757565b9150615b5f82615b1e565b602082019050919050565b60006020820190508181036000830152615b8381615b47565b9050919050565b600081905092915050565b7f7472756500000000000000000000000000000000000000000000000000000000600082015250565b6000615bcb600483615b8a565b9150615bd682615b95565b600482019050919050565b6000615bec82615bbe565b9150819050919050565b60008190508160005260206000209050919050565b60008154615c188161566f565b615c228186615b8a565b94506001821660008114615c3d5760018114615c4e57615c81565b60ff19831686528186019350615c81565b615c5785615bf6565b60005b83811015615c7957815481890152600182019150602081019050615c5a565b838801955050505b50505092915050565b6000615c968284615c0b565b915081905092915050565b7f526563697069656e74206e6f7420766572696669656400000000000000000000600082015250565b6000615cd7601683614757565b9150615ce282615ca1565b602082019050919050565b60006020820190508181036000830152615d0681615cca565b9050919050565b7f53656e6465722063616e6e6f7420626520612062616e6b000000000000000000600082015250565b6000615d43601783614757565b9150615d4e82615d0d565b602082019050919050565b60006020820190508181036000830152615d7281615d36565b9050919050565b7f526563697069656e742063616e6e6f7420626520612062616e6b000000000000600082015250565b6000615daf601a83614757565b9150615dba82615d79565b602082019050919050565b60006020820190508181036000830152615dde81615da2565b9050919050565b6000615df08261474c565b615dfa8185615b8a565b9350615e0a818560208601614768565b80840191505092915050565b6000615e228284615de5565b91508190509291505056fea26469706673582212209dd0e021558ad2acb81c11463d92441be83a0b72cb0eba1930911e14ee85697164736f6c63430008090033",
  "linkReferences": {},
  "deployedLinkReferences": {}
}