{
  "_format": "hh-sol-artifact-1",
  "contractName": "KYC",
  "sourceName": "contracts/KYC.sol",
  "abi": [
    {
      "inputs": [
        {
          "internalType": "string",
          "name": "_password",
          "type": "string"
        }
      ],
      "stateMutability": "nonpayable",
      "type": "constructor"
    },
    {
      "inputs": [
        {
          "internalType": "address",
          "name": "_address",
          "type": "address"
        }
      ],
      "name": "addCustomer",
      "outputs": [],
      "stateMutability": "nonpayable",
      "type": "function"
    },
    {
      "inputs": [],
      "name": "admin_address",
      "outputs": [
        {
          "internalType": "address",
          "name": "",
          "type": "address"
        }
      ],
      "stateMutability": "view",
      "type": "function"
    },
    {
      "inputs": [],
      "name": "admin_password",
      "outputs": [
        {
          "internalType": "string",
          "name": "",
          "type": "string"
        }
      ],
      "stateMutability": "view",
      "type": "function"
    },
    {
      "inputs": [
        {
          "internalType": "address",
          "name": "",
          "type": "address"
        }
      ],
      "name": "admins",
      "outputs": [
        {
          "internalType": "address",
          "name": "adminAddress",
          "type": "address"
        },
        {
          "internalType": "string",
          "name": "adminName",
          "type": "string"
        }
      ],
      "stateMutability": "view",
      "type": "function"
    },
    {
      "inputs": [],
      "name": "bankCount",
      "outputs": [
        {
          "internalType": "uint256",
          "name": "",
          "type": "uint256"
        }
      ],
      "stateMutability": "view",
      "type": "function"
    },
    {
      "inputs": [
        {
          "internalType": "address",
          "name": "_address",
          "type": "address"
        }
      ],
      "name": "bankLogin",
      "outputs": [
        {
          "internalType": "string",
          "name": "",
          "type": "string"
        },
        {
          "internalType": "string",
          "name": "",
          "type": "string"
        },
        {
          "internalType": "string",
          "name": "",
          "type": "string"
        },
        {
          "internalType": "string",
          "name": "",
          "type": "string"
        },
        {
          "internalType": "string",
          "name": "",
          "type": "string"
        }
      ],
      "stateMutability": "view",
      "type": "function"
    },
    {
      "inputs": [
        {
          "internalType": "uint256",
          "name": "",
          "type": "uint256"
        }
      ],
      "name": "bankRequests",
      "outputs": [
        {
          "internalType": "address",
          "name": "",
          "type": "address"
        }
      ],
      "stateMutability": "view",
      "type": "function"
    },
    {
      "inputs": [
        {
          "internalType": "address",
          "name": "",
          "type": "address"
        }
      ],
      "name": "banks",
      "outputs": [
        {
          "internalType": "address",
          "name": "bankAddress",
          "type": "address"
        },
        {
          "internalType": "string",
          "name": "bankName",
          "type": "string"
        },
        {
          "internalType": "string",
          "name": "regNumber",
          "type": "string"
        },
        {
          "internalType": "bool",
          "name": "isVerified",
          "type": "bool"
        }
      ],
      "stateMutability": "view",
      "type": "function"
    },
    {
      "inputs": [
        {
          "internalType": "address",
          "name": "_address",
          "type": "address"
        }
      ],
      "name": "compareAdminAddress",
      "outputs": [
        {
          "internalType": "bool",
          "name": "",
          "type": "bool"
        }
      ],
      "stateMutability": "view",
      "type": "function"
    },
    {
      "inputs": [
        {
          "internalType": "string",
          "name": "_password",
          "type": "string"
        }
      ],
      "name": "comparePassword",
      "outputs": [
        {
          "internalType": "bool",
          "name": "",
          "type": "bool"
        }
      ],
      "stateMutability": "view",
      "type": "function"
    },
    {
      "inputs": [
        {
          "internalType": "string",
          "name": "_name",
          "type": "string"
        },
        {
          "internalType": "string",
          "name": "_regNumber",
          "type": "string"
        }
      ],
      "name": "createBank",
      "outputs": [],
      "stateMutability": "nonpayable",
      "type": "function"
    },
    {
      "inputs": [
        {
          "internalType": "string",
          "name": "_name",
          "type": "string"
        },
        {
          "internalType": "string",
          "name": "_email",
          "type": "string"
        },
        {
          "internalType": "string",
          "name": "_password",
          "type": "string"
        },
        {
          "internalType": "string",
          "name": "_data",
          "type": "string"
        },
        {
          "internalType": "address",
          "name": "_bankAddress",
          "type": "address"
        },
        {
          "internalType": "string",
          "name": "_balance",
          "type": "string"
        }
      ],
      "name": "createCustomer",
      "outputs": [],
      "stateMutability": "nonpayable",
      "type": "function"
    },
    {
      "inputs": [
        {
          "internalType": "address",
          "name": "_to",
          "type": "address"
        },
        {
          "internalType": "uint256",
          "name": "_amount",
          "type": "uint256"
        },
        {
          "internalType": "string",
          "name": "_data",
          "type": "string"
        }
      ],
      "name": "createTransaction",
      "outputs": [],
      "stateMutability": "nonpayable",
      "type": "function"
    },
    {
      "inputs": [
        {
          "internalType": "address",
          "name": "",
          "type": "address"
        }
      ],
      "name": "customers",
      "outputs": [
        {
          "internalType": "address",
          "name": "customerAddress",
          "type": "address"
        },
        {
          "internalType": "string",
          "name": "customerName",
          "type": "string"
        },
        {
          "internalType": "string",
          "name": "customerEmail",
          "type": "string"
        },
        {
          "internalType": "string",
          "name": "password",
          "type": "string"
        },
        {
          "internalType": "string",
          "name": "customerData",
          "type": "string"
        },
        {
          "internalType": "string",
          "name": "isVerified",
          "type": "string"
        },
        {
          "internalType": "address",
          "name": "bankAddress",
          "type": "address"
        },
        {
          "internalType": "string",
          "name": "balance",
          "type": "string"
        }
      ],
      "stateMutability": "view",
      "type": "function"
    },
    {
      "inputs": [],
      "name": "getBankCount",
      "outputs": [
        {
          "internalType": "uint256",
          "name": "",
          "type": "uint256"
        }
      ],
      "stateMutability": "view",
      "type": "function"
    },
    {
      "inputs": [
        {
          "internalType": "address",
          "name": "_address",
          "type": "address"
        }
      ],
      "name": "getBankDetails",
      "outputs": [
        {
          "internalType": "string",
          "name": "",
          "type": "string"
        },
        {
          "internalType": "string",
          "name": "",
          "type": "string"
        },
        {
          "internalType": "bool",
          "name": "",
          "type": "bool"
        }
      ],
      "stateMutability": "view",
      "type": "function"
    },
    {
      "inputs": [],
      "name": "getBankRequests",
      "outputs": [
        {
          "internalType": "address[]",
          "name": "",
          "type": "address[]"
        }
      ],
      "stateMutability": "view",
      "type": "function"
    },
    {
      "inputs": [],
      "name": "getBankRequestsAllData",
      "outputs": [
        {
          "components": [
            {
              "internalType": "address",
              "name": "bankAddress",
              "type": "address"
            },
            {
              "internalType": "string",
              "name": "bankName",
              "type": "string"
            },
            {
              "internalType": "string",
              "name": "regNumber",
              "type": "string"
            },
            {
              "internalType": "bool",
              "name": "isVerified",
              "type": "bool"
            },
            {
              "internalType": "address[]",
              "name": "customers",
              "type": "address[]"
            }
          ],
          "internalType": "struct KYC.Bank[]",
          "name": "",
          "type": "tuple[]"
        }
      ],
      "stateMutability": "view",
      "type": "function"
    },
    {
      "inputs": [],
      "name": "getBankRequestsCount",
      "outputs": [
        {
          "internalType": "uint256",
          "name": "",
          "type": "uint256"
        }
      ],
      "stateMutability": "view",
      "type": "function"
    },
    {
      "inputs": [
        {
          "internalType": "address",
          "name": "_address",
          "type": "address"
        }
      ],
      "name": "getCustomer",
      "outputs": [
        {
          "internalType": "string",
          "name": "",
          "type": "string"
        },
        {
          "internalType": "string",
          "name": "",
          "type": "string"
        },
        {
          "internalType": "string",
          "name": "",
          "type": "string"
        },
        {
          "internalType": "string",
          "name": "",
          "type": "string"
        },
        {
          "internalType": "address",
          "name": "",
          "type": "address"
        },
        {
          "internalType": "string",
          "name": "",
          "type": "string"
        }
      ],
      "stateMutability": "view",
      "type": "function"
    },
    {
      "inputs": [],
      "name": "getCustomerTransaction",
      "outputs": [
        {
          "components": [
            {
              "internalType": "address",
              "name": "from",
              "type": "address"
            },
            {
              "internalType": "address",
              "name": "to",
              "type": "address"
            },
            {
              "internalType": "uint256",
              "name": "amount",
              "type": "uint256"
            },
            {
              "internalType": "string",
              "name": "transactionData",
              "type": "string"
            }
          ],
          "internalType": "struct KYC.Transaction[]",
          "name": "",
          "type": "tuple[]"
        }
      ],
      "stateMutability": "view",
      "type": "function"
    },
    {
      "inputs": [],
      "name": "getCustomers",
      "outputs": [
        {
          "internalType": "address[]",
          "name": "",
          "type": "address[]"
        }
      ],
      "stateMutability": "view",
      "type": "function"
    },
    {
      "inputs": [],
      "name": "getTransactionCount",
      "outputs": [
        {
          "internalType": "uint256",
          "name": "",
          "type": "uint256"
        }
      ],
      "stateMutability": "view",
      "type": "function"
    },
    {
      "inputs": [],
      "name": "getTransactions",
      "outputs": [
        {
          "components": [
            {
              "internalType": "address",
              "name": "from",
              "type": "address"
            },
            {
              "internalType": "address",
              "name": "to",
              "type": "address"
            },
            {
              "internalType": "uint256",
              "name": "amount",
              "type": "uint256"
            },
            {
              "internalType": "string",
              "name": "transactionData",
              "type": "string"
            }
          ],
          "internalType": "struct KYC.Transaction[]",
          "name": "",
          "type": "tuple[]"
        }
      ],
      "stateMutability": "view",
      "type": "function"
    },
    {
      "inputs": [],
      "name": "getVerifiedBanks",
      "outputs": [
        {
          "components": [
            {
              "internalType": "address",
              "name": "bankAddress",
              "type": "address"
            },
            {
              "internalType": "string",
              "name": "bankName",
              "type": "string"
            },
            {
              "internalType": "string",
              "name": "regNumber",
              "type": "string"
            },
            {
              "internalType": "bool",
              "name": "isVerified",
              "type": "bool"
            },
            {
              "internalType": "address[]",
              "name": "customers",
              "type": "address[]"
            }
          ],
          "internalType": "struct KYC.Bank[]",
          "name": "",
          "type": "tuple[]"
        }
      ],
      "stateMutability": "view",
      "type": "function"
    },
    {
      "inputs": [
        {
          "internalType": "address",
          "name": "_address",
          "type": "address"
        }
      ],
      "name": "rejectBank",
      "outputs": [],
      "stateMutability": "nonpayable",
      "type": "function"
    },
    {
      "inputs": [
        {
          "internalType": "address",
          "name": "_address",
          "type": "address"
        }
      ],
      "name": "rejectCustomer",
      "outputs": [],
      "stateMutability": "nonpayable",
      "type": "function"
    },
    {
      "inputs": [
        {
          "internalType": "address",
          "name": "_address",
          "type": "address"
        }
      ],
      "name": "removeBank",
      "outputs": [],
      "stateMutability": "nonpayable",
      "type": "function"
    },
    {
      "inputs": [
        {
          "internalType": "address",
          "name": "_address",
          "type": "address"
        }
      ],
      "name": "removeCustomer",
      "outputs": [],
      "stateMutability": "nonpayable",
      "type": "function"
    },
    {
      "inputs": [],
      "name": "transactionCount",
      "outputs": [
        {
          "internalType": "uint256",
          "name": "",
          "type": "uint256"
        }
      ],
      "stateMutability": "view",
      "type": "function"
    },
    {
      "inputs": [
        {
          "internalType": "uint256",
          "name": "",
          "type": "uint256"
        }
      ],
      "name": "transactions",
      "outputs": [
        {
          "internalType": "address",
          "name": "from",
          "type": "address"
        },
        {
          "internalType": "address",
          "name": "to",
          "type": "address"
        },
        {
          "internalType": "uint256",
          "name": "amount",
          "type": "uint256"
        },
        {
          "internalType": "string",
          "name": "transactionData",
          "type": "string"
        }
      ],
      "stateMutability": "view",
      "type": "function"
    },
    {
      "inputs": [
        {
          "internalType": "address",
          "name": "_address",
          "type": "address"
        },
        {
          "internalType": "string",
          "name": "_balance",
          "type": "string"
        }
      ],
      "name": "updateBalace",
      "outputs": [],
      "stateMutability": "nonpayable",
      "type": "function"
    },
    {
      "inputs": [
        {
          "internalType": "address",
          "name": "_address",
          "type": "address"
        }
      ],
      "name": "verifyBank",
      "outputs": [],
      "stateMutability": "nonpayable",
      "type": "function"
    },
    {
      "inputs": [
        {
          "internalType": "address",
          "name": "_address",
          "type": "address"
        }
      ],
      "name": "verifyCustomer",
      "outputs": [],
      "stateMutability": "nonpayable",
      "type": "function"
    }
  ],
  "bytecode": "0x60806040523480156200001157600080fd5b5060405162006055380380620060558339818101604052810190620000379190620003ec565b336000806101000a81548173ffffffffffffffffffffffffffffffffffffffff021916908373ffffffffffffffffffffffffffffffffffffffff16021790555080600190805190602001906200008f9291906200019f565b5060405180604001604052803373ffffffffffffffffffffffffffffffffffffffff1681526020016040518060400160405280600581526020017f41646d696e000000000000000000000000000000000000000000000000000000815250815250600260003373ffffffffffffffffffffffffffffffffffffffff1673ffffffffffffffffffffffffffffffffffffffff16815260200190815260200160002060008201518160000160006101000a81548173ffffffffffffffffffffffffffffffffffffffff021916908373ffffffffffffffffffffffffffffffffffffffff1602179055506020820151816001019080519060200190620001949291906200019f565b5090505050620004a2565b828054620001ad906200046c565b90600052602060002090601f016020900481019282620001d157600085556200021d565b82601f10620001ec57805160ff19168380011785556200021d565b828001600101855582156200021d579182015b828111156200021c578251825591602001919060010190620001ff565b5b5090506200022c919062000230565b5090565b5b808211156200024b57600081600090555060010162000231565b5090565b6000604051905090565b600080fd5b600080fd5b600080fd5b600080fd5b6000601f19601f8301169050919050565b7f4e487b7100000000000000000000000000000000000000000000000000000000600052604160045260246000fd5b620002b8826200026d565b810181811067ffffffffffffffff82111715620002da57620002d96200027e565b5b80604052505050565b6000620002ef6200024f565b9050620002fd8282620002ad565b919050565b600067ffffffffffffffff82111562000320576200031f6200027e565b5b6200032b826200026d565b9050602081019050919050565b60005b83811015620003585780820151818401526020810190506200033b565b8381111562000368576000848401525b50505050565b6000620003856200037f8462000302565b620002e3565b905082815260208101848484011115620003a457620003a362000268565b5b620003b184828562000338565b509392505050565b600082601f830112620003d157620003d062000263565b5b8151620003e38482602086016200036e565b91505092915050565b60006020828403121562000405576200040462000259565b5b600082015167ffffffffffffffff8111156200042657620004256200025e565b5b6200043484828501620003b9565b91505092915050565b7f4e487b7100000000000000000000000000000000000000000000000000000000600052602260045260246000fd5b600060028204905060018216806200048557607f821691505b602082108114156200049c576200049b6200043d565b5b50919050565b615ba380620004b26000396000f3fe608060405234801561001057600080fd5b50600436106102065760003560e01c806383920e901161011a578063cb949e51116100ad578063e4da9ebc1161007c578063e4da9ebc14610616578063f1ba712714610634578063f2e6277214610652578063f5bfe62214610670578063f879eb57146106a057610206565b8063cb949e5114610575578063d81fcc86146105aa578063daa6b8f1146105de578063e1f6048d146105fa57610206565b8063ad973d74116100e9578063ad973d7414610501578063aebc2f031461051d578063b77bf6001461053b578063b97eb2dd1461055957610206565b806383920e90146104785780638eb06ccf146104965780639649650c146104b25780639ace38c2146104ce57610206565b80634a5e96281161019d5780636956686c1161016c5780636956686c146103d35780636a505df4146103f15780636da04e641461040d57806380c3b8c214610429578063833ee7201461045c57610206565b80634a5e96281461033957806352dffc961461036957806353af8dd6146103875780635ebbe309146103a357610206565b80632e7700f0116101d95780632e7700f014610297578063336989ae146102b557806335fab5d5146102ec578063429b62e51461030857610206565b8063101ad1c81461020b57806315101e02146102295780632cc5c5f11461025b5780632e44715d14610279575b600080fd5b6102136106be565b60405161022091906146dc565b60405180910390f35b610243600480360381019061023e9190614770565b61074c565b604051610252939291906147b8565b60405180910390f35b61026361094a565b60405161027091906148bb565b60405180910390f35b610281610a66565b60405161028e91906148f6565b60405180910390f35b61029f610aff565b6040516102ac91906148f6565b60405180910390f35b6102cf60048036038101906102ca9190614770565b610b09565b6040516102e3989796959493929190614920565b60405180910390f35b61030660048036038101906103019190614770565b610ec1565b005b610322600480360381019061031d9190614770565b6110e0565b6040516103309291906149c8565b60405180910390f35b610353600480360381019061034e9190614770565b6111ac565b60405161036091906149f8565b60405180910390f35b610371611205565b60405161037e9190614c21565b60405180910390f35b6103a1600480360381019061039c9190614770565b611687565b005b6103bd60048036038101906103b89190614c6f565b6117e6565b6040516103ca9190614c9c565b60405180910390f35b6103db611825565b6040516103e89190614c21565b60405180910390f35b61040b60048036038101906104069190614dec565b611c06565b005b61042760048036038101906104229190614770565b611d31565b005b610443600480360381019061043e9190614770565b611fc3565b6040516104539493929190614e48565b60405180910390f35b61047660048036038101906104719190614e9b565b612130565b005b610480612422565b60405161048d91906150e8565b60405180910390f35b6104b060048036038101906104ab9190614770565b6125c9565b005b6104cc60048036038101906104c79190614770565b61274a565b005b6104e860048036038101906104e39190614c6f565b612888565b6040516104f8949392919061510a565b60405180910390f35b61051b60048036038101906105169190614770565b612990565b005b610525612b06565b60405161053291906148f6565b60405180910390f35b610543612ba2565b60405161055091906148f6565b60405180910390f35b610573600480360381019061056e9190615156565b612ba8565b005b61058f600480360381019061058a9190614770565b612e69565b6040516105a1969594939291906151ce565b60405180910390f35b6105c460048036038101906105bf9190614770565b6132f1565b6040516105d5959493929190615252565b60405180910390f35b6105f860048036038101906105f39190614770565b613753565b005b610614600480360381019061060f91906152c8565b6138b2565b005b61061e613e0d565b60405161062b91906150e8565b60405180910390f35b61063c6141f9565b60405161064991906148bb565b60405180910390f35b61065a614397565b6040516106679190614c9c565b60405180910390f35b61068a60048036038101906106859190615337565b6143bb565b60405161069791906149f8565b60405180910390f35b6106a8614414565b6040516106b591906148f6565b60405180910390f35b600180546106cb906153af565b80601f01602080910402602001604051908101604052809291908181526020018280546106f7906153af565b80156107445780601f1061071957610100808354040283529160200191610744565b820191906000526020600020905b81548152906001019060200180831161072757829003601f168201915b505050505081565b6060806000600560008573ffffffffffffffffffffffffffffffffffffffff1673ffffffffffffffffffffffffffffffffffffffff168152602001908152602001600020600101600560008673ffffffffffffffffffffffffffffffffffffffff1673ffffffffffffffffffffffffffffffffffffffff168152602001908152602001600020600201600560008773ffffffffffffffffffffffffffffffffffffffff1673ffffffffffffffffffffffffffffffffffffffff16815260200190815260200160002060030160009054906101000a900460ff16828054610831906153af565b80601f016020809104026020016040519081016040528092919081815260200182805461085d906153af565b80156108aa5780601f1061087f576101008083540402835291602001916108aa565b820191906000526020600020905b81548152906001019060200180831161088d57829003601f168201915b505050505092508180546108bd906153af565b80601f01602080910402602001604051908101604052809291908181526020018280546108e9906153af565b80156109365780601f1061090b57610100808354040283529160200191610936565b820191906000526020600020905b81548152906001019060200180831161091957829003601f168201915b505050505091509250925092509193909250565b606060008054906101000a900473ffffffffffffffffffffffffffffffffffffffff1673ffffffffffffffffffffffffffffffffffffffff163373ffffffffffffffffffffffffffffffffffffffff16146109da576040517f08c379a00000000000000000000000000000000000000000000000000000000081526004016109d190615453565b60405180910390fd5b6003805480602002602001604051908101604052809291908181526020018280548015610a5c57602002820191906000526020600020905b8160009054906101000a900473ffffffffffffffffffffffffffffffffffffffff1673ffffffffffffffffffffffffffffffffffffffff1681526020019060010190808311610a12575b5050505050905090565b60008060009054906101000a900473ffffffffffffffffffffffffffffffffffffffff1673ffffffffffffffffffffffffffffffffffffffff163373ffffffffffffffffffffffffffffffffffffffff1614610af7576040517f08c379a0000000000000000000000000000000000000000000000000000000008152600401610aee90615453565b60405180910390fd5b600454905090565b6000600854905090565b60066020528060005260406000206000915090508060000160009054906101000a900473ffffffffffffffffffffffffffffffffffffffff1690806001018054610b52906153af565b80601f0160208091040260200160405190810160405280929190818152602001828054610b7e906153af565b8015610bcb5780601f10610ba057610100808354040283529160200191610bcb565b820191906000526020600020905b815481529060010190602001808311610bae57829003601f168201915b505050505090806002018054610be0906153af565b80601f0160208091040260200160405190810160405280929190818152602001828054610c0c906153af565b8015610c595780601f10610c2e57610100808354040283529160200191610c59565b820191906000526020600020905b815481529060010190602001808311610c3c57829003601f168201915b505050505090806003018054610c6e906153af565b80601f0160208091040260200160405190810160405280929190818152602001828054610c9a906153af565b8015610ce75780601f10610cbc57610100808354040283529160200191610ce7565b820191906000526020600020905b815481529060010190602001808311610cca57829003601f168201915b505050505090806004018054610cfc906153af565b80601f0160208091040260200160405190810160405280929190818152602001828054610d28906153af565b8015610d755780601f10610d4a57610100808354040283529160200191610d75565b820191906000526020600020905b815481529060010190602001808311610d5857829003601f168201915b505050505090806005018054610d8a906153af565b80601f0160208091040260200160405190810160405280929190818152602001828054610db6906153af565b8015610e035780601f10610dd857610100808354040283529160200191610e03565b820191906000526020600020905b815481529060010190602001808311610de657829003601f168201915b5050505050908060060160009054906101000a900473ffffffffffffffffffffffffffffffffffffffff1690806007018054610e3e906153af565b80601f0160208091040260200160405190810160405280929190818152602001828054610e6a906153af565b8015610eb75780601f10610e8c57610100808354040283529160200191610eb7565b820191906000526020600020905b815481529060010190602001808311610e9a57829003601f168201915b5050505050905088565b60008054906101000a900473ffffffffffffffffffffffffffffffffffffffff1673ffffffffffffffffffffffffffffffffffffffff163373ffffffffffffffffffffffffffffffffffffffff1614610f4f576040517f08c379a0000000000000000000000000000000000000000000000000000000008152600401610f4690615453565b60405180910390fd5b60005b6003805490508110156110dc578173ffffffffffffffffffffffffffffffffffffffff1660038281548110610f8a57610f89615473565b5b9060005260206000200160009054906101000a900473ffffffffffffffffffffffffffffffffffffffff1673ffffffffffffffffffffffffffffffffffffffff1614156110c95760036001600380549050610fe591906154d1565b81548110610ff657610ff5615473565b5b9060005260206000200160009054906101000a900473ffffffffffffffffffffffffffffffffffffffff166003828154811061103557611034615473565b5b9060005260206000200160006101000a81548173ffffffffffffffffffffffffffffffffffffffff021916908373ffffffffffffffffffffffffffffffffffffffff160217905550600380548061108f5761108e615505565b5b6001900381819060005260206000200160006101000a81549073ffffffffffffffffffffffffffffffffffffffff021916905590556110dc565b80806110d490615534565b915050610f52565b5050565b60026020528060005260406000206000915090508060000160009054906101000a900473ffffffffffffffffffffffffffffffffffffffff1690806001018054611129906153af565b80601f0160208091040260200160405190810160405280929190818152602001828054611155906153af565b80156111a25780601f10611177576101008083540402835291602001916111a2565b820191906000526020600020905b81548152906001019060200180831161118557829003601f168201915b5050505050905082565b60008060009054906101000a900473ffffffffffffffffffffffffffffffffffffffff1673ffffffffffffffffffffffffffffffffffffffff168273ffffffffffffffffffffffffffffffffffffffff16149050919050565b606060008054906101000a900473ffffffffffffffffffffffffffffffffffffffff1673ffffffffffffffffffffffffffffffffffffffff163373ffffffffffffffffffffffffffffffffffffffff1614611295576040517f08c379a000000000000000000000000000000000000000000000000000000000815260040161128c90615453565b60405180910390fd5b600060045467ffffffffffffffff8111156112b3576112b2614cc1565b5b6040519080825280602002602001820160405280156112ec57816020015b6112d961441a565b8152602001906001900390816112d15790505b5090506000805b60038054905081101561167e57600560006003838154811061131857611317615473565b5b9060005260206000200160009054906101000a900473ffffffffffffffffffffffffffffffffffffffff1673ffffffffffffffffffffffffffffffffffffffff1673ffffffffffffffffffffffffffffffffffffffff16815260200190815260200160002060030160009054906101000a900460ff161561166b5760056000600383815481106113ab576113aa615473565b5b9060005260206000200160009054906101000a900473ffffffffffffffffffffffffffffffffffffffff1673ffffffffffffffffffffffffffffffffffffffff1673ffffffffffffffffffffffffffffffffffffffff1681526020019081526020016000206040518060a00160405290816000820160009054906101000a900473ffffffffffffffffffffffffffffffffffffffff1673ffffffffffffffffffffffffffffffffffffffff1673ffffffffffffffffffffffffffffffffffffffff168152602001600182018054611481906153af565b80601f01602080910402602001604051908101604052809291908181526020018280546114ad906153af565b80156114fa5780601f106114cf576101008083540402835291602001916114fa565b820191906000526020600020905b8154815290600101906020018083116114dd57829003601f168201915b50505050508152602001600282018054611513906153af565b80601f016020809104026020016040519081016040528092919081815260200182805461153f906153af565b801561158c5780601f106115615761010080835404028352916020019161158c565b820191906000526020600020905b81548152906001019060200180831161156f57829003601f168201915b505050505081526020016003820160009054906101000a900460ff161515151581526020016004820180548060200260200160405190810160405280929190818152602001828054801561163557602002820191906000526020600020905b8160009054906101000a900473ffffffffffffffffffffffffffffffffffffffff1673ffffffffffffffffffffffffffffffffffffffff16815260200190600101908083116115eb575b50505050508152505083838151811061165157611650615473565b5b6020026020010181905250818061166790615534565b9250505b808061167690615534565b9150506112f3565b50819250505090565b3373ffffffffffffffffffffffffffffffffffffffff16600560003373ffffffffffffffffffffffffffffffffffffffff1673ffffffffffffffffffffffffffffffffffffffff16815260200190815260200160002060000160009054906101000a900473ffffffffffffffffffffffffffffffffffffffff1673ffffffffffffffffffffffffffffffffffffffff1614611757576040517f08c379a000000000000000000000000000000000000000000000000000000000815260040161174e906155c9565b60405180910390fd5b6040518060400160405280600581526020017f66616c7365000000000000000000000000000000000000000000000000000000815250600660008373ffffffffffffffffffffffffffffffffffffffff1673ffffffffffffffffffffffffffffffffffffffff16815260200190815260200160002060050190805190602001906117e2929190614461565b5050565b600381815481106117f657600080fd5b906000526020600020016000915054906101000a900473ffffffffffffffffffffffffffffffffffffffff1681565b606060008054906101000a900473ffffffffffffffffffffffffffffffffffffffff1673ffffffffffffffffffffffffffffffffffffffff163373ffffffffffffffffffffffffffffffffffffffff16146118b5576040517f08c379a00000000000000000000000000000000000000000000000000000000081526004016118ac90615453565b60405180910390fd5b600060038054905067ffffffffffffffff8111156118d6576118d5614cc1565b5b60405190808252806020026020018201604052801561190f57816020015b6118fc61441a565b8152602001906001900390816118f45790505b50905060005b600380549050811015611bfe57600560006003838154811061193a57611939615473565b5b9060005260206000200160009054906101000a900473ffffffffffffffffffffffffffffffffffffffff1673ffffffffffffffffffffffffffffffffffffffff1673ffffffffffffffffffffffffffffffffffffffff1681526020019081526020016000206040518060a00160405290816000820160009054906101000a900473ffffffffffffffffffffffffffffffffffffffff1673ffffffffffffffffffffffffffffffffffffffff1673ffffffffffffffffffffffffffffffffffffffff168152602001600182018054611a10906153af565b80601f0160208091040260200160405190810160405280929190818152602001828054611a3c906153af565b8015611a895780601f10611a5e57610100808354040283529160200191611a89565b820191906000526020600020905b815481529060010190602001808311611a6c57829003601f168201915b50505050508152602001600282018054611aa2906153af565b80601f0160208091040260200160405190810160405280929190818152602001828054611ace906153af565b8015611b1b5780601f10611af057610100808354040283529160200191611b1b565b820191906000526020600020905b815481529060010190602001808311611afe57829003601f168201915b505050505081526020016003820160009054906101000a900460ff1615151515815260200160048201805480602002602001604051908101604052809291908181526020018280548015611bc457602002820191906000526020600020905b8160009054906101000a900473ffffffffffffffffffffffffffffffffffffffff1673ffffffffffffffffffffffffffffffffffffffff1681526020019060010190808311611b7a575b505050505081525050828281518110611be057611bdf615473565b5b60200260200101819052508080611bf690615534565b915050611915565b508091505090565b3373ffffffffffffffffffffffffffffffffffffffff16600560003373ffffffffffffffffffffffffffffffffffffffff1673ffffffffffffffffffffffffffffffffffffffff16815260200190815260200160002060000160009054906101000a900473ffffffffffffffffffffffffffffffffffffffff1673ffffffffffffffffffffffffffffffffffffffff1614611cd6576040517f08c379a0000000000000000000000000000000000000000000000000000000008152600401611ccd906155c9565b60405180910390fd5b80600660008473ffffffffffffffffffffffffffffffffffffffff1673ffffffffffffffffffffffffffffffffffffffff1681526020019081526020016000206007019080519060200190611d2c929190614461565b505050565b60008054906101000a900473ffffffffffffffffffffffffffffffffffffffff1673ffffffffffffffffffffffffffffffffffffffff163373ffffffffffffffffffffffffffffffffffffffff1614611dbf576040517f08c379a0000000000000000000000000000000000000000000000000000000008152600401611db690615453565b60405180910390fd5b6001600560008373ffffffffffffffffffffffffffffffffffffffff1673ffffffffffffffffffffffffffffffffffffffff16815260200190815260200160002060030160006101000a81548160ff02191690831515021790555060046000815480929190611e2d90615534565b919050555060005b600380549050811015611fbf578173ffffffffffffffffffffffffffffffffffffffff1660038281548110611e6d57611e6c615473565b5b9060005260206000200160009054906101000a900473ffffffffffffffffffffffffffffffffffffffff1673ffffffffffffffffffffffffffffffffffffffff161415611fac5760036001600380549050611ec891906154d1565b81548110611ed957611ed8615473565b5b9060005260206000200160009054906101000a900473ffffffffffffffffffffffffffffffffffffffff1660038281548110611f1857611f17615473565b5b9060005260206000200160006101000a81548173ffffffffffffffffffffffffffffffffffffffff021916908373ffffffffffffffffffffffffffffffffffffffff1602179055506003805480611f7257611f71615505565b5b6001900381819060005260206000200160006101000a81549073ffffffffffffffffffffffffffffffffffffffff02191690559055611fbf565b8080611fb790615534565b915050611e35565b5050565b60056020528060005260406000206000915090508060000160009054906101000a900473ffffffffffffffffffffffffffffffffffffffff169080600101805461200c906153af565b80601f0160208091040260200160405190810160405280929190818152602001828054612038906153af565b80156120855780601f1061205a57610100808354040283529160200191612085565b820191906000526020600020905b81548152906001019060200180831161206857829003601f168201915b50505050509080600201805461209a906153af565b80601f01602080910402602001604051908101604052809291908181526020018280546120c6906153af565b80156121135780601f106120e857610100808354040283529160200191612113565b820191906000526020600020905b8154815290600101906020018083116120f657829003601f168201915b5050505050908060030160009054906101000a900460ff16905084565b3373ffffffffffffffffffffffffffffffffffffffff16600660003373ffffffffffffffffffffffffffffffffffffffff1673ffffffffffffffffffffffffffffffffffffffff16815260200190815260200160002060000160009054906101000a900473ffffffffffffffffffffffffffffffffffffffff1673ffffffffffffffffffffffffffffffffffffffff161415612201576040517f08c379a00000000000000000000000000000000000000000000000000000000081526004016121f890615635565b60405180910390fd5b6040518061010001604052803373ffffffffffffffffffffffffffffffffffffffff1681526020018781526020018681526020018581526020018481526020016040518060400160405280600581526020017f66616c736500000000000000000000000000000000000000000000000000000081525081526020018373ffffffffffffffffffffffffffffffffffffffff16815260200182815250600660003373ffffffffffffffffffffffffffffffffffffffff1673ffffffffffffffffffffffffffffffffffffffff16815260200190815260200160002060008201518160000160006101000a81548173ffffffffffffffffffffffffffffffffffffffff021916908373ffffffffffffffffffffffffffffffffffffffff160217905550602082015181600101908051906020019061233e929190614461565b50604082015181600201908051906020019061235b929190614461565b506060820151816003019080519060200190612378929190614461565b506080820151816004019080519060200190612395929190614461565b5060a08201518160050190805190602001906123b2929190614461565b5060c08201518160060160006101000a81548173ffffffffffffffffffffffffffffffffffffffff021916908373ffffffffffffffffffffffffffffffffffffffff16021790555060e0820151816007019080519060200190612416929190614461565b50905050505050505050565b60606007805480602002602001604051908101604052809291908181526020016000905b828210156125c057838290600052602060002090600402016040518060800160405290816000820160009054906101000a900473ffffffffffffffffffffffffffffffffffffffff1673ffffffffffffffffffffffffffffffffffffffff1673ffffffffffffffffffffffffffffffffffffffff1681526020016001820160009054906101000a900473ffffffffffffffffffffffffffffffffffffffff1673ffffffffffffffffffffffffffffffffffffffff1673ffffffffffffffffffffffffffffffffffffffff1681526020016002820154815260200160038201805461252f906153af565b80601f016020809104026020016040519081016040528092919081815260200182805461255b906153af565b80156125a85780601f1061257d576101008083540402835291602001916125a8565b820191906000526020600020905b81548152906001019060200180831161258b57829003601f168201915b50505050508152505081526020019060010190612446565b50505050905090565b60008054906101000a900473ffffffffffffffffffffffffffffffffffffffff1673ffffffffffffffffffffffffffffffffffffffff163373ffffffffffffffffffffffffffffffffffffffff1614612657576040517f08c379a000000000000000000000000000000000000000000000000000000000815260040161264e90615453565b60405180910390fd5b600660008273ffffffffffffffffffffffffffffffffffffffff1673ffffffffffffffffffffffffffffffffffffffff168152602001908152602001600020600080820160006101000a81549073ffffffffffffffffffffffffffffffffffffffff02191690556001820160006126ce91906144e7565b6002820160006126de91906144e7565b6003820160006126ee91906144e7565b6004820160006126fe91906144e7565b60058201600061270e91906144e7565b6006820160006101000a81549073ffffffffffffffffffffffffffffffffffffffff021916905560078201600061274591906144e7565b505050565b60008054906101000a900473ffffffffffffffffffffffffffffffffffffffff1673ffffffffffffffffffffffffffffffffffffffff163373ffffffffffffffffffffffffffffffffffffffff16146127d8576040517f08c379a00000000000000000000000000000000000000000000000000000000081526004016127cf90615453565b60405180910390fd5b600560008273ffffffffffffffffffffffffffffffffffffffff1673ffffffffffffffffffffffffffffffffffffffff168152602001908152602001600020600080820160006101000a81549073ffffffffffffffffffffffffffffffffffffffff021916905560018201600061284f91906144e7565b60028201600061285f91906144e7565b6003820160006101000a81549060ff02191690556004820160006128839190614527565b505050565b6007818154811061289857600080fd5b90600052602060002090600402016000915090508060000160009054906101000a900473ffffffffffffffffffffffffffffffffffffffff16908060010160009054906101000a900473ffffffffffffffffffffffffffffffffffffffff169080600201549080600301805461290d906153af565b80601f0160208091040260200160405190810160405280929190818152602001828054612939906153af565b80156129865780601f1061295b57610100808354040283529160200191612986565b820191906000526020600020905b81548152906001019060200180831161296957829003601f168201915b5050505050905084565b3373ffffffffffffffffffffffffffffffffffffffff16600560003373ffffffffffffffffffffffffffffffffffffffff1673ffffffffffffffffffffffffffffffffffffffff16815260200190815260200160002060000160009054906101000a900473ffffffffffffffffffffffffffffffffffffffff1673ffffffffffffffffffffffffffffffffffffffff1614612a60576040517f08c379a0000000000000000000000000000000000000000000000000000000008152600401612a57906155c9565b60405180910390fd5b600560003373ffffffffffffffffffffffffffffffffffffffff1673ffffffffffffffffffffffffffffffffffffffff168152602001908152602001600020600401819080600181540180825580915050600190039060005260206000200160009091909190916101000a81548173ffffffffffffffffffffffffffffffffffffffff021916908373ffffffffffffffffffffffffffffffffffffffff16021790555050565b60008060009054906101000a900473ffffffffffffffffffffffffffffffffffffffff1673ffffffffffffffffffffffffffffffffffffffff163373ffffffffffffffffffffffffffffffffffffffff1614612b97576040517f08c379a0000000000000000000000000000000000000000000000000000000008152600401612b8e90615453565b60405180910390fd5b600380549050905090565b60085481565b3373ffffffffffffffffffffffffffffffffffffffff16600560003373ffffffffffffffffffffffffffffffffffffffff1673ffffffffffffffffffffffffffffffffffffffff16815260200190815260200160002060000160009054906101000a900473ffffffffffffffffffffffffffffffffffffffff1673ffffffffffffffffffffffffffffffffffffffff161415612c79576040517f08c379a0000000000000000000000000000000000000000000000000000000008152600401612c70906156a1565b60405180910390fd5b6040518060a001604052803373ffffffffffffffffffffffffffffffffffffffff168152602001838152602001828152602001600015158152602001600067ffffffffffffffff811115612cd057612ccf614cc1565b5b604051908082528060200260200182016040528015612cfe5781602001602082028036833780820191505090505b50815250600560003373ffffffffffffffffffffffffffffffffffffffff1673ffffffffffffffffffffffffffffffffffffffff16815260200190815260200160002060008201518160000160006101000a81548173ffffffffffffffffffffffffffffffffffffffff021916908373ffffffffffffffffffffffffffffffffffffffff1602179055506020820151816001019080519060200190612da4929190614461565b506040820151816002019080519060200190612dc1929190614461565b5060608201518160030160006101000a81548160ff0219169083151502179055506080820151816004019080519060200190612dfe929190614548565b509050506003339080600181540180825580915050600190039060005260206000200160009091909190916101000a81548173ffffffffffffffffffffffffffffffffffffffff021916908373ffffffffffffffffffffffffffffffffffffffff1602179055505050565b60608060608060006060600660008873ffffffffffffffffffffffffffffffffffffffff1673ffffffffffffffffffffffffffffffffffffffff168152602001908152602001600020600101600660008973ffffffffffffffffffffffffffffffffffffffff1673ffffffffffffffffffffffffffffffffffffffff168152602001908152602001600020600201600660008a73ffffffffffffffffffffffffffffffffffffffff1673ffffffffffffffffffffffffffffffffffffffff168152602001908152602001600020600301600660008b73ffffffffffffffffffffffffffffffffffffffff1673ffffffffffffffffffffffffffffffffffffffff168152602001908152602001600020600401600660008c73ffffffffffffffffffffffffffffffffffffffff1673ffffffffffffffffffffffffffffffffffffffff16815260200190815260200160002060060160009054906101000a900473ffffffffffffffffffffffffffffffffffffffff16600660008d73ffffffffffffffffffffffffffffffffffffffff1673ffffffffffffffffffffffffffffffffffffffff16815260200190815260200160002060070185805461302c906153af565b80601f0160208091040260200160405190810160405280929190818152602001828054613058906153af565b80156130a55780601f1061307a576101008083540402835291602001916130a5565b820191906000526020600020905b81548152906001019060200180831161308857829003601f168201915b505050505095508480546130b8906153af565b80601f01602080910402602001604051908101604052809291908181526020018280546130e4906153af565b80156131315780601f1061310657610100808354040283529160200191613131565b820191906000526020600020905b81548152906001019060200180831161311457829003601f168201915b50505050509450838054613144906153af565b80601f0160208091040260200160405190810160405280929190818152602001828054613170906153af565b80156131bd5780601f10613192576101008083540402835291602001916131bd565b820191906000526020600020905b8154815290600101906020018083116131a057829003601f168201915b505050505093508280546131d0906153af565b80601f01602080910402602001604051908101604052809291908181526020018280546131fc906153af565b80156132495780601f1061321e57610100808354040283529160200191613249565b820191906000526020600020905b81548152906001019060200180831161322c57829003601f168201915b5050505050925080805461325c906153af565b80601f0160208091040260200160405190810160405280929190818152602001828054613288906153af565b80156132d55780601f106132aa576101008083540402835291602001916132d5565b820191906000526020600020905b8154815290600101906020018083116132b857829003601f168201915b5050505050905095509550955095509550955091939550919395565b60608060608060608573ffffffffffffffffffffffffffffffffffffffff16600560008873ffffffffffffffffffffffffffffffffffffffff1673ffffffffffffffffffffffffffffffffffffffff16815260200190815260200160002060000160009054906101000a900473ffffffffffffffffffffffffffffffffffffffff1673ffffffffffffffffffffffffffffffffffffffff16146133c9576040517f08c379a00000000000000000000000000000000000000000000000000000000081526004016133c0906155c9565b60405180910390fd5b600560008773ffffffffffffffffffffffffffffffffffffffff1673ffffffffffffffffffffffffffffffffffffffff16815260200190815260200160002060030160009054906101000a900460ff16613458576040517f08c379a000000000000000000000000000000000000000000000000000000000815260040161344f9061570d565b60405180910390fd5b600560008773ffffffffffffffffffffffffffffffffffffffff1673ffffffffffffffffffffffffffffffffffffffff168152602001908152602001600020600101600560008873ffffffffffffffffffffffffffffffffffffffff1673ffffffffffffffffffffffffffffffffffffffff168152602001908152602001600020600201600560008973ffffffffffffffffffffffffffffffffffffffff1673ffffffffffffffffffffffffffffffffffffffff16815260200190815260200160002060040180549050604051602001613532919061574e565b604051602081830303815290604052600560008a73ffffffffffffffffffffffffffffffffffffffff1673ffffffffffffffffffffffffffffffffffffffff16815260200190815260200160002060000160009054906101000a900473ffffffffffffffffffffffffffffffffffffffff166040516020016135b491906157b1565b604051602081830303815290604052600560008b73ffffffffffffffffffffffffffffffffffffffff1673ffffffffffffffffffffffffffffffffffffffff16815260200190815260200160002060040180549050604051602001613619919061574e565b604051602081830303815290604052848054613634906153af565b80601f0160208091040260200160405190810160405280929190818152602001828054613660906153af565b80156136ad5780601f10613682576101008083540402835291602001916136ad565b820191906000526020600020905b81548152906001019060200180831161369057829003601f168201915b505050505094508380546136c0906153af565b80601f01602080910402602001604051908101604052809291908181526020018280546136ec906153af565b80156137395780601f1061370e57610100808354040283529160200191613739565b820191906000526020600020905b81548152906001019060200180831161371c57829003601f168201915b505050505093509450945094509450945091939590929450565b3373ffffffffffffffffffffffffffffffffffffffff16600560003373ffffffffffffffffffffffffffffffffffffffff1673ffffffffffffffffffffffffffffffffffffffff16815260200190815260200160002060000160009054906101000a900473ffffffffffffffffffffffffffffffffffffffff1673ffffffffffffffffffffffffffffffffffffffff1614613823576040517f08c379a000000000000000000000000000000000000000000000000000000000815260040161381a906155c9565b60405180910390fd5b6040518060400160405280600481526020017f7472756500000000000000000000000000000000000000000000000000000000815250600660008373ffffffffffffffffffffffffffffffffffffffff1673ffffffffffffffffffffffffffffffffffffffff16815260200190815260200160002060050190805190602001906138ae929190614461565b5050565b3373ffffffffffffffffffffffffffffffffffffffff16600660003373ffffffffffffffffffffffffffffffffffffffff1673ffffffffffffffffffffffffffffffffffffffff16815260200190815260200160002060000160009054906101000a900473ffffffffffffffffffffffffffffffffffffffff1673ffffffffffffffffffffffffffffffffffffffff1614613982576040517f08c379a00000000000000000000000000000000000000000000000000000000081526004016139799061583e565b60405180910390fd5b8273ffffffffffffffffffffffffffffffffffffffff16600660008573ffffffffffffffffffffffffffffffffffffffff1673ffffffffffffffffffffffffffffffffffffffff16815260200190815260200160002060000160009054906101000a900473ffffffffffffffffffffffffffffffffffffffff1673ffffffffffffffffffffffffffffffffffffffff1614613a52576040517f08c379a0000000000000000000000000000000000000000000000000000000008152600401613a49906158aa565b60405180910390fd5b604051602001613a6190615921565b60405160208183030381529060405280519060200120600660008573ffffffffffffffffffffffffffffffffffffffff1673ffffffffffffffffffffffffffffffffffffffff168152602001908152602001600020600501604051602001613ac991906159ca565b6040516020818303038152906040528051906020012014613b1f576040517f08c379a0000000000000000000000000000000000000000000000000000000008152600401613b1690615a2d565b60405180910390fd5b3373ffffffffffffffffffffffffffffffffffffffff16600560003373ffffffffffffffffffffffffffffffffffffffff1673ffffffffffffffffffffffffffffffffffffffff16815260200190815260200160002060000160009054906101000a900473ffffffffffffffffffffffffffffffffffffffff1673ffffffffffffffffffffffffffffffffffffffff161415613bf0576040517f08c379a0000000000000000000000000000000000000000000000000000000008152600401613be790615a99565b60405180910390fd5b8273ffffffffffffffffffffffffffffffffffffffff16600560008573ffffffffffffffffffffffffffffffffffffffff1673ffffffffffffffffffffffffffffffffffffffff16815260200190815260200160002060000160009054906101000a900473ffffffffffffffffffffffffffffffffffffffff1673ffffffffffffffffffffffffffffffffffffffff161415613cc1576040517f08c379a0000000000000000000000000000000000000000000000000000000008152600401613cb890615b05565b60405180910390fd5b600760405180608001604052803373ffffffffffffffffffffffffffffffffffffffff1681526020018573ffffffffffffffffffffffffffffffffffffffff16815260200184815260200183815250908060018154018082558091505060019003906000526020600020906004020160009091909190915060008201518160000160006101000a81548173ffffffffffffffffffffffffffffffffffffffff021916908373ffffffffffffffffffffffffffffffffffffffff16021790555060208201518160010160006101000a81548173ffffffffffffffffffffffffffffffffffffffff021916908373ffffffffffffffffffffffffffffffffffffffff160217905550604082015181600201556060820151816003019080519060200190613ded929190614461565b50505060086000815480929190613e0390615534565b9190505550505050565b60603373ffffffffffffffffffffffffffffffffffffffff16600660003373ffffffffffffffffffffffffffffffffffffffff1673ffffffffffffffffffffffffffffffffffffffff16815260200190815260200160002060000160009054906101000a900473ffffffffffffffffffffffffffffffffffffffff1673ffffffffffffffffffffffffffffffffffffffff1614613edf576040517f08c379a0000000000000000000000000000000000000000000000000000000008152600401613ed69061583e565b60405180910390fd5b600060085467ffffffffffffffff811115613efd57613efc614cc1565b5b604051908082528060200260200182016040528015613f3657816020015b613f236145d2565b815260200190600190039081613f1b5790505b5090506000805b6008548110156141f0573373ffffffffffffffffffffffffffffffffffffffff1660078281548110613f7257613f71615473565b5b906000526020600020906004020160000160009054906101000a900473ffffffffffffffffffffffffffffffffffffffff1673ffffffffffffffffffffffffffffffffffffffff16148061403657503373ffffffffffffffffffffffffffffffffffffffff1660078281548110613fec57613feb615473565b5b906000526020600020906004020160010160009054906101000a900473ffffffffffffffffffffffffffffffffffffffff1673ffffffffffffffffffffffffffffffffffffffff16145b156141dd576007818154811061404f5761404e615473565b5b90600052602060002090600402016040518060800160405290816000820160009054906101000a900473ffffffffffffffffffffffffffffffffffffffff1673ffffffffffffffffffffffffffffffffffffffff1673ffffffffffffffffffffffffffffffffffffffff1681526020016001820160009054906101000a900473ffffffffffffffffffffffffffffffffffffffff1673ffffffffffffffffffffffffffffffffffffffff1673ffffffffffffffffffffffffffffffffffffffff1681526020016002820154815260200160038201805461412e906153af565b80601f016020809104026020016040519081016040528092919081815260200182805461415a906153af565b80156141a75780601f1061417c576101008083540402835291602001916141a7565b820191906000526020600020905b81548152906001019060200180831161418a57829003601f168201915b5050505050815250508383815181106141c3576141c2615473565b5b602002602001018190525081806141d990615534565b9250505b80806141e890615534565b915050613f3d565b50819250505090565b60603373ffffffffffffffffffffffffffffffffffffffff16600560003373ffffffffffffffffffffffffffffffffffffffff1673ffffffffffffffffffffffffffffffffffffffff16815260200190815260200160002060000160009054906101000a900473ffffffffffffffffffffffffffffffffffffffff1673ffffffffffffffffffffffffffffffffffffffff16146142cb576040517f08c379a00000000000000000000000000000000000000000000000000000000081526004016142c2906155c9565b60405180910390fd5b600560003373ffffffffffffffffffffffffffffffffffffffff1673ffffffffffffffffffffffffffffffffffffffff16815260200190815260200160002060040180548060200260200160405190810160405280929190818152602001828054801561438d57602002820191906000526020600020905b8160009054906101000a900473ffffffffffffffffffffffffffffffffffffffff1673ffffffffffffffffffffffffffffffffffffffff1681526020019060010190808311614343575b5050505050905090565b60008054906101000a900473ffffffffffffffffffffffffffffffffffffffff1681565b600060016040516020016143cf91906159ca565b60405160208183030381529060405280519060200120826040516020016143f69190615b56565b60405160208183030381529060405280519060200120149050919050565b60045481565b6040518060a00160405280600073ffffffffffffffffffffffffffffffffffffffff1681526020016060815260200160608152602001600015158152602001606081525090565b82805461446d906153af565b90600052602060002090601f01602090048101928261448f57600085556144d6565b82601f106144a857805160ff19168380011785556144d6565b828001600101855582156144d6579182015b828111156144d55782518255916020019190600101906144ba565b5b5090506144e39190614626565b5090565b5080546144f3906153af565b6000825580601f106145055750614524565b601f0160209004906000526020600020908101906145239190614626565b5b50565b50805460008255906000526020600020908101906145459190614626565b50565b8280548282559060005260206000209081019282156145c1579160200282015b828111156145c05782518260006101000a81548173ffffffffffffffffffffffffffffffffffffffff021916908373ffffffffffffffffffffffffffffffffffffffff16021790555091602001919060010190614568565b5b5090506145ce9190614626565b5090565b6040518060800160405280600073ffffffffffffffffffffffffffffffffffffffff168152602001600073ffffffffffffffffffffffffffffffffffffffff16815260200160008152602001606081525090565b5b8082111561463f576000816000905550600101614627565b5090565b600081519050919050565b600082825260208201905092915050565b60005b8381101561467d578082015181840152602081019050614662565b8381111561468c576000848401525b50505050565b6000601f19601f8301169050919050565b60006146ae82614643565b6146b8818561464e565b93506146c881856020860161465f565b6146d181614692565b840191505092915050565b600060208201905081810360008301526146f681846146a3565b905092915050565b6000604051905090565b600080fd5b600080fd5b600073ffffffffffffffffffffffffffffffffffffffff82169050919050565b600061473d82614712565b9050919050565b61474d81614732565b811461475857600080fd5b50565b60008135905061476a81614744565b92915050565b60006020828403121561478657614785614708565b5b60006147948482850161475b565b91505092915050565b60008115159050919050565b6147b28161479d565b82525050565b600060608201905081810360008301526147d281866146a3565b905081810360208301526147e681856146a3565b90506147f560408301846147a9565b949350505050565b600081519050919050565b600082825260208201905092915050565b6000819050602082019050919050565b61483281614732565b82525050565b60006148448383614829565b60208301905092915050565b6000602082019050919050565b6000614868826147fd565b6148728185614808565b935061487d83614819565b8060005b838110156148ae5781516148958882614838565b97506148a083614850565b925050600181019050614881565b5085935050505092915050565b600060208201905081810360008301526148d5818461485d565b905092915050565b6000819050919050565b6148f0816148dd565b82525050565b600060208201905061490b60008301846148e7565b92915050565b61491a81614732565b82525050565b600061010082019050614936600083018b614911565b8181036020830152614948818a6146a3565b9050818103604083015261495c81896146a3565b9050818103606083015261497081886146a3565b9050818103608083015261498481876146a3565b905081810360a083015261499881866146a3565b90506149a760c0830185614911565b81810360e08301526149b981846146a3565b90509998505050505050505050565b60006040820190506149dd6000830185614911565b81810360208301526149ef81846146a3565b90509392505050565b6000602082019050614a0d60008301846147a9565b92915050565b600081519050919050565b600082825260208201905092915050565b6000819050602082019050919050565b600082825260208201905092915050565b6000614a5b82614643565b614a658185614a3f565b9350614a7581856020860161465f565b614a7e81614692565b840191505092915050565b614a928161479d565b82525050565b600082825260208201905092915050565b6000614ab4826147fd565b614abe8185614a98565b9350614ac983614819565b8060005b83811015614afa578151614ae18882614838565b9750614aec83614850565b925050600181019050614acd565b5085935050505092915050565b600060a083016000830151614b1f6000860182614829565b5060208301518482036020860152614b378282614a50565b91505060408301518482036040860152614b518282614a50565b9150506060830151614b666060860182614a89565b5060808301518482036080860152614b7e8282614aa9565b9150508091505092915050565b6000614b978383614b07565b905092915050565b6000602082019050919050565b6000614bb782614a13565b614bc18185614a1e565b935083602082028501614bd385614a2f565b8060005b85811015614c0f5784840389528151614bf08582614b8b565b9450614bfb83614b9f565b925060208a01995050600181019050614bd7565b50829750879550505050505092915050565b60006020820190508181036000830152614c3b8184614bac565b905092915050565b614c4c816148dd565b8114614c5757600080fd5b50565b600081359050614c6981614c43565b92915050565b600060208284031215614c8557614c84614708565b5b6000614c9384828501614c5a565b91505092915050565b6000602082019050614cb16000830184614911565b92915050565b600080fd5b600080fd5b7f4e487b7100000000000000000000000000000000000000000000000000000000600052604160045260246000fd5b614cf982614692565b810181811067ffffffffffffffff82111715614d1857614d17614cc1565b5b80604052505050565b6000614d2b6146fe565b9050614d378282614cf0565b919050565b600067ffffffffffffffff821115614d5757614d56614cc1565b5b614d6082614692565b9050602081019050919050565b82818337600083830152505050565b6000614d8f614d8a84614d3c565b614d21565b905082815260208101848484011115614dab57614daa614cbc565b5b614db6848285614d6d565b509392505050565b600082601f830112614dd357614dd2614cb7565b5b8135614de3848260208601614d7c565b91505092915050565b60008060408385031215614e0357614e02614708565b5b6000614e118582860161475b565b925050602083013567ffffffffffffffff811115614e3257614e3161470d565b5b614e3e85828601614dbe565b9150509250929050565b6000608082019050614e5d6000830187614911565b8181036020830152614e6f81866146a3565b90508181036040830152614e8381856146a3565b9050614e9260608301846147a9565b95945050505050565b60008060008060008060c08789031215614eb857614eb7614708565b5b600087013567ffffffffffffffff811115614ed657614ed561470d565b5b614ee289828a01614dbe565b965050602087013567ffffffffffffffff811115614f0357614f0261470d565b5b614f0f89828a01614dbe565b955050604087013567ffffffffffffffff811115614f3057614f2f61470d565b5b614f3c89828a01614dbe565b945050606087013567ffffffffffffffff811115614f5d57614f5c61470d565b5b614f6989828a01614dbe565b9350506080614f7a89828a0161475b565b92505060a087013567ffffffffffffffff811115614f9b57614f9a61470d565b5b614fa789828a01614dbe565b9150509295509295509295565b600081519050919050565b600082825260208201905092915050565b6000819050602082019050919050565b614fe9816148dd565b82525050565b60006080830160008301516150076000860182614829565b50602083015161501a6020860182614829565b50604083015161502d6040860182614fe0565b50606083015184820360608601526150458282614a50565b9150508091505092915050565b600061505e8383614fef565b905092915050565b6000602082019050919050565b600061507e82614fb4565b6150888185614fbf565b93508360208202850161509a85614fd0565b8060005b858110156150d657848403895281516150b78582615052565b94506150c283615066565b925060208a0199505060018101905061509e565b50829750879550505050505092915050565b600060208201905081810360008301526151028184615073565b905092915050565b600060808201905061511f6000830187614911565b61512c6020830186614911565b61513960408301856148e7565b818103606083015261514b81846146a3565b905095945050505050565b6000806040838503121561516d5761516c614708565b5b600083013567ffffffffffffffff81111561518b5761518a61470d565b5b61519785828601614dbe565b925050602083013567ffffffffffffffff8111156151b8576151b761470d565b5b6151c485828601614dbe565b9150509250929050565b600060c08201905081810360008301526151e881896146a3565b905081810360208301526151fc81886146a3565b9050818103604083015261521081876146a3565b9050818103606083015261522481866146a3565b90506152336080830185614911565b81810360a083015261524581846146a3565b9050979650505050505050565b600060a082019050818103600083015261526c81886146a3565b9050818103602083015261528081876146a3565b9050818103604083015261529481866146a3565b905081810360608301526152a881856146a3565b905081810360808301526152bc81846146a3565b90509695505050505050565b6000806000606084860312156152e1576152e0614708565b5b60006152ef8682870161475b565b935050602061530086828701614c5a565b925050604084013567ffffffffffffffff8111156153215761532061470d565b5b61532d86828701614dbe565b9150509250925092565b60006020828403121561534d5761534c614708565b5b600082013567ffffffffffffffff81111561536b5761536a61470d565b5b61537784828501614dbe565b91505092915050565b7f4e487b7100000000000000000000000000000000000000000000000000000000600052602260045260246000fd5b600060028204905060018216806153c757607f821691505b602082108114156153db576153da615380565b5b50919050565b7f4f6e6c792061646d696e2063616e2063616c6c20746869732066756e6374696f60008201527f6e00000000000000000000000000000000000000000000000000000000000000602082015250565b600061543d60218361464e565b9150615448826153e1565b604082019050919050565b6000602082019050818103600083015261546c81615430565b9050919050565b7f4e487b7100000000000000000000000000000000000000000000000000000000600052603260045260246000fd5b7f4e487b7100000000000000000000000000000000000000000000000000000000600052601160045260246000fd5b60006154dc826148dd565b91506154e7836148dd565b9250828210156154fa576154f96154a2565b5b828203905092915050565b7f4e487b7100000000000000000000000000000000000000000000000000000000600052603160045260246000fd5b600061553f826148dd565b91507fffffffffffffffffffffffffffffffffffffffffffffffffffffffffffffffff821415615572576155716154a2565b5b600182019050919050565b7f4f6e6c792062616e6b2063616e2063616c6c20746869732066756e6374696f6e600082015250565b60006155b360208361464e565b91506155be8261557d565b602082019050919050565b600060208201905081810360008301526155e2816155a6565b9050919050565b7f437573746f6d657220616c726561647920657869737473000000000000000000600082015250565b600061561f60178361464e565b915061562a826155e9565b602082019050919050565b6000602082019050818103600083015261564e81615612565b9050919050565b7f42616e6b20616c72656164792065786973747300000000000000000000000000600082015250565b600061568b60138361464e565b915061569682615655565b602082019050919050565b600060208201905081810360008301526156ba8161567e565b9050919050565b7f42616e6b206e6f74207665726966696564000000000000000000000000000000600082015250565b60006156f760118361464e565b9150615702826156c1565b602082019050919050565b60006020820190508181036000830152615726816156ea565b9050919050565b6000819050919050565b615748615743826148dd565b61572d565b82525050565b600061575a8284615737565b60208201915081905092915050565b60008160601b9050919050565b600061578182615769565b9050919050565b600061579382615776565b9050919050565b6157ab6157a682614732565b615788565b82525050565b60006157bd828461579a565b60148201915081905092915050565b7f4f6e6c7920637573746f6d65722063616e2063616c6c20746869732066756e6360008201527f74696f6e00000000000000000000000000000000000000000000000000000000602082015250565b600061582860248361464e565b9150615833826157cc565b604082019050919050565b600060208201905081810360008301526158578161581b565b9050919050565b7f526563697069656e7420646f6573206e6f742065786973740000000000000000600082015250565b600061589460188361464e565b915061589f8261585e565b602082019050919050565b600060208201905081810360008301526158c381615887565b9050919050565b600081905092915050565b7f7472756500000000000000000000000000000000000000000000000000000000600082015250565b600061590b6004836158ca565b9150615916826158d5565b600482019050919050565b600061592c826158fe565b9150819050919050565b60008190508160005260206000209050919050565b60008154615958816153af565b61596281866158ca565b9450600182166000811461597d576001811461598e576159c1565b60ff198316865281860193506159c1565b61599785615936565b60005b838110156159b95781548189015260018201915060208101905061599a565b838801955050505b50505092915050565b60006159d6828461594b565b915081905092915050565b7f526563697069656e74206e6f7420766572696669656400000000000000000000600082015250565b6000615a1760168361464e565b9150615a22826159e1565b602082019050919050565b60006020820190508181036000830152615a4681615a0a565b9050919050565b7f53656e6465722063616e6e6f7420626520612062616e6b000000000000000000600082015250565b6000615a8360178361464e565b9150615a8e82615a4d565b602082019050919050565b60006020820190508181036000830152615ab281615a76565b9050919050565b7f526563697069656e742063616e6e6f7420626520612062616e6b000000000000600082015250565b6000615aef601a8361464e565b9150615afa82615ab9565b602082019050919050565b60006020820190508181036000830152615b1e81615ae2565b9050919050565b6000615b3082614643565b615b3a81856158ca565b9350615b4a81856020860161465f565b80840191505092915050565b6000615b628284615b25565b91508190509291505056fea264697066735822122025f257fbd6423bea902ff37cd591fc25c8625f436fbacbf9466e5673cb78141564736f6c63430008090033",
  "linkReferences": {},
  "deployedLinkReferences": {}
}