{
  "_format": "hh-sol-artifact-1",
  "contractName": "KYC",
  "sourceName": "contracts/KYC.sol",
  "abi": [
    {
      "inputs": [
        {
          "internalType": "string",
          "name": "_password",
          "type": "string"
        }
      ],
      "stateMutability": "nonpayable",
      "type": "constructor"
    },
    {
      "inputs": [
        {
          "internalType": "address",
          "name": "_address",
          "type": "address"
        }
      ],
      "name": "addCustomer",
      "outputs": [],
      "stateMutability": "nonpayable",
      "type": "function"
    },
    {
      "inputs": [],
      "name": "admin_address",
      "outputs": [
        {
          "internalType": "address",
          "name": "",
          "type": "address"
        }
      ],
      "stateMutability": "view",
      "type": "function"
    },
    {
      "inputs": [],
      "name": "admin_password",
      "outputs": [
        {
          "internalType": "string",
          "name": "",
          "type": "string"
        }
      ],
      "stateMutability": "view",
      "type": "function"
    },
    {
      "inputs": [
        {
          "internalType": "address",
          "name": "",
          "type": "address"
        }
      ],
      "name": "admins",
      "outputs": [
        {
          "internalType": "address",
          "name": "adminAddress",
          "type": "address"
        },
        {
          "internalType": "string",
          "name": "adminName",
          "type": "string"
        }
      ],
      "stateMutability": "view",
      "type": "function"
    },
    {
      "inputs": [],
      "name": "bankCount",
      "outputs": [
        {
          "internalType": "uint256",
          "name": "",
          "type": "uint256"
        }
      ],
      "stateMutability": "view",
      "type": "function"
    },
    {
      "inputs": [
        {
          "internalType": "address",
          "name": "_address",
          "type": "address"
        }
      ],
      "name": "bankLogin",
      "outputs": [
        {
          "internalType": "string",
          "name": "",
          "type": "string"
        },
        {
          "internalType": "string",
          "name": "",
          "type": "string"
        },
        {
          "internalType": "string",
          "name": "",
          "type": "string"
        },
        {
          "internalType": "string",
          "name": "",
          "type": "string"
        },
        {
          "internalType": "string",
          "name": "",
          "type": "string"
        }
      ],
      "stateMutability": "view",
      "type": "function"
    },
    {
      "inputs": [
        {
          "internalType": "uint256",
          "name": "",
          "type": "uint256"
        }
      ],
      "name": "bankRequests",
      "outputs": [
        {
          "internalType": "address",
          "name": "",
          "type": "address"
        }
      ],
      "stateMutability": "view",
      "type": "function"
    },
    {
      "inputs": [
        {
          "internalType": "address",
          "name": "",
          "type": "address"
        }
      ],
      "name": "banks",
      "outputs": [
        {
          "internalType": "address",
          "name": "bankAddress",
          "type": "address"
        },
        {
          "internalType": "string",
          "name": "bankName",
          "type": "string"
        },
        {
          "internalType": "string",
          "name": "regNumber",
          "type": "string"
        },
        {
          "internalType": "bool",
          "name": "isVerified",
          "type": "bool"
        }
      ],
      "stateMutability": "view",
      "type": "function"
    },
    {
      "inputs": [
        {
          "internalType": "address",
          "name": "_address",
          "type": "address"
        }
      ],
      "name": "compareAdminAddress",
      "outputs": [
        {
          "internalType": "bool",
          "name": "",
          "type": "bool"
        }
      ],
      "stateMutability": "view",
      "type": "function"
    },
    {
      "inputs": [
        {
          "internalType": "string",
          "name": "_password",
          "type": "string"
        }
      ],
      "name": "comparePassword",
      "outputs": [
        {
          "internalType": "bool",
          "name": "",
          "type": "bool"
        }
      ],
      "stateMutability": "view",
      "type": "function"
    },
    {
      "inputs": [
        {
          "internalType": "string",
          "name": "_name",
          "type": "string"
        },
        {
          "internalType": "string",
          "name": "_regNumber",
          "type": "string"
        }
      ],
      "name": "createBank",
      "outputs": [],
      "stateMutability": "nonpayable",
      "type": "function"
    },
    {
      "inputs": [
        {
          "internalType": "string",
          "name": "_name",
          "type": "string"
        },
        {
          "internalType": "string",
          "name": "_email",
          "type": "string"
        },
        {
          "internalType": "string",
          "name": "_password",
          "type": "string"
        },
        {
          "internalType": "string",
          "name": "_data",
          "type": "string"
        },
        {
          "internalType": "address",
          "name": "_bankAddress",
          "type": "address"
        },
        {
          "internalType": "string",
          "name": "_balance",
          "type": "string"
        }
      ],
      "name": "createCustomer",
      "outputs": [],
      "stateMutability": "nonpayable",
      "type": "function"
    },
    {
      "inputs": [
        {
          "internalType": "address",
          "name": "_to",
          "type": "address"
        },
        {
          "internalType": "uint256",
          "name": "_amount",
          "type": "uint256"
        },
        {
          "internalType": "string",
          "name": "_data",
          "type": "string"
        }
      ],
      "name": "createTransaction",
      "outputs": [],
      "stateMutability": "nonpayable",
      "type": "function"
    },
    {
      "inputs": [
        {
          "internalType": "address",
          "name": "",
          "type": "address"
        }
      ],
      "name": "customers",
      "outputs": [
        {
          "internalType": "address",
          "name": "customerAddress",
          "type": "address"
        },
        {
          "internalType": "string",
          "name": "customerName",
          "type": "string"
        },
        {
          "internalType": "string",
          "name": "customerEmail",
          "type": "string"
        },
        {
          "internalType": "string",
          "name": "password",
          "type": "string"
        },
        {
          "internalType": "string",
          "name": "customerData",
          "type": "string"
        },
        {
          "internalType": "string",
          "name": "isVerified",
          "type": "string"
        },
        {
          "internalType": "address",
          "name": "bankAddress",
          "type": "address"
        },
        {
          "internalType": "string",
          "name": "balance",
          "type": "string"
        }
      ],
      "stateMutability": "view",
      "type": "function"
    },
    {
      "inputs": [],
      "name": "getBankCount",
      "outputs": [
        {
          "internalType": "uint256",
          "name": "",
          "type": "uint256"
        }
      ],
      "stateMutability": "view",
      "type": "function"
    },
    {
      "inputs": [
        {
          "internalType": "address",
          "name": "_address",
          "type": "address"
        }
      ],
      "name": "getBankDetails",
      "outputs": [
        {
          "internalType": "string",
          "name": "",
          "type": "string"
        },
        {
          "internalType": "string",
          "name": "",
          "type": "string"
        },
        {
          "internalType": "bool",
          "name": "",
          "type": "bool"
        }
      ],
      "stateMutability": "view",
      "type": "function"
    },
    {
      "inputs": [],
      "name": "getBankRequests",
      "outputs": [
        {
          "internalType": "address[]",
          "name": "",
          "type": "address[]"
        }
      ],
      "stateMutability": "view",
      "type": "function"
    },
    {
      "inputs": [],
      "name": "getBankRequestsAllData",
      "outputs": [
        {
          "components": [
            {
              "internalType": "address",
              "name": "bankAddress",
              "type": "address"
            },
            {
              "internalType": "string",
              "name": "bankName",
              "type": "string"
            },
            {
              "internalType": "string",
              "name": "regNumber",
              "type": "string"
            },
            {
              "internalType": "bool",
              "name": "isVerified",
              "type": "bool"
            },
            {
              "internalType": "address[]",
              "name": "customers",
              "type": "address[]"
            }
          ],
          "internalType": "struct KYC.Bank[]",
          "name": "",
          "type": "tuple[]"
        }
      ],
      "stateMutability": "view",
      "type": "function"
    },
    {
      "inputs": [],
      "name": "getBankRequestsCount",
      "outputs": [
        {
          "internalType": "uint256",
          "name": "",
          "type": "uint256"
        }
      ],
      "stateMutability": "view",
      "type": "function"
    },
    {
      "inputs": [
        {
          "internalType": "address",
          "name": "_address",
          "type": "address"
        }
      ],
      "name": "getCustomer",
      "outputs": [
        {
          "internalType": "string",
          "name": "",
          "type": "string"
        },
        {
          "internalType": "string",
          "name": "",
          "type": "string"
        },
        {
          "internalType": "string",
          "name": "",
          "type": "string"
        },
        {
          "internalType": "string",
          "name": "",
          "type": "string"
        },
        {
          "internalType": "address",
          "name": "",
          "type": "address"
        },
        {
          "internalType": "string",
          "name": "",
          "type": "string"
        }
      ],
      "stateMutability": "view",
      "type": "function"
    },
    {
      "inputs": [],
      "name": "getCustomerTransaction",
      "outputs": [
        {
          "components": [
            {
              "internalType": "address",
              "name": "from",
              "type": "address"
            },
            {
              "internalType": "address",
              "name": "to",
              "type": "address"
            },
            {
              "internalType": "uint256",
              "name": "amount",
              "type": "uint256"
            },
            {
              "internalType": "string",
              "name": "transactionData",
              "type": "string"
            }
          ],
          "internalType": "struct KYC.Transaction[]",
          "name": "",
          "type": "tuple[]"
        }
      ],
      "stateMutability": "view",
      "type": "function"
    },
    {
      "inputs": [],
      "name": "getCustomers",
      "outputs": [
        {
          "internalType": "address[]",
          "name": "",
          "type": "address[]"
        }
      ],
      "stateMutability": "view",
      "type": "function"
    },
    {
      "inputs": [],
      "name": "getTransactionCount",
      "outputs": [
        {
          "internalType": "uint256",
          "name": "",
          "type": "uint256"
        }
      ],
      "stateMutability": "view",
      "type": "function"
    },
    {
      "inputs": [],
      "name": "getTransactions",
      "outputs": [
        {
          "components": [
            {
              "internalType": "address",
              "name": "from",
              "type": "address"
            },
            {
              "internalType": "address",
              "name": "to",
              "type": "address"
            },
            {
              "internalType": "uint256",
              "name": "amount",
              "type": "uint256"
            },
            {
              "internalType": "string",
              "name": "transactionData",
              "type": "string"
            }
          ],
          "internalType": "struct KYC.Transaction[]",
          "name": "",
          "type": "tuple[]"
        }
      ],
      "stateMutability": "view",
      "type": "function"
    },
    {
      "inputs": [],
      "name": "getVerifiedBanks",
      "outputs": [
        {
          "components": [
            {
              "internalType": "address",
              "name": "bankAddress",
              "type": "address"
            },
            {
              "internalType": "string",
              "name": "bankName",
              "type": "string"
            },
            {
              "internalType": "string",
              "name": "regNumber",
              "type": "string"
            },
            {
              "internalType": "bool",
              "name": "isVerified",
              "type": "bool"
            },
            {
              "internalType": "address[]",
              "name": "customers",
              "type": "address[]"
            }
          ],
          "internalType": "struct KYC.Bank[]",
          "name": "",
          "type": "tuple[]"
        }
      ],
      "stateMutability": "view",
      "type": "function"
    },
    {
      "inputs": [
        {
          "internalType": "address",
          "name": "_address",
          "type": "address"
        }
      ],
      "name": "rejectBank",
      "outputs": [],
      "stateMutability": "nonpayable",
      "type": "function"
    },
    {
      "inputs": [
        {
          "internalType": "address",
          "name": "_address",
          "type": "address"
        }
      ],
      "name": "rejectCustomer",
      "outputs": [],
      "stateMutability": "nonpayable",
      "type": "function"
    },
    {
      "inputs": [
        {
          "internalType": "address",
          "name": "_address",
          "type": "address"
        }
      ],
      "name": "removeBank",
      "outputs": [],
      "stateMutability": "nonpayable",
      "type": "function"
    },
    {
      "inputs": [
        {
          "internalType": "address",
          "name": "_address",
          "type": "address"
        }
      ],
      "name": "removeCustomer",
      "outputs": [],
      "stateMutability": "nonpayable",
      "type": "function"
    },
    {
      "inputs": [],
      "name": "transactionCount",
      "outputs": [
        {
          "internalType": "uint256",
          "name": "",
          "type": "uint256"
        }
      ],
      "stateMutability": "view",
      "type": "function"
    },
    {
      "inputs": [
        {
          "internalType": "uint256",
          "name": "",
          "type": "uint256"
        }
      ],
      "name": "transactions",
      "outputs": [
        {
          "internalType": "address",
          "name": "from",
          "type": "address"
        },
        {
          "internalType": "address",
          "name": "to",
          "type": "address"
        },
        {
          "internalType": "uint256",
          "name": "amount",
          "type": "uint256"
        },
        {
          "internalType": "string",
          "name": "transactionData",
          "type": "string"
        }
      ],
      "stateMutability": "view",
      "type": "function"
    },
    {
      "inputs": [
        {
          "internalType": "address",
          "name": "_address",
          "type": "address"
        },
        {
          "internalType": "string",
          "name": "_balance",
          "type": "string"
        }
      ],
      "name": "updateBalace",
      "outputs": [],
      "stateMutability": "nonpayable",
      "type": "function"
    },
    {
      "inputs": [
        {
          "internalType": "address",
          "name": "_address",
          "type": "address"
        }
      ],
      "name": "verifyBank",
      "outputs": [],
      "stateMutability": "nonpayable",
      "type": "function"
    },
    {
      "inputs": [
        {
          "internalType": "address",
          "name": "_address",
          "type": "address"
        }
      ],
      "name": "verifyCustomer",
      "outputs": [],
      "stateMutability": "nonpayable",
      "type": "function"
    }
  ],
  "bytecode": "0x60806040523480156200001157600080fd5b5060405162005f5a38038062005f5a8339818101604052810190620000379190620003ec565b336000806101000a81548173ffffffffffffffffffffffffffffffffffffffff021916908373ffffffffffffffffffffffffffffffffffffffff16021790555080600190805190602001906200008f9291906200019f565b5060405180604001604052803373ffffffffffffffffffffffffffffffffffffffff1681526020016040518060400160405280600581526020017f41646d696e000000000000000000000000000000000000000000000000000000815250815250600260003373ffffffffffffffffffffffffffffffffffffffff1673ffffffffffffffffffffffffffffffffffffffff16815260200190815260200160002060008201518160000160006101000a81548173ffffffffffffffffffffffffffffffffffffffff021916908373ffffffffffffffffffffffffffffffffffffffff1602179055506020820151816001019080519060200190620001949291906200019f565b5090505050620004a2565b828054620001ad906200046c565b90600052602060002090601f016020900481019282620001d157600085556200021d565b82601f10620001ec57805160ff19168380011785556200021d565b828001600101855582156200021d579182015b828111156200021c578251825591602001919060010190620001ff565b5b5090506200022c919062000230565b5090565b5b808211156200024b57600081600090555060010162000231565b5090565b6000604051905090565b600080fd5b600080fd5b600080fd5b600080fd5b6000601f19601f8301169050919050565b7f4e487b7100000000000000000000000000000000000000000000000000000000600052604160045260246000fd5b620002b8826200026d565b810181811067ffffffffffffffff82111715620002da57620002d96200027e565b5b80604052505050565b6000620002ef6200024f565b9050620002fd8282620002ad565b919050565b600067ffffffffffffffff82111562000320576200031f6200027e565b5b6200032b826200026d565b9050602081019050919050565b60005b83811015620003585780820151818401526020810190506200033b565b8381111562000368576000848401525b50505050565b6000620003856200037f8462000302565b620002e3565b905082815260208101848484011115620003a457620003a362000268565b5b620003b184828562000338565b509392505050565b600082601f830112620003d157620003d062000263565b5b8151620003e38482602086016200036e565b91505092915050565b60006020828403121562000405576200040462000259565b5b600082015167ffffffffffffffff8111156200042657620004256200025e565b5b6200043484828501620003b9565b91505092915050565b7f4e487b7100000000000000000000000000000000000000000000000000000000600052602260045260246000fd5b600060028204905060018216806200048557607f821691505b602082108114156200049c576200049b6200043d565b5b50919050565b615aa880620004b26000396000f3fe608060405234801561001057600080fd5b50600436106102065760003560e01c806383920e901161011a578063cb949e51116100ad578063e4da9ebc1161007c578063e4da9ebc14610616578063f1ba712714610634578063f2e6277214610652578063f5bfe62214610670578063f879eb57146106a057610206565b8063cb949e5114610575578063d81fcc86146105aa578063daa6b8f1146105de578063e1f6048d146105fa57610206565b8063ad973d74116100e9578063ad973d7414610501578063aebc2f031461051d578063b77bf6001461053b578063b97eb2dd1461055957610206565b806383920e90146104785780638eb06ccf146104965780639649650c146104b25780639ace38c2146104ce57610206565b80634a5e96281161019d5780636956686c1161016c5780636956686c146103d35780636a505df4146103f15780636da04e641461040d57806380c3b8c214610429578063833ee7201461045c57610206565b80634a5e96281461033957806352dffc961461036957806353af8dd6146103875780635ebbe309146103a357610206565b80632e7700f0116101d95780632e7700f014610297578063336989ae146102b557806335fab5d5146102ec578063429b62e51461030857610206565b8063101ad1c81461020b57806315101e02146102295780632cc5c5f11461025b5780632e44715d14610279575b600080fd5b6102136106be565b60405161022091906145e1565b60405180910390f35b610243600480360381019061023e9190614675565b61074c565b604051610252939291906146bd565b60405180910390f35b61026361094a565b60405161027091906147c0565b60405180910390f35b610281610a66565b60405161028e91906147fb565b60405180910390f35b61029f610aff565b6040516102ac91906147fb565b60405180910390f35b6102cf60048036038101906102ca9190614675565b610b09565b6040516102e3989796959493929190614825565b60405180910390f35b61030660048036038101906103019190614675565b610ec1565b005b610322600480360381019061031d9190614675565b6110e0565b6040516103309291906148cd565b60405180910390f35b610353600480360381019061034e9190614675565b6111ac565b60405161036091906148fd565b60405180910390f35b610371611205565b60405161037e9190614b26565b60405180910390f35b6103a1600480360381019061039c9190614675565b611687565b005b6103bd60048036038101906103b89190614b74565b6117e6565b6040516103ca9190614ba1565b60405180910390f35b6103db611825565b6040516103e89190614b26565b60405180910390f35b61040b60048036038101906104069190614cf1565b611c99565b005b61042760048036038101906104229190614675565b611dc4565b005b610443600480360381019061043e9190614675565b611ec8565b6040516104539493929190614d4d565b60405180910390f35b61047660048036038101906104719190614da0565b612035565b005b610480612327565b60405161048d9190614fed565b60405180910390f35b6104b060048036038101906104ab9190614675565b6124ce565b005b6104cc60048036038101906104c79190614675565b61264f565b005b6104e860048036038101906104e39190614b74565b61278d565b6040516104f8949392919061500f565b60405180910390f35b61051b60048036038101906105169190614675565b612895565b005b610525612a0b565b60405161053291906147fb565b60405180910390f35b610543612aa7565b60405161055091906147fb565b60405180910390f35b610573600480360381019061056e919061505b565b612aad565b005b61058f600480360381019061058a9190614675565b612d6e565b6040516105a1969594939291906150d3565b60405180910390f35b6105c460048036038101906105bf9190614675565b6131f6565b6040516105d5959493929190615157565b60405180910390f35b6105f860048036038101906105f39190614675565b613658565b005b610614600480360381019061060f91906151cd565b6137b7565b005b61061e613d12565b60405161062b9190614fed565b60405180910390f35b61063c6140fe565b60405161064991906147c0565b60405180910390f35b61065a61429c565b6040516106679190614ba1565b60405180910390f35b61068a6004803603810190610685919061523c565b6142c0565b60405161069791906148fd565b60405180910390f35b6106a8614319565b6040516106b591906147fb565b60405180910390f35b600180546106cb906152b4565b80601f01602080910402602001604051908101604052809291908181526020018280546106f7906152b4565b80156107445780601f1061071957610100808354040283529160200191610744565b820191906000526020600020905b81548152906001019060200180831161072757829003601f168201915b505050505081565b6060806000600560008573ffffffffffffffffffffffffffffffffffffffff1673ffffffffffffffffffffffffffffffffffffffff168152602001908152602001600020600101600560008673ffffffffffffffffffffffffffffffffffffffff1673ffffffffffffffffffffffffffffffffffffffff168152602001908152602001600020600201600560008773ffffffffffffffffffffffffffffffffffffffff1673ffffffffffffffffffffffffffffffffffffffff16815260200190815260200160002060030160009054906101000a900460ff16828054610831906152b4565b80601f016020809104026020016040519081016040528092919081815260200182805461085d906152b4565b80156108aa5780601f1061087f576101008083540402835291602001916108aa565b820191906000526020600020905b81548152906001019060200180831161088d57829003601f168201915b505050505092508180546108bd906152b4565b80601f01602080910402602001604051908101604052809291908181526020018280546108e9906152b4565b80156109365780601f1061090b57610100808354040283529160200191610936565b820191906000526020600020905b81548152906001019060200180831161091957829003601f168201915b505050505091509250925092509193909250565b606060008054906101000a900473ffffffffffffffffffffffffffffffffffffffff1673ffffffffffffffffffffffffffffffffffffffff163373ffffffffffffffffffffffffffffffffffffffff16146109da576040517f08c379a00000000000000000000000000000000000000000000000000000000081526004016109d190615358565b60405180910390fd5b6003805480602002602001604051908101604052809291908181526020018280548015610a5c57602002820191906000526020600020905b8160009054906101000a900473ffffffffffffffffffffffffffffffffffffffff1673ffffffffffffffffffffffffffffffffffffffff1681526020019060010190808311610a12575b5050505050905090565b60008060009054906101000a900473ffffffffffffffffffffffffffffffffffffffff1673ffffffffffffffffffffffffffffffffffffffff163373ffffffffffffffffffffffffffffffffffffffff1614610af7576040517f08c379a0000000000000000000000000000000000000000000000000000000008152600401610aee90615358565b60405180910390fd5b600454905090565b6000600854905090565b60066020528060005260406000206000915090508060000160009054906101000a900473ffffffffffffffffffffffffffffffffffffffff1690806001018054610b52906152b4565b80601f0160208091040260200160405190810160405280929190818152602001828054610b7e906152b4565b8015610bcb5780601f10610ba057610100808354040283529160200191610bcb565b820191906000526020600020905b815481529060010190602001808311610bae57829003601f168201915b505050505090806002018054610be0906152b4565b80601f0160208091040260200160405190810160405280929190818152602001828054610c0c906152b4565b8015610c595780601f10610c2e57610100808354040283529160200191610c59565b820191906000526020600020905b815481529060010190602001808311610c3c57829003601f168201915b505050505090806003018054610c6e906152b4565b80601f0160208091040260200160405190810160405280929190818152602001828054610c9a906152b4565b8015610ce75780601f10610cbc57610100808354040283529160200191610ce7565b820191906000526020600020905b815481529060010190602001808311610cca57829003601f168201915b505050505090806004018054610cfc906152b4565b80601f0160208091040260200160405190810160405280929190818152602001828054610d28906152b4565b8015610d755780601f10610d4a57610100808354040283529160200191610d75565b820191906000526020600020905b815481529060010190602001808311610d5857829003601f168201915b505050505090806005018054610d8a906152b4565b80601f0160208091040260200160405190810160405280929190818152602001828054610db6906152b4565b8015610e035780601f10610dd857610100808354040283529160200191610e03565b820191906000526020600020905b815481529060010190602001808311610de657829003601f168201915b5050505050908060060160009054906101000a900473ffffffffffffffffffffffffffffffffffffffff1690806007018054610e3e906152b4565b80601f0160208091040260200160405190810160405280929190818152602001828054610e6a906152b4565b8015610eb75780601f10610e8c57610100808354040283529160200191610eb7565b820191906000526020600020905b815481529060010190602001808311610e9a57829003601f168201915b5050505050905088565b60008054906101000a900473ffffffffffffffffffffffffffffffffffffffff1673ffffffffffffffffffffffffffffffffffffffff163373ffffffffffffffffffffffffffffffffffffffff1614610f4f576040517f08c379a0000000000000000000000000000000000000000000000000000000008152600401610f4690615358565b60405180910390fd5b60005b6003805490508110156110dc578173ffffffffffffffffffffffffffffffffffffffff1660038281548110610f8a57610f89615378565b5b9060005260206000200160009054906101000a900473ffffffffffffffffffffffffffffffffffffffff1673ffffffffffffffffffffffffffffffffffffffff1614156110c95760036001600380549050610fe591906153d6565b81548110610ff657610ff5615378565b5b9060005260206000200160009054906101000a900473ffffffffffffffffffffffffffffffffffffffff166003828154811061103557611034615378565b5b9060005260206000200160006101000a81548173ffffffffffffffffffffffffffffffffffffffff021916908373ffffffffffffffffffffffffffffffffffffffff160217905550600380548061108f5761108e61540a565b5b6001900381819060005260206000200160006101000a81549073ffffffffffffffffffffffffffffffffffffffff021916905590556110dc565b80806110d490615439565b915050610f52565b5050565b60026020528060005260406000206000915090508060000160009054906101000a900473ffffffffffffffffffffffffffffffffffffffff1690806001018054611129906152b4565b80601f0160208091040260200160405190810160405280929190818152602001828054611155906152b4565b80156111a25780601f10611177576101008083540402835291602001916111a2565b820191906000526020600020905b81548152906001019060200180831161118557829003601f168201915b5050505050905082565b60008060009054906101000a900473ffffffffffffffffffffffffffffffffffffffff1673ffffffffffffffffffffffffffffffffffffffff168273ffffffffffffffffffffffffffffffffffffffff16149050919050565b606060008054906101000a900473ffffffffffffffffffffffffffffffffffffffff1673ffffffffffffffffffffffffffffffffffffffff163373ffffffffffffffffffffffffffffffffffffffff1614611295576040517f08c379a000000000000000000000000000000000000000000000000000000000815260040161128c90615358565b60405180910390fd5b600060045467ffffffffffffffff8111156112b3576112b2614bc6565b5b6040519080825280602002602001820160405280156112ec57816020015b6112d961431f565b8152602001906001900390816112d15790505b5090506000805b60038054905081101561167e57600560006003838154811061131857611317615378565b5b9060005260206000200160009054906101000a900473ffffffffffffffffffffffffffffffffffffffff1673ffffffffffffffffffffffffffffffffffffffff1673ffffffffffffffffffffffffffffffffffffffff16815260200190815260200160002060030160009054906101000a900460ff161561166b5760056000600383815481106113ab576113aa615378565b5b9060005260206000200160009054906101000a900473ffffffffffffffffffffffffffffffffffffffff1673ffffffffffffffffffffffffffffffffffffffff1673ffffffffffffffffffffffffffffffffffffffff1681526020019081526020016000206040518060a00160405290816000820160009054906101000a900473ffffffffffffffffffffffffffffffffffffffff1673ffffffffffffffffffffffffffffffffffffffff1673ffffffffffffffffffffffffffffffffffffffff168152602001600182018054611481906152b4565b80601f01602080910402602001604051908101604052809291908181526020018280546114ad906152b4565b80156114fa5780601f106114cf576101008083540402835291602001916114fa565b820191906000526020600020905b8154815290600101906020018083116114dd57829003601f168201915b50505050508152602001600282018054611513906152b4565b80601f016020809104026020016040519081016040528092919081815260200182805461153f906152b4565b801561158c5780601f106115615761010080835404028352916020019161158c565b820191906000526020600020905b81548152906001019060200180831161156f57829003601f168201915b505050505081526020016003820160009054906101000a900460ff161515151581526020016004820180548060200260200160405190810160405280929190818152602001828054801561163557602002820191906000526020600020905b8160009054906101000a900473ffffffffffffffffffffffffffffffffffffffff1673ffffffffffffffffffffffffffffffffffffffff16815260200190600101908083116115eb575b50505050508152505083838151811061165157611650615378565b5b6020026020010181905250818061166790615439565b9250505b808061167690615439565b9150506112f3565b50819250505090565b3373ffffffffffffffffffffffffffffffffffffffff16600560003373ffffffffffffffffffffffffffffffffffffffff1673ffffffffffffffffffffffffffffffffffffffff16815260200190815260200160002060000160009054906101000a900473ffffffffffffffffffffffffffffffffffffffff1673ffffffffffffffffffffffffffffffffffffffff1614611757576040517f08c379a000000000000000000000000000000000000000000000000000000000815260040161174e906154ce565b60405180910390fd5b6040518060400160405280600581526020017f66616c7365000000000000000000000000000000000000000000000000000000815250600660008373ffffffffffffffffffffffffffffffffffffffff1673ffffffffffffffffffffffffffffffffffffffff16815260200190815260200160002060050190805190602001906117e2929190614366565b5050565b600381815481106117f657600080fd5b906000526020600020016000915054906101000a900473ffffffffffffffffffffffffffffffffffffffff1681565b606060008054906101000a900473ffffffffffffffffffffffffffffffffffffffff1673ffffffffffffffffffffffffffffffffffffffff163373ffffffffffffffffffffffffffffffffffffffff16146118b5576040517f08c379a00000000000000000000000000000000000000000000000000000000081526004016118ac90615358565b60405180910390fd5b600060038054905067ffffffffffffffff8111156118d6576118d5614bc6565b5b60405190808252806020026020018201604052801561190f57816020015b6118fc61431f565b8152602001906001900390816118f45790505b50905060005b600380549050811015611c9157600560006003838154811061193a57611939615378565b5b9060005260206000200160009054906101000a900473ffffffffffffffffffffffffffffffffffffffff1673ffffffffffffffffffffffffffffffffffffffff1673ffffffffffffffffffffffffffffffffffffffff16815260200190815260200160002060030160009054906101000a900460ff16611c7e5760056000600383815481106119cc576119cb615378565b5b9060005260206000200160009054906101000a900473ffffffffffffffffffffffffffffffffffffffff1673ffffffffffffffffffffffffffffffffffffffff1673ffffffffffffffffffffffffffffffffffffffff1681526020019081526020016000206040518060a00160405290816000820160009054906101000a900473ffffffffffffffffffffffffffffffffffffffff1673ffffffffffffffffffffffffffffffffffffffff1673ffffffffffffffffffffffffffffffffffffffff168152602001600182018054611aa2906152b4565b80601f0160208091040260200160405190810160405280929190818152602001828054611ace906152b4565b8015611b1b5780601f10611af057610100808354040283529160200191611b1b565b820191906000526020600020905b815481529060010190602001808311611afe57829003601f168201915b50505050508152602001600282018054611b34906152b4565b80601f0160208091040260200160405190810160405280929190818152602001828054611b60906152b4565b8015611bad5780601f10611b8257610100808354040283529160200191611bad565b820191906000526020600020905b815481529060010190602001808311611b9057829003601f168201915b505050505081526020016003820160009054906101000a900460ff1615151515815260200160048201805480602002602001604051908101604052809291908181526020018280548015611c5657602002820191906000526020600020905b8160009054906101000a900473ffffffffffffffffffffffffffffffffffffffff1673ffffffffffffffffffffffffffffffffffffffff1681526020019060010190808311611c0c575b505050505081525050828281518110611c7257611c71615378565b5b60200260200101819052505b8080611c8990615439565b915050611915565b508091505090565b3373ffffffffffffffffffffffffffffffffffffffff16600560003373ffffffffffffffffffffffffffffffffffffffff1673ffffffffffffffffffffffffffffffffffffffff16815260200190815260200160002060000160009054906101000a900473ffffffffffffffffffffffffffffffffffffffff1673ffffffffffffffffffffffffffffffffffffffff1614611d69576040517f08c379a0000000000000000000000000000000000000000000000000000000008152600401611d60906154ce565b60405180910390fd5b80600660008473ffffffffffffffffffffffffffffffffffffffff1673ffffffffffffffffffffffffffffffffffffffff1681526020019081526020016000206007019080519060200190611dbf929190614366565b505050565b60008054906101000a900473ffffffffffffffffffffffffffffffffffffffff1673ffffffffffffffffffffffffffffffffffffffff163373ffffffffffffffffffffffffffffffffffffffff1614611e52576040517f08c379a0000000000000000000000000000000000000000000000000000000008152600401611e4990615358565b60405180910390fd5b6001600560008373ffffffffffffffffffffffffffffffffffffffff1673ffffffffffffffffffffffffffffffffffffffff16815260200190815260200160002060030160006101000a81548160ff02191690831515021790555060046000815480929190611ec090615439565b919050555050565b60056020528060005260406000206000915090508060000160009054906101000a900473ffffffffffffffffffffffffffffffffffffffff1690806001018054611f11906152b4565b80601f0160208091040260200160405190810160405280929190818152602001828054611f3d906152b4565b8015611f8a5780601f10611f5f57610100808354040283529160200191611f8a565b820191906000526020600020905b815481529060010190602001808311611f6d57829003601f168201915b505050505090806002018054611f9f906152b4565b80601f0160208091040260200160405190810160405280929190818152602001828054611fcb906152b4565b80156120185780601f10611fed57610100808354040283529160200191612018565b820191906000526020600020905b815481529060010190602001808311611ffb57829003601f168201915b5050505050908060030160009054906101000a900460ff16905084565b3373ffffffffffffffffffffffffffffffffffffffff16600660003373ffffffffffffffffffffffffffffffffffffffff1673ffffffffffffffffffffffffffffffffffffffff16815260200190815260200160002060000160009054906101000a900473ffffffffffffffffffffffffffffffffffffffff1673ffffffffffffffffffffffffffffffffffffffff161415612106576040517f08c379a00000000000000000000000000000000000000000000000000000000081526004016120fd9061553a565b60405180910390fd5b6040518061010001604052803373ffffffffffffffffffffffffffffffffffffffff1681526020018781526020018681526020018581526020018481526020016040518060400160405280600581526020017f66616c736500000000000000000000000000000000000000000000000000000081525081526020018373ffffffffffffffffffffffffffffffffffffffff16815260200182815250600660003373ffffffffffffffffffffffffffffffffffffffff1673ffffffffffffffffffffffffffffffffffffffff16815260200190815260200160002060008201518160000160006101000a81548173ffffffffffffffffffffffffffffffffffffffff021916908373ffffffffffffffffffffffffffffffffffffffff1602179055506020820151816001019080519060200190612243929190614366565b506040820151816002019080519060200190612260929190614366565b50606082015181600301908051906020019061227d929190614366565b50608082015181600401908051906020019061229a929190614366565b5060a08201518160050190805190602001906122b7929190614366565b5060c08201518160060160006101000a81548173ffffffffffffffffffffffffffffffffffffffff021916908373ffffffffffffffffffffffffffffffffffffffff16021790555060e082015181600701908051906020019061231b929190614366565b50905050505050505050565b60606007805480602002602001604051908101604052809291908181526020016000905b828210156124c557838290600052602060002090600402016040518060800160405290816000820160009054906101000a900473ffffffffffffffffffffffffffffffffffffffff1673ffffffffffffffffffffffffffffffffffffffff1673ffffffffffffffffffffffffffffffffffffffff1681526020016001820160009054906101000a900473ffffffffffffffffffffffffffffffffffffffff1673ffffffffffffffffffffffffffffffffffffffff1673ffffffffffffffffffffffffffffffffffffffff16815260200160028201548152602001600382018054612434906152b4565b80601f0160208091040260200160405190810160405280929190818152602001828054612460906152b4565b80156124ad5780601f10612482576101008083540402835291602001916124ad565b820191906000526020600020905b81548152906001019060200180831161249057829003601f168201915b5050505050815250508152602001906001019061234b565b50505050905090565b60008054906101000a900473ffffffffffffffffffffffffffffffffffffffff1673ffffffffffffffffffffffffffffffffffffffff163373ffffffffffffffffffffffffffffffffffffffff161461255c576040517f08c379a000000000000000000000000000000000000000000000000000000000815260040161255390615358565b60405180910390fd5b600660008273ffffffffffffffffffffffffffffffffffffffff1673ffffffffffffffffffffffffffffffffffffffff168152602001908152602001600020600080820160006101000a81549073ffffffffffffffffffffffffffffffffffffffff02191690556001820160006125d391906143ec565b6002820160006125e391906143ec565b6003820160006125f391906143ec565b60048201600061260391906143ec565b60058201600061261391906143ec565b6006820160006101000a81549073ffffffffffffffffffffffffffffffffffffffff021916905560078201600061264a91906143ec565b505050565b60008054906101000a900473ffffffffffffffffffffffffffffffffffffffff1673ffffffffffffffffffffffffffffffffffffffff163373ffffffffffffffffffffffffffffffffffffffff16146126dd576040517f08c379a00000000000000000000000000000000000000000000000000000000081526004016126d490615358565b60405180910390fd5b600560008273ffffffffffffffffffffffffffffffffffffffff1673ffffffffffffffffffffffffffffffffffffffff168152602001908152602001600020600080820160006101000a81549073ffffffffffffffffffffffffffffffffffffffff021916905560018201600061275491906143ec565b60028201600061276491906143ec565b6003820160006101000a81549060ff0219169055600482016000612788919061442c565b505050565b6007818154811061279d57600080fd5b90600052602060002090600402016000915090508060000160009054906101000a900473ffffffffffffffffffffffffffffffffffffffff16908060010160009054906101000a900473ffffffffffffffffffffffffffffffffffffffff1690806002015490806003018054612812906152b4565b80601f016020809104026020016040519081016040528092919081815260200182805461283e906152b4565b801561288b5780601f106128605761010080835404028352916020019161288b565b820191906000526020600020905b81548152906001019060200180831161286e57829003601f168201915b5050505050905084565b3373ffffffffffffffffffffffffffffffffffffffff16600560003373ffffffffffffffffffffffffffffffffffffffff1673ffffffffffffffffffffffffffffffffffffffff16815260200190815260200160002060000160009054906101000a900473ffffffffffffffffffffffffffffffffffffffff1673ffffffffffffffffffffffffffffffffffffffff1614612965576040517f08c379a000000000000000000000000000000000000000000000000000000000815260040161295c906154ce565b60405180910390fd5b600560003373ffffffffffffffffffffffffffffffffffffffff1673ffffffffffffffffffffffffffffffffffffffff168152602001908152602001600020600401819080600181540180825580915050600190039060005260206000200160009091909190916101000a81548173ffffffffffffffffffffffffffffffffffffffff021916908373ffffffffffffffffffffffffffffffffffffffff16021790555050565b60008060009054906101000a900473ffffffffffffffffffffffffffffffffffffffff1673ffffffffffffffffffffffffffffffffffffffff163373ffffffffffffffffffffffffffffffffffffffff1614612a9c576040517f08c379a0000000000000000000000000000000000000000000000000000000008152600401612a9390615358565b60405180910390fd5b600380549050905090565b60085481565b3373ffffffffffffffffffffffffffffffffffffffff16600560003373ffffffffffffffffffffffffffffffffffffffff1673ffffffffffffffffffffffffffffffffffffffff16815260200190815260200160002060000160009054906101000a900473ffffffffffffffffffffffffffffffffffffffff1673ffffffffffffffffffffffffffffffffffffffff161415612b7e576040517f08c379a0000000000000000000000000000000000000000000000000000000008152600401612b75906155a6565b60405180910390fd5b6040518060a001604052803373ffffffffffffffffffffffffffffffffffffffff168152602001838152602001828152602001600015158152602001600067ffffffffffffffff811115612bd557612bd4614bc6565b5b604051908082528060200260200182016040528015612c035781602001602082028036833780820191505090505b50815250600560003373ffffffffffffffffffffffffffffffffffffffff1673ffffffffffffffffffffffffffffffffffffffff16815260200190815260200160002060008201518160000160006101000a81548173ffffffffffffffffffffffffffffffffffffffff021916908373ffffffffffffffffffffffffffffffffffffffff1602179055506020820151816001019080519060200190612ca9929190614366565b506040820151816002019080519060200190612cc6929190614366565b5060608201518160030160006101000a81548160ff0219169083151502179055506080820151816004019080519060200190612d0392919061444d565b509050506003339080600181540180825580915050600190039060005260206000200160009091909190916101000a81548173ffffffffffffffffffffffffffffffffffffffff021916908373ffffffffffffffffffffffffffffffffffffffff1602179055505050565b60608060608060006060600660008873ffffffffffffffffffffffffffffffffffffffff1673ffffffffffffffffffffffffffffffffffffffff168152602001908152602001600020600101600660008973ffffffffffffffffffffffffffffffffffffffff1673ffffffffffffffffffffffffffffffffffffffff168152602001908152602001600020600201600660008a73ffffffffffffffffffffffffffffffffffffffff1673ffffffffffffffffffffffffffffffffffffffff168152602001908152602001600020600301600660008b73ffffffffffffffffffffffffffffffffffffffff1673ffffffffffffffffffffffffffffffffffffffff168152602001908152602001600020600401600660008c73ffffffffffffffffffffffffffffffffffffffff1673ffffffffffffffffffffffffffffffffffffffff16815260200190815260200160002060060160009054906101000a900473ffffffffffffffffffffffffffffffffffffffff16600660008d73ffffffffffffffffffffffffffffffffffffffff1673ffffffffffffffffffffffffffffffffffffffff168152602001908152602001600020600701858054612f31906152b4565b80601f0160208091040260200160405190810160405280929190818152602001828054612f5d906152b4565b8015612faa5780601f10612f7f57610100808354040283529160200191612faa565b820191906000526020600020905b815481529060010190602001808311612f8d57829003601f168201915b50505050509550848054612fbd906152b4565b80601f0160208091040260200160405190810160405280929190818152602001828054612fe9906152b4565b80156130365780601f1061300b57610100808354040283529160200191613036565b820191906000526020600020905b81548152906001019060200180831161301957829003601f168201915b50505050509450838054613049906152b4565b80601f0160208091040260200160405190810160405280929190818152602001828054613075906152b4565b80156130c25780601f10613097576101008083540402835291602001916130c2565b820191906000526020600020905b8154815290600101906020018083116130a557829003601f168201915b505050505093508280546130d5906152b4565b80601f0160208091040260200160405190810160405280929190818152602001828054613101906152b4565b801561314e5780601f106131235761010080835404028352916020019161314e565b820191906000526020600020905b81548152906001019060200180831161313157829003601f168201915b50505050509250808054613161906152b4565b80601f016020809104026020016040519081016040528092919081815260200182805461318d906152b4565b80156131da5780601f106131af576101008083540402835291602001916131da565b820191906000526020600020905b8154815290600101906020018083116131bd57829003601f168201915b5050505050905095509550955095509550955091939550919395565b60608060608060608573ffffffffffffffffffffffffffffffffffffffff16600560008873ffffffffffffffffffffffffffffffffffffffff1673ffffffffffffffffffffffffffffffffffffffff16815260200190815260200160002060000160009054906101000a900473ffffffffffffffffffffffffffffffffffffffff1673ffffffffffffffffffffffffffffffffffffffff16146132ce576040517f08c379a00000000000000000000000000000000000000000000000000000000081526004016132c5906154ce565b60405180910390fd5b600560008773ffffffffffffffffffffffffffffffffffffffff1673ffffffffffffffffffffffffffffffffffffffff16815260200190815260200160002060030160009054906101000a900460ff1661335d576040517f08c379a000000000000000000000000000000000000000000000000000000000815260040161335490615612565b60405180910390fd5b600560008773ffffffffffffffffffffffffffffffffffffffff1673ffffffffffffffffffffffffffffffffffffffff168152602001908152602001600020600101600560008873ffffffffffffffffffffffffffffffffffffffff1673ffffffffffffffffffffffffffffffffffffffff168152602001908152602001600020600201600560008973ffffffffffffffffffffffffffffffffffffffff1673ffffffffffffffffffffffffffffffffffffffff168152602001908152602001600020600401805490506040516020016134379190615653565b604051602081830303815290604052600560008a73ffffffffffffffffffffffffffffffffffffffff1673ffffffffffffffffffffffffffffffffffffffff16815260200190815260200160002060000160009054906101000a900473ffffffffffffffffffffffffffffffffffffffff166040516020016134b991906156b6565b604051602081830303815290604052600560008b73ffffffffffffffffffffffffffffffffffffffff1673ffffffffffffffffffffffffffffffffffffffff1681526020019081526020016000206004018054905060405160200161351e9190615653565b604051602081830303815290604052848054613539906152b4565b80601f0160208091040260200160405190810160405280929190818152602001828054613565906152b4565b80156135b25780601f10613587576101008083540402835291602001916135b2565b820191906000526020600020905b81548152906001019060200180831161359557829003601f168201915b505050505094508380546135c5906152b4565b80601f01602080910402602001604051908101604052809291908181526020018280546135f1906152b4565b801561363e5780601f106136135761010080835404028352916020019161363e565b820191906000526020600020905b81548152906001019060200180831161362157829003601f168201915b505050505093509450945094509450945091939590929450565b3373ffffffffffffffffffffffffffffffffffffffff16600560003373ffffffffffffffffffffffffffffffffffffffff1673ffffffffffffffffffffffffffffffffffffffff16815260200190815260200160002060000160009054906101000a900473ffffffffffffffffffffffffffffffffffffffff1673ffffffffffffffffffffffffffffffffffffffff1614613728576040517f08c379a000000000000000000000000000000000000000000000000000000000815260040161371f906154ce565b60405180910390fd5b6040518060400160405280600481526020017f7472756500000000000000000000000000000000000000000000000000000000815250600660008373ffffffffffffffffffffffffffffffffffffffff1673ffffffffffffffffffffffffffffffffffffffff16815260200190815260200160002060050190805190602001906137b3929190614366565b5050565b3373ffffffffffffffffffffffffffffffffffffffff16600660003373ffffffffffffffffffffffffffffffffffffffff1673ffffffffffffffffffffffffffffffffffffffff16815260200190815260200160002060000160009054906101000a900473ffffffffffffffffffffffffffffffffffffffff1673ffffffffffffffffffffffffffffffffffffffff1614613887576040517f08c379a000000000000000000000000000000000000000000000000000000000815260040161387e90615743565b60405180910390fd5b8273ffffffffffffffffffffffffffffffffffffffff16600660008573ffffffffffffffffffffffffffffffffffffffff1673ffffffffffffffffffffffffffffffffffffffff16815260200190815260200160002060000160009054906101000a900473ffffffffffffffffffffffffffffffffffffffff1673ffffffffffffffffffffffffffffffffffffffff1614613957576040517f08c379a000000000000000000000000000000000000000000000000000000000815260040161394e906157af565b60405180910390fd5b60405160200161396690615826565b60405160208183030381529060405280519060200120600660008573ffffffffffffffffffffffffffffffffffffffff1673ffffffffffffffffffffffffffffffffffffffff1681526020019081526020016000206005016040516020016139ce91906158cf565b6040516020818303038152906040528051906020012014613a24576040517f08c379a0000000000000000000000000000000000000000000000000000000008152600401613a1b90615932565b60405180910390fd5b3373ffffffffffffffffffffffffffffffffffffffff16600560003373ffffffffffffffffffffffffffffffffffffffff1673ffffffffffffffffffffffffffffffffffffffff16815260200190815260200160002060000160009054906101000a900473ffffffffffffffffffffffffffffffffffffffff1673ffffffffffffffffffffffffffffffffffffffff161415613af5576040517f08c379a0000000000000000000000000000000000000000000000000000000008152600401613aec9061599e565b60405180910390fd5b8273ffffffffffffffffffffffffffffffffffffffff16600560008573ffffffffffffffffffffffffffffffffffffffff1673ffffffffffffffffffffffffffffffffffffffff16815260200190815260200160002060000160009054906101000a900473ffffffffffffffffffffffffffffffffffffffff1673ffffffffffffffffffffffffffffffffffffffff161415613bc6576040517f08c379a0000000000000000000000000000000000000000000000000000000008152600401613bbd90615a0a565b60405180910390fd5b600760405180608001604052803373ffffffffffffffffffffffffffffffffffffffff1681526020018573ffffffffffffffffffffffffffffffffffffffff16815260200184815260200183815250908060018154018082558091505060019003906000526020600020906004020160009091909190915060008201518160000160006101000a81548173ffffffffffffffffffffffffffffffffffffffff021916908373ffffffffffffffffffffffffffffffffffffffff16021790555060208201518160010160006101000a81548173ffffffffffffffffffffffffffffffffffffffff021916908373ffffffffffffffffffffffffffffffffffffffff160217905550604082015181600201556060820151816003019080519060200190613cf2929190614366565b50505060086000815480929190613d0890615439565b9190505550505050565b60603373ffffffffffffffffffffffffffffffffffffffff16600660003373ffffffffffffffffffffffffffffffffffffffff1673ffffffffffffffffffffffffffffffffffffffff16815260200190815260200160002060000160009054906101000a900473ffffffffffffffffffffffffffffffffffffffff1673ffffffffffffffffffffffffffffffffffffffff1614613de4576040517f08c379a0000000000000000000000000000000000000000000000000000000008152600401613ddb90615743565b60405180910390fd5b600060085467ffffffffffffffff811115613e0257613e01614bc6565b5b604051908082528060200260200182016040528015613e3b57816020015b613e286144d7565b815260200190600190039081613e205790505b5090506000805b6008548110156140f5573373ffffffffffffffffffffffffffffffffffffffff1660078281548110613e7757613e76615378565b5b906000526020600020906004020160000160009054906101000a900473ffffffffffffffffffffffffffffffffffffffff1673ffffffffffffffffffffffffffffffffffffffff161480613f3b57503373ffffffffffffffffffffffffffffffffffffffff1660078281548110613ef157613ef0615378565b5b906000526020600020906004020160010160009054906101000a900473ffffffffffffffffffffffffffffffffffffffff1673ffffffffffffffffffffffffffffffffffffffff16145b156140e25760078181548110613f5457613f53615378565b5b90600052602060002090600402016040518060800160405290816000820160009054906101000a900473ffffffffffffffffffffffffffffffffffffffff1673ffffffffffffffffffffffffffffffffffffffff1673ffffffffffffffffffffffffffffffffffffffff1681526020016001820160009054906101000a900473ffffffffffffffffffffffffffffffffffffffff1673ffffffffffffffffffffffffffffffffffffffff1673ffffffffffffffffffffffffffffffffffffffff16815260200160028201548152602001600382018054614033906152b4565b80601f016020809104026020016040519081016040528092919081815260200182805461405f906152b4565b80156140ac5780601f10614081576101008083540402835291602001916140ac565b820191906000526020600020905b81548152906001019060200180831161408f57829003601f168201915b5050505050815250508383815181106140c8576140c7615378565b5b602002602001018190525081806140de90615439565b9250505b80806140ed90615439565b915050613e42565b50819250505090565b60603373ffffffffffffffffffffffffffffffffffffffff16600560003373ffffffffffffffffffffffffffffffffffffffff1673ffffffffffffffffffffffffffffffffffffffff16815260200190815260200160002060000160009054906101000a900473ffffffffffffffffffffffffffffffffffffffff1673ffffffffffffffffffffffffffffffffffffffff16146141d0576040517f08c379a00000000000000000000000000000000000000000000000000000000081526004016141c7906154ce565b60405180910390fd5b600560003373ffffffffffffffffffffffffffffffffffffffff1673ffffffffffffffffffffffffffffffffffffffff16815260200190815260200160002060040180548060200260200160405190810160405280929190818152602001828054801561429257602002820191906000526020600020905b8160009054906101000a900473ffffffffffffffffffffffffffffffffffffffff1673ffffffffffffffffffffffffffffffffffffffff1681526020019060010190808311614248575b5050505050905090565b60008054906101000a900473ffffffffffffffffffffffffffffffffffffffff1681565b600060016040516020016142d491906158cf565b60405160208183030381529060405280519060200120826040516020016142fb9190615a5b565b60405160208183030381529060405280519060200120149050919050565b60045481565b6040518060a00160405280600073ffffffffffffffffffffffffffffffffffffffff1681526020016060815260200160608152602001600015158152602001606081525090565b828054614372906152b4565b90600052602060002090601f01602090048101928261439457600085556143db565b82601f106143ad57805160ff19168380011785556143db565b828001600101855582156143db579182015b828111156143da5782518255916020019190600101906143bf565b5b5090506143e8919061452b565b5090565b5080546143f8906152b4565b6000825580601f1061440a5750614429565b601f016020900490600052602060002090810190614428919061452b565b5b50565b508054600082559060005260206000209081019061444a919061452b565b50565b8280548282559060005260206000209081019282156144c6579160200282015b828111156144c55782518260006101000a81548173ffffffffffffffffffffffffffffffffffffffff021916908373ffffffffffffffffffffffffffffffffffffffff1602179055509160200191906001019061446d565b5b5090506144d3919061452b565b5090565b6040518060800160405280600073ffffffffffffffffffffffffffffffffffffffff168152602001600073ffffffffffffffffffffffffffffffffffffffff16815260200160008152602001606081525090565b5b8082111561454457600081600090555060010161452c565b5090565b600081519050919050565b600082825260208201905092915050565b60005b83811015614582578082015181840152602081019050614567565b83811115614591576000848401525b50505050565b6000601f19601f8301169050919050565b60006145b382614548565b6145bd8185614553565b93506145cd818560208601614564565b6145d681614597565b840191505092915050565b600060208201905081810360008301526145fb81846145a8565b905092915050565b6000604051905090565b600080fd5b600080fd5b600073ffffffffffffffffffffffffffffffffffffffff82169050919050565b600061464282614617565b9050919050565b61465281614637565b811461465d57600080fd5b50565b60008135905061466f81614649565b92915050565b60006020828403121561468b5761468a61460d565b5b600061469984828501614660565b91505092915050565b60008115159050919050565b6146b7816146a2565b82525050565b600060608201905081810360008301526146d781866145a8565b905081810360208301526146eb81856145a8565b90506146fa60408301846146ae565b949350505050565b600081519050919050565b600082825260208201905092915050565b6000819050602082019050919050565b61473781614637565b82525050565b6000614749838361472e565b60208301905092915050565b6000602082019050919050565b600061476d82614702565b614777818561470d565b93506147828361471e565b8060005b838110156147b357815161479a888261473d565b97506147a583614755565b925050600181019050614786565b5085935050505092915050565b600060208201905081810360008301526147da8184614762565b905092915050565b6000819050919050565b6147f5816147e2565b82525050565b600060208201905061481060008301846147ec565b92915050565b61481f81614637565b82525050565b60006101008201905061483b600083018b614816565b818103602083015261484d818a6145a8565b9050818103604083015261486181896145a8565b9050818103606083015261487581886145a8565b9050818103608083015261488981876145a8565b905081810360a083015261489d81866145a8565b90506148ac60c0830185614816565b81810360e08301526148be81846145a8565b90509998505050505050505050565b60006040820190506148e26000830185614816565b81810360208301526148f481846145a8565b90509392505050565b600060208201905061491260008301846146ae565b92915050565b600081519050919050565b600082825260208201905092915050565b6000819050602082019050919050565b600082825260208201905092915050565b600061496082614548565b61496a8185614944565b935061497a818560208601614564565b61498381614597565b840191505092915050565b614997816146a2565b82525050565b600082825260208201905092915050565b60006149b982614702565b6149c3818561499d565b93506149ce8361471e565b8060005b838110156149ff5781516149e6888261473d565b97506149f183614755565b9250506001810190506149d2565b5085935050505092915050565b600060a083016000830151614a24600086018261472e565b5060208301518482036020860152614a3c8282614955565b91505060408301518482036040860152614a568282614955565b9150506060830151614a6b606086018261498e565b5060808301518482036080860152614a8382826149ae565b9150508091505092915050565b6000614a9c8383614a0c565b905092915050565b6000602082019050919050565b6000614abc82614918565b614ac68185614923565b935083602082028501614ad885614934565b8060005b85811015614b145784840389528151614af58582614a90565b9450614b0083614aa4565b925060208a01995050600181019050614adc565b50829750879550505050505092915050565b60006020820190508181036000830152614b408184614ab1565b905092915050565b614b51816147e2565b8114614b5c57600080fd5b50565b600081359050614b6e81614b48565b92915050565b600060208284031215614b8a57614b8961460d565b5b6000614b9884828501614b5f565b91505092915050565b6000602082019050614bb66000830184614816565b92915050565b600080fd5b600080fd5b7f4e487b7100000000000000000000000000000000000000000000000000000000600052604160045260246000fd5b614bfe82614597565b810181811067ffffffffffffffff82111715614c1d57614c1c614bc6565b5b80604052505050565b6000614c30614603565b9050614c3c8282614bf5565b919050565b600067ffffffffffffffff821115614c5c57614c5b614bc6565b5b614c6582614597565b9050602081019050919050565b82818337600083830152505050565b6000614c94614c8f84614c41565b614c26565b905082815260208101848484011115614cb057614caf614bc1565b5b614cbb848285614c72565b509392505050565b600082601f830112614cd857614cd7614bbc565b5b8135614ce8848260208601614c81565b91505092915050565b60008060408385031215614d0857614d0761460d565b5b6000614d1685828601614660565b925050602083013567ffffffffffffffff811115614d3757614d36614612565b5b614d4385828601614cc3565b9150509250929050565b6000608082019050614d626000830187614816565b8181036020830152614d7481866145a8565b90508181036040830152614d8881856145a8565b9050614d9760608301846146ae565b95945050505050565b60008060008060008060c08789031215614dbd57614dbc61460d565b5b600087013567ffffffffffffffff811115614ddb57614dda614612565b5b614de789828a01614cc3565b965050602087013567ffffffffffffffff811115614e0857614e07614612565b5b614e1489828a01614cc3565b955050604087013567ffffffffffffffff811115614e3557614e34614612565b5b614e4189828a01614cc3565b945050606087013567ffffffffffffffff811115614e6257614e61614612565b5b614e6e89828a01614cc3565b9350506080614e7f89828a01614660565b92505060a087013567ffffffffffffffff811115614ea057614e9f614612565b5b614eac89828a01614cc3565b9150509295509295509295565b600081519050919050565b600082825260208201905092915050565b6000819050602082019050919050565b614eee816147e2565b82525050565b6000608083016000830151614f0c600086018261472e565b506020830151614f1f602086018261472e565b506040830151614f326040860182614ee5565b5060608301518482036060860152614f4a8282614955565b9150508091505092915050565b6000614f638383614ef4565b905092915050565b6000602082019050919050565b6000614f8382614eb9565b614f8d8185614ec4565b935083602082028501614f9f85614ed5565b8060005b85811015614fdb5784840389528151614fbc8582614f57565b9450614fc783614f6b565b925060208a01995050600181019050614fa3565b50829750879550505050505092915050565b600060208201905081810360008301526150078184614f78565b905092915050565b60006080820190506150246000830187614816565b6150316020830186614816565b61503e60408301856147ec565b818103606083015261505081846145a8565b905095945050505050565b600080604083850312156150725761507161460d565b5b600083013567ffffffffffffffff8111156150905761508f614612565b5b61509c85828601614cc3565b925050602083013567ffffffffffffffff8111156150bd576150bc614612565b5b6150c985828601614cc3565b9150509250929050565b600060c08201905081810360008301526150ed81896145a8565b9050818103602083015261510181886145a8565b9050818103604083015261511581876145a8565b9050818103606083015261512981866145a8565b90506151386080830185614816565b81810360a083015261514a81846145a8565b9050979650505050505050565b600060a082019050818103600083015261517181886145a8565b9050818103602083015261518581876145a8565b9050818103604083015261519981866145a8565b905081810360608301526151ad81856145a8565b905081810360808301526151c181846145a8565b90509695505050505050565b6000806000606084860312156151e6576151e561460d565b5b60006151f486828701614660565b935050602061520586828701614b5f565b925050604084013567ffffffffffffffff81111561522657615225614612565b5b61523286828701614cc3565b9150509250925092565b6000602082840312156152525761525161460d565b5b600082013567ffffffffffffffff8111156152705761526f614612565b5b61527c84828501614cc3565b91505092915050565b7f4e487b7100000000000000000000000000000000000000000000000000000000600052602260045260246000fd5b600060028204905060018216806152cc57607f821691505b602082108114156152e0576152df615285565b5b50919050565b7f4f6e6c792061646d696e2063616e2063616c6c20746869732066756e6374696f60008201527f6e00000000000000000000000000000000000000000000000000000000000000602082015250565b6000615342602183614553565b915061534d826152e6565b604082019050919050565b6000602082019050818103600083015261537181615335565b9050919050565b7f4e487b7100000000000000000000000000000000000000000000000000000000600052603260045260246000fd5b7f4e487b7100000000000000000000000000000000000000000000000000000000600052601160045260246000fd5b60006153e1826147e2565b91506153ec836147e2565b9250828210156153ff576153fe6153a7565b5b828203905092915050565b7f4e487b7100000000000000000000000000000000000000000000000000000000600052603160045260246000fd5b6000615444826147e2565b91507fffffffffffffffffffffffffffffffffffffffffffffffffffffffffffffffff821415615477576154766153a7565b5b600182019050919050565b7f4f6e6c792062616e6b2063616e2063616c6c20746869732066756e6374696f6e600082015250565b60006154b8602083614553565b91506154c382615482565b602082019050919050565b600060208201905081810360008301526154e7816154ab565b9050919050565b7f437573746f6d657220616c726561647920657869737473000000000000000000600082015250565b6000615524601783614553565b915061552f826154ee565b602082019050919050565b6000602082019050818103600083015261555381615517565b9050919050565b7f42616e6b20616c72656164792065786973747300000000000000000000000000600082015250565b6000615590601383614553565b915061559b8261555a565b602082019050919050565b600060208201905081810360008301526155bf81615583565b9050919050565b7f42616e6b206e6f74207665726966696564000000000000000000000000000000600082015250565b60006155fc601183614553565b9150615607826155c6565b602082019050919050565b6000602082019050818103600083015261562b816155ef565b9050919050565b6000819050919050565b61564d615648826147e2565b615632565b82525050565b600061565f828461563c565b60208201915081905092915050565b60008160601b9050919050565b60006156868261566e565b9050919050565b60006156988261567b565b9050919050565b6156b06156ab82614637565b61568d565b82525050565b60006156c2828461569f565b60148201915081905092915050565b7f4f6e6c7920637573746f6d65722063616e2063616c6c20746869732066756e6360008201527f74696f6e00000000000000000000000000000000000000000000000000000000602082015250565b600061572d602483614553565b9150615738826156d1565b604082019050919050565b6000602082019050818103600083015261575c81615720565b9050919050565b7f526563697069656e7420646f6573206e6f742065786973740000000000000000600082015250565b6000615799601883614553565b91506157a482615763565b602082019050919050565b600060208201905081810360008301526157c88161578c565b9050919050565b600081905092915050565b7f7472756500000000000000000000000000000000000000000000000000000000600082015250565b60006158106004836157cf565b915061581b826157da565b600482019050919050565b600061583182615803565b9150819050919050565b60008190508160005260206000209050919050565b6000815461585d816152b4565b61586781866157cf565b945060018216600081146158825760018114615893576158c6565b60ff198316865281860193506158c6565b61589c8561583b565b60005b838110156158be5781548189015260018201915060208101905061589f565b838801955050505b50505092915050565b60006158db8284615850565b915081905092915050565b7f526563697069656e74206e6f7420766572696669656400000000000000000000600082015250565b600061591c601683614553565b9150615927826158e6565b602082019050919050565b6000602082019050818103600083015261594b8161590f565b9050919050565b7f53656e6465722063616e6e6f7420626520612062616e6b000000000000000000600082015250565b6000615988601783614553565b915061599382615952565b602082019050919050565b600060208201905081810360008301526159b78161597b565b9050919050565b7f526563697069656e742063616e6e6f7420626520612062616e6b000000000000600082015250565b60006159f4601a83614553565b91506159ff826159be565b602082019050919050565b60006020820190508181036000830152615a23816159e7565b9050919050565b6000615a3582614548565b615a3f81856157cf565b9350615a4f818560208601614564565b80840191505092915050565b6000615a678284615a2a565b91508190509291505056fea26469706673582212204ec8b6e5be72ac8019a5f86b3a87df4bea8bcc17e7ee4abd04fe0da0f9edb42464736f6c63430008090033",
  "linkReferences": {},
  "deployedLinkReferences": {}
}