{
  "_format": "hh-sol-artifact-1",
  "contractName": "KYC",
  "sourceName": "contracts/KYC.sol",
  "abi": [
    {
      "inputs": [
        {
          "internalType": "string",
          "name": "_password",
          "type": "string"
        }
      ],
      "stateMutability": "nonpayable",
      "type": "constructor"
    },
    {
      "inputs": [
        {
          "internalType": "address",
          "name": "_address",
          "type": "address"
        }
      ],
      "name": "addCustomer",
      "outputs": [],
      "stateMutability": "nonpayable",
      "type": "function"
    },
    {
      "inputs": [],
      "name": "admin_address",
      "outputs": [
        {
          "internalType": "address",
          "name": "",
          "type": "address"
        }
      ],
      "stateMutability": "view",
      "type": "function"
    },
    {
      "inputs": [],
      "name": "admin_password",
      "outputs": [
        {
          "internalType": "string",
          "name": "",
          "type": "string"
        }
      ],
      "stateMutability": "view",
      "type": "function"
    },
    {
      "inputs": [
        {
          "internalType": "address",
          "name": "",
          "type": "address"
        }
      ],
      "name": "admins",
      "outputs": [
        {
          "internalType": "address",
          "name": "adminAddress",
          "type": "address"
        },
        {
          "internalType": "string",
          "name": "adminName",
          "type": "string"
        }
      ],
      "stateMutability": "view",
      "type": "function"
    },
    {
      "inputs": [],
      "name": "bankCount",
      "outputs": [
        {
          "internalType": "uint256",
          "name": "",
          "type": "uint256"
        }
      ],
      "stateMutability": "view",
      "type": "function"
    },
    {
      "inputs": [
        {
          "internalType": "uint256",
          "name": "",
          "type": "uint256"
        }
      ],
      "name": "bankRequests",
      "outputs": [
        {
          "internalType": "address",
          "name": "",
          "type": "address"
        }
      ],
      "stateMutability": "view",
      "type": "function"
    },
    {
      "inputs": [
        {
          "internalType": "address",
          "name": "",
          "type": "address"
        }
      ],
      "name": "banks",
      "outputs": [
        {
          "internalType": "address",
          "name": "bankAddress",
          "type": "address"
        },
        {
          "internalType": "string",
          "name": "bankName",
          "type": "string"
        },
        {
          "internalType": "string",
          "name": "regNumber",
          "type": "string"
        },
        {
          "internalType": "bool",
          "name": "isVerified",
          "type": "bool"
        }
      ],
      "stateMutability": "view",
      "type": "function"
    },
    {
      "inputs": [
        {
          "internalType": "address",
          "name": "_address",
          "type": "address"
        }
      ],
      "name": "compareAdminAddress",
      "outputs": [
        {
          "internalType": "bool",
          "name": "",
          "type": "bool"
        }
      ],
      "stateMutability": "view",
      "type": "function"
    },
    {
      "inputs": [
        {
          "internalType": "string",
          "name": "_password",
          "type": "string"
        }
      ],
      "name": "comparePassword",
      "outputs": [
        {
          "internalType": "bool",
          "name": "",
          "type": "bool"
        }
      ],
      "stateMutability": "view",
      "type": "function"
    },
    {
      "inputs": [
        {
          "internalType": "string",
          "name": "_name",
          "type": "string"
        },
        {
          "internalType": "string",
          "name": "_regNumber",
          "type": "string"
        }
      ],
      "name": "createBank",
      "outputs": [],
      "stateMutability": "nonpayable",
      "type": "function"
    },
    {
      "inputs": [
        {
          "internalType": "string",
          "name": "_name",
          "type": "string"
        },
        {
          "internalType": "string",
          "name": "_email",
          "type": "string"
        },
        {
          "internalType": "string",
          "name": "_password",
          "type": "string"
        },
        {
          "internalType": "string",
          "name": "_data",
          "type": "string"
        },
        {
          "internalType": "address",
          "name": "_bankAddress",
          "type": "address"
        },
        {
          "internalType": "string",
          "name": "_balance",
          "type": "string"
        }
      ],
      "name": "createCustomer",
      "outputs": [],
      "stateMutability": "nonpayable",
      "type": "function"
    },
    {
      "inputs": [
        {
          "internalType": "address",
          "name": "_to",
          "type": "address"
        },
        {
          "internalType": "uint256",
          "name": "_amount",
          "type": "uint256"
        },
        {
          "internalType": "string",
          "name": "_data",
          "type": "string"
        }
      ],
      "name": "createTransaction",
      "outputs": [],
      "stateMutability": "nonpayable",
      "type": "function"
    },
    {
      "inputs": [
        {
          "internalType": "address",
          "name": "",
          "type": "address"
        }
      ],
      "name": "customers",
      "outputs": [
        {
          "internalType": "address",
          "name": "customerAddress",
          "type": "address"
        },
        {
          "internalType": "string",
          "name": "customerName",
          "type": "string"
        },
        {
          "internalType": "string",
          "name": "customerEmail",
          "type": "string"
        },
        {
          "internalType": "string",
          "name": "password",
          "type": "string"
        },
        {
          "internalType": "string",
          "name": "customerData",
          "type": "string"
        },
        {
          "internalType": "string",
          "name": "isVerified",
          "type": "string"
        },
        {
          "internalType": "address",
          "name": "bankAddress",
          "type": "address"
        },
        {
          "internalType": "string",
          "name": "balance",
          "type": "string"
        }
      ],
      "stateMutability": "view",
      "type": "function"
    },
    {
      "inputs": [],
      "name": "getBankCount",
      "outputs": [
        {
          "internalType": "uint256",
          "name": "",
          "type": "uint256"
        }
      ],
      "stateMutability": "view",
      "type": "function"
    },
    {
      "inputs": [
        {
          "internalType": "address",
          "name": "_address",
          "type": "address"
        }
      ],
      "name": "getBankDetails",
      "outputs": [
        {
          "internalType": "string",
          "name": "",
          "type": "string"
        },
        {
          "internalType": "string",
          "name": "",
          "type": "string"
        },
        {
          "internalType": "bool",
          "name": "",
          "type": "bool"
        }
      ],
      "stateMutability": "view",
      "type": "function"
    },
    {
      "inputs": [],
      "name": "getBankRequests",
      "outputs": [
        {
          "internalType": "address[]",
          "name": "",
          "type": "address[]"
        }
      ],
      "stateMutability": "view",
      "type": "function"
    },
    {
      "inputs": [],
      "name": "getBankRequestsAllData",
      "outputs": [
        {
          "components": [
            {
              "internalType": "address",
              "name": "bankAddress",
              "type": "address"
            },
            {
              "internalType": "string",
              "name": "bankName",
              "type": "string"
            },
            {
              "internalType": "string",
              "name": "regNumber",
              "type": "string"
            },
            {
              "internalType": "bool",
              "name": "isVerified",
              "type": "bool"
            },
            {
              "internalType": "address[]",
              "name": "customers",
              "type": "address[]"
            }
          ],
          "internalType": "struct KYC.Bank[]",
          "name": "",
          "type": "tuple[]"
        }
      ],
      "stateMutability": "view",
      "type": "function"
    },
    {
      "inputs": [],
      "name": "getBankRequestsCount",
      "outputs": [
        {
          "internalType": "uint256",
          "name": "",
          "type": "uint256"
        }
      ],
      "stateMutability": "view",
      "type": "function"
    },
    {
      "inputs": [
        {
          "internalType": "address",
          "name": "_address",
          "type": "address"
        }
      ],
      "name": "getCustomer",
      "outputs": [
        {
          "internalType": "string",
          "name": "",
          "type": "string"
        },
        {
          "internalType": "string",
          "name": "",
          "type": "string"
        },
        {
          "internalType": "string",
          "name": "",
          "type": "string"
        },
        {
          "internalType": "string",
          "name": "",
          "type": "string"
        },
        {
          "internalType": "address",
          "name": "",
          "type": "address"
        },
        {
          "internalType": "string",
          "name": "",
          "type": "string"
        }
      ],
      "stateMutability": "view",
      "type": "function"
    },
    {
      "inputs": [],
      "name": "getCustomerTransaction",
      "outputs": [
        {
          "components": [
            {
              "internalType": "address",
              "name": "from",
              "type": "address"
            },
            {
              "internalType": "address",
              "name": "to",
              "type": "address"
            },
            {
              "internalType": "uint256",
              "name": "amount",
              "type": "uint256"
            },
            {
              "internalType": "string",
              "name": "transactionData",
              "type": "string"
            }
          ],
          "internalType": "struct KYC.Transaction[]",
          "name": "",
          "type": "tuple[]"
        }
      ],
      "stateMutability": "view",
      "type": "function"
    },
    {
      "inputs": [],
      "name": "getCustomers",
      "outputs": [
        {
          "internalType": "address[]",
          "name": "",
          "type": "address[]"
        }
      ],
      "stateMutability": "view",
      "type": "function"
    },
    {
      "inputs": [],
      "name": "getTransactionCount",
      "outputs": [
        {
          "internalType": "uint256",
          "name": "",
          "type": "uint256"
        }
      ],
      "stateMutability": "view",
      "type": "function"
    },
    {
      "inputs": [],
      "name": "getTransactions",
      "outputs": [
        {
          "components": [
            {
              "internalType": "address",
              "name": "from",
              "type": "address"
            },
            {
              "internalType": "address",
              "name": "to",
              "type": "address"
            },
            {
              "internalType": "uint256",
              "name": "amount",
              "type": "uint256"
            },
            {
              "internalType": "string",
              "name": "transactionData",
              "type": "string"
            }
          ],
          "internalType": "struct KYC.Transaction[]",
          "name": "",
          "type": "tuple[]"
        }
      ],
      "stateMutability": "view",
      "type": "function"
    },
    {
      "inputs": [],
      "name": "getVerifiedBanks",
      "outputs": [
        {
          "components": [
            {
              "internalType": "address",
              "name": "bankAddress",
              "type": "address"
            },
            {
              "internalType": "string",
              "name": "bankName",
              "type": "string"
            },
            {
              "internalType": "string",
              "name": "regNumber",
              "type": "string"
            },
            {
              "internalType": "bool",
              "name": "isVerified",
              "type": "bool"
            },
            {
              "internalType": "address[]",
              "name": "customers",
              "type": "address[]"
            }
          ],
          "internalType": "struct KYC.Bank[]",
          "name": "",
          "type": "tuple[]"
        }
      ],
      "stateMutability": "view",
      "type": "function"
    },
    {
      "inputs": [],
      "name": "transactionCount",
      "outputs": [
        {
          "internalType": "uint256",
          "name": "",
          "type": "uint256"
        }
      ],
      "stateMutability": "view",
      "type": "function"
    },
    {
      "inputs": [
        {
          "internalType": "uint256",
          "name": "",
          "type": "uint256"
        }
      ],
      "name": "transactions",
      "outputs": [
        {
          "internalType": "address",
          "name": "from",
          "type": "address"
        },
        {
          "internalType": "address",
          "name": "to",
          "type": "address"
        },
        {
          "internalType": "uint256",
          "name": "amount",
          "type": "uint256"
        },
        {
          "internalType": "string",
          "name": "transactionData",
          "type": "string"
        }
      ],
      "stateMutability": "view",
      "type": "function"
    },
    {
      "inputs": [
        {
          "internalType": "address",
          "name": "_address",
          "type": "address"
        },
        {
          "internalType": "string",
          "name": "_balance",
          "type": "string"
        }
      ],
      "name": "updateBalace",
      "outputs": [],
      "stateMutability": "nonpayable",
      "type": "function"
    },
    {
      "inputs": [
        {
          "internalType": "address",
          "name": "_address",
          "type": "address"
        }
      ],
      "name": "verifyBank",
      "outputs": [],
      "stateMutability": "nonpayable",
      "type": "function"
    },
    {
      "inputs": [
        {
          "internalType": "address",
          "name": "_address",
          "type": "address"
        }
      ],
      "name": "verifyCustomer",
      "outputs": [],
      "stateMutability": "nonpayable",
      "type": "function"
    }
  ],
  "bytecode": "0x60806040523480156200001157600080fd5b50604051620052f9380380620052f98339818101604052810190620000379190620003ec565b336000806101000a81548173ffffffffffffffffffffffffffffffffffffffff021916908373ffffffffffffffffffffffffffffffffffffffff16021790555080600190805190602001906200008f9291906200019f565b5060405180604001604052803373ffffffffffffffffffffffffffffffffffffffff1681526020016040518060400160405280600581526020017f41646d696e000000000000000000000000000000000000000000000000000000815250815250600260003373ffffffffffffffffffffffffffffffffffffffff1673ffffffffffffffffffffffffffffffffffffffff16815260200190815260200160002060008201518160000160006101000a81548173ffffffffffffffffffffffffffffffffffffffff021916908373ffffffffffffffffffffffffffffffffffffffff1602179055506020820151816001019080519060200190620001949291906200019f565b5090505050620004a2565b828054620001ad906200046c565b90600052602060002090601f016020900481019282620001d157600085556200021d565b82601f10620001ec57805160ff19168380011785556200021d565b828001600101855582156200021d579182015b828111156200021c578251825591602001919060010190620001ff565b5b5090506200022c919062000230565b5090565b5b808211156200024b57600081600090555060010162000231565b5090565b6000604051905090565b600080fd5b600080fd5b600080fd5b600080fd5b6000601f19601f8301169050919050565b7f4e487b7100000000000000000000000000000000000000000000000000000000600052604160045260246000fd5b620002b8826200026d565b810181811067ffffffffffffffff82111715620002da57620002d96200027e565b5b80604052505050565b6000620002ef6200024f565b9050620002fd8282620002ad565b919050565b600067ffffffffffffffff82111562000320576200031f6200027e565b5b6200032b826200026d565b9050602081019050919050565b60005b83811015620003585780820151818401526020810190506200033b565b8381111562000368576000848401525b50505050565b6000620003856200037f8462000302565b620002e3565b905082815260208101848484011115620003a457620003a362000268565b5b620003b184828562000338565b509392505050565b600082601f830112620003d157620003d062000263565b5b8151620003e38482602086016200036e565b91505092915050565b60006020828403121562000405576200040462000259565b5b600082015167ffffffffffffffff8111156200042657620004256200025e565b5b6200043484828501620003b9565b91505092915050565b7f4e487b7100000000000000000000000000000000000000000000000000000000600052602260045260246000fd5b600060028204905060018216806200048557607f821691505b602082108114156200049c576200049b6200043d565b5b50919050565b614e4780620004b26000396000f3fe608060405234801561001057600080fd5b50600436106101cf5760003560e01c8063833ee72011610104578063cb949e51116100a2578063f1ba712711610071578063f1ba712714610559578063f2e6277214610577578063f5bfe62214610595578063f879eb57146105c5576101cf565b8063cb949e51146104ce578063daa6b8f114610503578063e1f6048d1461051f578063e4da9ebc1461053b576101cf565b8063ad973d74116100de578063ad973d741461045a578063aebc2f0314610476578063b77bf60014610494578063b97eb2dd146104b2576101cf565b8063833ee720146103ed57806383920e90146104095780639ace38c214610427576101cf565b80634a5e9628116101715780636956686c1161014b5780636956686c146103645780636a505df4146103825780636da04e641461039e57806380c3b8c2146103ba576101cf565b80634a5e9628146102e657806352dffc96146103165780635ebbe30914610334576101cf565b80632e44715d116101ad5780632e44715d146102425780632e7700f014610260578063336989ae1461027e578063429b62e5146102b5576101cf565b8063101ad1c8146101d457806315101e02146101f25780632cc5c5f114610224575b600080fd5b6101dc6105e3565b6040516101e99190613b01565b60405180910390f35b61020c60048036038101906102079190613b95565b610671565b60405161021b93929190613bdd565b60405180910390f35b61022c61086f565b6040516102399190613ce0565b60405180910390f35b61024a61098b565b6040516102579190613d1b565b60405180910390f35b610268610a24565b6040516102759190613d1b565b60405180910390f35b61029860048036038101906102939190613b95565b610a2e565b6040516102ac989796959493929190613d45565b60405180910390f35b6102cf60048036038101906102ca9190613b95565b610de6565b6040516102dd929190613ded565b60405180910390f35b61030060048036038101906102fb9190613b95565b610eb2565b60405161030d9190613e1d565b60405180910390f35b61031e610f0b565b60405161032b9190614046565b60405180910390f35b61034e60048036038101906103499190614094565b61138d565b60405161035b91906140c1565b60405180910390f35b61036c6113cc565b6040516103799190614046565b60405180910390f35b61039c60048036038101906103979190614211565b6117ad565b005b6103b860048036038101906103b39190613b95565b6118d8565b005b6103d460048036038101906103cf9190613b95565b611b6a565b6040516103e4949392919061426d565b60405180910390f35b610407600480360381019061040291906142c0565b611cd7565b005b610411611fc9565b60405161041e919061450d565b60405180910390f35b610441600480360381019061043c9190614094565b612170565b604051610451949392919061452f565b60405180910390f35b610474600480360381019061046f9190613b95565b612278565b005b61047e6123ee565b60405161048b9190613d1b565b60405180910390f35b61049c61248a565b6040516104a99190613d1b565b60405180910390f35b6104cc60048036038101906104c7919061457b565b612490565b005b6104e860048036038101906104e39190613b95565b612751565b6040516104fa969594939291906145f3565b60405180910390f35b61051d60048036038101906105189190613b95565b612bd9565b005b61053960048036038101906105349190614677565b612d38565b005b610543613293565b604051610550919061450d565b60405180910390f35b61056161367f565b60405161056e9190613ce0565b60405180910390f35b61057f61381d565b60405161058c91906140c1565b60405180910390f35b6105af60048036038101906105aa91906146e6565b613841565b6040516105bc9190613e1d565b60405180910390f35b6105cd61389a565b6040516105da9190613d1b565b60405180910390f35b600180546105f09061475e565b80601f016020809104026020016040519081016040528092919081815260200182805461061c9061475e565b80156106695780601f1061063e57610100808354040283529160200191610669565b820191906000526020600020905b81548152906001019060200180831161064c57829003601f168201915b505050505081565b6060806000600560008573ffffffffffffffffffffffffffffffffffffffff1673ffffffffffffffffffffffffffffffffffffffff168152602001908152602001600020600101600560008673ffffffffffffffffffffffffffffffffffffffff1673ffffffffffffffffffffffffffffffffffffffff168152602001908152602001600020600201600560008773ffffffffffffffffffffffffffffffffffffffff1673ffffffffffffffffffffffffffffffffffffffff16815260200190815260200160002060030160009054906101000a900460ff168280546107569061475e565b80601f01602080910402602001604051908101604052809291908181526020018280546107829061475e565b80156107cf5780601f106107a4576101008083540402835291602001916107cf565b820191906000526020600020905b8154815290600101906020018083116107b257829003601f168201915b505050505092508180546107e29061475e565b80601f016020809104026020016040519081016040528092919081815260200182805461080e9061475e565b801561085b5780601f106108305761010080835404028352916020019161085b565b820191906000526020600020905b81548152906001019060200180831161083e57829003601f168201915b505050505091509250925092509193909250565b606060008054906101000a900473ffffffffffffffffffffffffffffffffffffffff1673ffffffffffffffffffffffffffffffffffffffff163373ffffffffffffffffffffffffffffffffffffffff16146108ff576040517f08c379a00000000000000000000000000000000000000000000000000000000081526004016108f690614802565b60405180910390fd5b600380548060200260200160405190810160405280929190818152602001828054801561098157602002820191906000526020600020905b8160009054906101000a900473ffffffffffffffffffffffffffffffffffffffff1673ffffffffffffffffffffffffffffffffffffffff1681526020019060010190808311610937575b5050505050905090565b60008060009054906101000a900473ffffffffffffffffffffffffffffffffffffffff1673ffffffffffffffffffffffffffffffffffffffff163373ffffffffffffffffffffffffffffffffffffffff1614610a1c576040517f08c379a0000000000000000000000000000000000000000000000000000000008152600401610a1390614802565b60405180910390fd5b600454905090565b6000600854905090565b60066020528060005260406000206000915090508060000160009054906101000a900473ffffffffffffffffffffffffffffffffffffffff1690806001018054610a779061475e565b80601f0160208091040260200160405190810160405280929190818152602001828054610aa39061475e565b8015610af05780601f10610ac557610100808354040283529160200191610af0565b820191906000526020600020905b815481529060010190602001808311610ad357829003601f168201915b505050505090806002018054610b059061475e565b80601f0160208091040260200160405190810160405280929190818152602001828054610b319061475e565b8015610b7e5780601f10610b5357610100808354040283529160200191610b7e565b820191906000526020600020905b815481529060010190602001808311610b6157829003601f168201915b505050505090806003018054610b939061475e565b80601f0160208091040260200160405190810160405280929190818152602001828054610bbf9061475e565b8015610c0c5780601f10610be157610100808354040283529160200191610c0c565b820191906000526020600020905b815481529060010190602001808311610bef57829003601f168201915b505050505090806004018054610c219061475e565b80601f0160208091040260200160405190810160405280929190818152602001828054610c4d9061475e565b8015610c9a5780601f10610c6f57610100808354040283529160200191610c9a565b820191906000526020600020905b815481529060010190602001808311610c7d57829003601f168201915b505050505090806005018054610caf9061475e565b80601f0160208091040260200160405190810160405280929190818152602001828054610cdb9061475e565b8015610d285780601f10610cfd57610100808354040283529160200191610d28565b820191906000526020600020905b815481529060010190602001808311610d0b57829003601f168201915b5050505050908060060160009054906101000a900473ffffffffffffffffffffffffffffffffffffffff1690806007018054610d639061475e565b80601f0160208091040260200160405190810160405280929190818152602001828054610d8f9061475e565b8015610ddc5780601f10610db157610100808354040283529160200191610ddc565b820191906000526020600020905b815481529060010190602001808311610dbf57829003601f168201915b5050505050905088565b60026020528060005260406000206000915090508060000160009054906101000a900473ffffffffffffffffffffffffffffffffffffffff1690806001018054610e2f9061475e565b80601f0160208091040260200160405190810160405280929190818152602001828054610e5b9061475e565b8015610ea85780601f10610e7d57610100808354040283529160200191610ea8565b820191906000526020600020905b815481529060010190602001808311610e8b57829003601f168201915b5050505050905082565b60008060009054906101000a900473ffffffffffffffffffffffffffffffffffffffff1673ffffffffffffffffffffffffffffffffffffffff168273ffffffffffffffffffffffffffffffffffffffff16149050919050565b606060008054906101000a900473ffffffffffffffffffffffffffffffffffffffff1673ffffffffffffffffffffffffffffffffffffffff163373ffffffffffffffffffffffffffffffffffffffff1614610f9b576040517f08c379a0000000000000000000000000000000000000000000000000000000008152600401610f9290614802565b60405180910390fd5b600060045467ffffffffffffffff811115610fb957610fb86140e6565b5b604051908082528060200260200182016040528015610ff257816020015b610fdf6138a0565b815260200190600190039081610fd75790505b5090506000805b60038054905081101561138457600560006003838154811061101e5761101d614822565b5b9060005260206000200160009054906101000a900473ffffffffffffffffffffffffffffffffffffffff1673ffffffffffffffffffffffffffffffffffffffff1673ffffffffffffffffffffffffffffffffffffffff16815260200190815260200160002060030160009054906101000a900460ff16156113715760056000600383815481106110b1576110b0614822565b5b9060005260206000200160009054906101000a900473ffffffffffffffffffffffffffffffffffffffff1673ffffffffffffffffffffffffffffffffffffffff1673ffffffffffffffffffffffffffffffffffffffff1681526020019081526020016000206040518060a00160405290816000820160009054906101000a900473ffffffffffffffffffffffffffffffffffffffff1673ffffffffffffffffffffffffffffffffffffffff1673ffffffffffffffffffffffffffffffffffffffff1681526020016001820180546111879061475e565b80601f01602080910402602001604051908101604052809291908181526020018280546111b39061475e565b80156112005780601f106111d557610100808354040283529160200191611200565b820191906000526020600020905b8154815290600101906020018083116111e357829003601f168201915b505050505081526020016002820180546112199061475e565b80601f01602080910402602001604051908101604052809291908181526020018280546112459061475e565b80156112925780601f1061126757610100808354040283529160200191611292565b820191906000526020600020905b81548152906001019060200180831161127557829003601f168201915b505050505081526020016003820160009054906101000a900460ff161515151581526020016004820180548060200260200160405190810160405280929190818152602001828054801561133b57602002820191906000526020600020905b8160009054906101000a900473ffffffffffffffffffffffffffffffffffffffff1673ffffffffffffffffffffffffffffffffffffffff16815260200190600101908083116112f1575b50505050508152505083838151811061135757611356614822565b5b6020026020010181905250818061136d90614880565b9250505b808061137c90614880565b915050610ff9565b50819250505090565b6003818154811061139d57600080fd5b906000526020600020016000915054906101000a900473ffffffffffffffffffffffffffffffffffffffff1681565b606060008054906101000a900473ffffffffffffffffffffffffffffffffffffffff1673ffffffffffffffffffffffffffffffffffffffff163373ffffffffffffffffffffffffffffffffffffffff161461145c576040517f08c379a000000000000000000000000000000000000000000000000000000000815260040161145390614802565b60405180910390fd5b600060038054905067ffffffffffffffff81111561147d5761147c6140e6565b5b6040519080825280602002602001820160405280156114b657816020015b6114a36138a0565b81526020019060019003908161149b5790505b50905060005b6003805490508110156117a55760056000600383815481106114e1576114e0614822565b5b9060005260206000200160009054906101000a900473ffffffffffffffffffffffffffffffffffffffff1673ffffffffffffffffffffffffffffffffffffffff1673ffffffffffffffffffffffffffffffffffffffff1681526020019081526020016000206040518060a00160405290816000820160009054906101000a900473ffffffffffffffffffffffffffffffffffffffff1673ffffffffffffffffffffffffffffffffffffffff1673ffffffffffffffffffffffffffffffffffffffff1681526020016001820180546115b79061475e565b80601f01602080910402602001604051908101604052809291908181526020018280546115e39061475e565b80156116305780601f1061160557610100808354040283529160200191611630565b820191906000526020600020905b81548152906001019060200180831161161357829003601f168201915b505050505081526020016002820180546116499061475e565b80601f01602080910402602001604051908101604052809291908181526020018280546116759061475e565b80156116c25780601f10611697576101008083540402835291602001916116c2565b820191906000526020600020905b8154815290600101906020018083116116a557829003601f168201915b505050505081526020016003820160009054906101000a900460ff161515151581526020016004820180548060200260200160405190810160405280929190818152602001828054801561176b57602002820191906000526020600020905b8160009054906101000a900473ffffffffffffffffffffffffffffffffffffffff1673ffffffffffffffffffffffffffffffffffffffff1681526020019060010190808311611721575b50505050508152505082828151811061178757611786614822565b5b6020026020010181905250808061179d90614880565b9150506114bc565b508091505090565b3373ffffffffffffffffffffffffffffffffffffffff16600560003373ffffffffffffffffffffffffffffffffffffffff1673ffffffffffffffffffffffffffffffffffffffff16815260200190815260200160002060000160009054906101000a900473ffffffffffffffffffffffffffffffffffffffff1673ffffffffffffffffffffffffffffffffffffffff161461187d576040517f08c379a000000000000000000000000000000000000000000000000000000000815260040161187490614915565b60405180910390fd5b80600660008473ffffffffffffffffffffffffffffffffffffffff1673ffffffffffffffffffffffffffffffffffffffff16815260200190815260200160002060070190805190602001906118d39291906138e7565b505050565b60008054906101000a900473ffffffffffffffffffffffffffffffffffffffff1673ffffffffffffffffffffffffffffffffffffffff163373ffffffffffffffffffffffffffffffffffffffff1614611966576040517f08c379a000000000000000000000000000000000000000000000000000000000815260040161195d90614802565b60405180910390fd5b6001600560008373ffffffffffffffffffffffffffffffffffffffff1673ffffffffffffffffffffffffffffffffffffffff16815260200190815260200160002060030160006101000a81548160ff021916908315150217905550600460008154809291906119d490614880565b919050555060005b600380549050811015611b66578173ffffffffffffffffffffffffffffffffffffffff1660038281548110611a1457611a13614822565b5b9060005260206000200160009054906101000a900473ffffffffffffffffffffffffffffffffffffffff1673ffffffffffffffffffffffffffffffffffffffff161415611b535760036001600380549050611a6f9190614935565b81548110611a8057611a7f614822565b5b9060005260206000200160009054906101000a900473ffffffffffffffffffffffffffffffffffffffff1660038281548110611abf57611abe614822565b5b9060005260206000200160006101000a81548173ffffffffffffffffffffffffffffffffffffffff021916908373ffffffffffffffffffffffffffffffffffffffff1602179055506003805480611b1957611b18614969565b5b6001900381819060005260206000200160006101000a81549073ffffffffffffffffffffffffffffffffffffffff02191690559055611b66565b8080611b5e90614880565b9150506119dc565b5050565b60056020528060005260406000206000915090508060000160009054906101000a900473ffffffffffffffffffffffffffffffffffffffff1690806001018054611bb39061475e565b80601f0160208091040260200160405190810160405280929190818152602001828054611bdf9061475e565b8015611c2c5780601f10611c0157610100808354040283529160200191611c2c565b820191906000526020600020905b815481529060010190602001808311611c0f57829003601f168201915b505050505090806002018054611c419061475e565b80601f0160208091040260200160405190810160405280929190818152602001828054611c6d9061475e565b8015611cba5780601f10611c8f57610100808354040283529160200191611cba565b820191906000526020600020905b815481529060010190602001808311611c9d57829003601f168201915b5050505050908060030160009054906101000a900460ff16905084565b3373ffffffffffffffffffffffffffffffffffffffff16600660003373ffffffffffffffffffffffffffffffffffffffff1673ffffffffffffffffffffffffffffffffffffffff16815260200190815260200160002060000160009054906101000a900473ffffffffffffffffffffffffffffffffffffffff1673ffffffffffffffffffffffffffffffffffffffff161415611da8576040517f08c379a0000000000000000000000000000000000000000000000000000000008152600401611d9f906149e4565b60405180910390fd5b6040518061010001604052803373ffffffffffffffffffffffffffffffffffffffff1681526020018781526020018681526020018581526020018481526020016040518060400160405280600581526020017f66616c736500000000000000000000000000000000000000000000000000000081525081526020018373ffffffffffffffffffffffffffffffffffffffff16815260200182815250600660003373ffffffffffffffffffffffffffffffffffffffff1673ffffffffffffffffffffffffffffffffffffffff16815260200190815260200160002060008201518160000160006101000a81548173ffffffffffffffffffffffffffffffffffffffff021916908373ffffffffffffffffffffffffffffffffffffffff1602179055506020820151816001019080519060200190611ee59291906138e7565b506040820151816002019080519060200190611f029291906138e7565b506060820151816003019080519060200190611f1f9291906138e7565b506080820151816004019080519060200190611f3c9291906138e7565b5060a0820151816005019080519060200190611f599291906138e7565b5060c08201518160060160006101000a81548173ffffffffffffffffffffffffffffffffffffffff021916908373ffffffffffffffffffffffffffffffffffffffff16021790555060e0820151816007019080519060200190611fbd9291906138e7565b50905050505050505050565b60606007805480602002602001604051908101604052809291908181526020016000905b8282101561216757838290600052602060002090600402016040518060800160405290816000820160009054906101000a900473ffffffffffffffffffffffffffffffffffffffff1673ffffffffffffffffffffffffffffffffffffffff1673ffffffffffffffffffffffffffffffffffffffff1681526020016001820160009054906101000a900473ffffffffffffffffffffffffffffffffffffffff1673ffffffffffffffffffffffffffffffffffffffff1673ffffffffffffffffffffffffffffffffffffffff168152602001600282015481526020016003820180546120d69061475e565b80601f01602080910402602001604051908101604052809291908181526020018280546121029061475e565b801561214f5780601f106121245761010080835404028352916020019161214f565b820191906000526020600020905b81548152906001019060200180831161213257829003601f168201915b50505050508152505081526020019060010190611fed565b50505050905090565b6007818154811061218057600080fd5b90600052602060002090600402016000915090508060000160009054906101000a900473ffffffffffffffffffffffffffffffffffffffff16908060010160009054906101000a900473ffffffffffffffffffffffffffffffffffffffff16908060020154908060030180546121f59061475e565b80601f01602080910402602001604051908101604052809291908181526020018280546122219061475e565b801561226e5780601f106122435761010080835404028352916020019161226e565b820191906000526020600020905b81548152906001019060200180831161225157829003601f168201915b5050505050905084565b3373ffffffffffffffffffffffffffffffffffffffff16600560003373ffffffffffffffffffffffffffffffffffffffff1673ffffffffffffffffffffffffffffffffffffffff16815260200190815260200160002060000160009054906101000a900473ffffffffffffffffffffffffffffffffffffffff1673ffffffffffffffffffffffffffffffffffffffff1614612348576040517f08c379a000000000000000000000000000000000000000000000000000000000815260040161233f90614915565b60405180910390fd5b600560003373ffffffffffffffffffffffffffffffffffffffff1673ffffffffffffffffffffffffffffffffffffffff168152602001908152602001600020600401819080600181540180825580915050600190039060005260206000200160009091909190916101000a81548173ffffffffffffffffffffffffffffffffffffffff021916908373ffffffffffffffffffffffffffffffffffffffff16021790555050565b60008060009054906101000a900473ffffffffffffffffffffffffffffffffffffffff1673ffffffffffffffffffffffffffffffffffffffff163373ffffffffffffffffffffffffffffffffffffffff161461247f576040517f08c379a000000000000000000000000000000000000000000000000000000000815260040161247690614802565b60405180910390fd5b600380549050905090565b60085481565b3373ffffffffffffffffffffffffffffffffffffffff16600560003373ffffffffffffffffffffffffffffffffffffffff1673ffffffffffffffffffffffffffffffffffffffff16815260200190815260200160002060000160009054906101000a900473ffffffffffffffffffffffffffffffffffffffff1673ffffffffffffffffffffffffffffffffffffffff161415612561576040517f08c379a000000000000000000000000000000000000000000000000000000000815260040161255890614a50565b60405180910390fd5b6040518060a001604052803373ffffffffffffffffffffffffffffffffffffffff168152602001838152602001828152602001600015158152602001600067ffffffffffffffff8111156125b8576125b76140e6565b5b6040519080825280602002602001820160405280156125e65781602001602082028036833780820191505090505b50815250600560003373ffffffffffffffffffffffffffffffffffffffff1673ffffffffffffffffffffffffffffffffffffffff16815260200190815260200160002060008201518160000160006101000a81548173ffffffffffffffffffffffffffffffffffffffff021916908373ffffffffffffffffffffffffffffffffffffffff160217905550602082015181600101908051906020019061268c9291906138e7565b5060408201518160020190805190602001906126a99291906138e7565b5060608201518160030160006101000a81548160ff02191690831515021790555060808201518160040190805190602001906126e692919061396d565b509050506003339080600181540180825580915050600190039060005260206000200160009091909190916101000a81548173ffffffffffffffffffffffffffffffffffffffff021916908373ffffffffffffffffffffffffffffffffffffffff1602179055505050565b60608060608060006060600660008873ffffffffffffffffffffffffffffffffffffffff1673ffffffffffffffffffffffffffffffffffffffff168152602001908152602001600020600101600660008973ffffffffffffffffffffffffffffffffffffffff1673ffffffffffffffffffffffffffffffffffffffff168152602001908152602001600020600201600660008a73ffffffffffffffffffffffffffffffffffffffff1673ffffffffffffffffffffffffffffffffffffffff168152602001908152602001600020600301600660008b73ffffffffffffffffffffffffffffffffffffffff1673ffffffffffffffffffffffffffffffffffffffff168152602001908152602001600020600401600660008c73ffffffffffffffffffffffffffffffffffffffff1673ffffffffffffffffffffffffffffffffffffffff16815260200190815260200160002060060160009054906101000a900473ffffffffffffffffffffffffffffffffffffffff16600660008d73ffffffffffffffffffffffffffffffffffffffff1673ffffffffffffffffffffffffffffffffffffffff1681526020019081526020016000206007018580546129149061475e565b80601f01602080910402602001604051908101604052809291908181526020018280546129409061475e565b801561298d5780601f106129625761010080835404028352916020019161298d565b820191906000526020600020905b81548152906001019060200180831161297057829003601f168201915b505050505095508480546129a09061475e565b80601f01602080910402602001604051908101604052809291908181526020018280546129cc9061475e565b8015612a195780601f106129ee57610100808354040283529160200191612a19565b820191906000526020600020905b8154815290600101906020018083116129fc57829003601f168201915b50505050509450838054612a2c9061475e565b80601f0160208091040260200160405190810160405280929190818152602001828054612a589061475e565b8015612aa55780601f10612a7a57610100808354040283529160200191612aa5565b820191906000526020600020905b815481529060010190602001808311612a8857829003601f168201915b50505050509350828054612ab89061475e565b80601f0160208091040260200160405190810160405280929190818152602001828054612ae49061475e565b8015612b315780601f10612b0657610100808354040283529160200191612b31565b820191906000526020600020905b815481529060010190602001808311612b1457829003601f168201915b50505050509250808054612b449061475e565b80601f0160208091040260200160405190810160405280929190818152602001828054612b709061475e565b8015612bbd5780601f10612b9257610100808354040283529160200191612bbd565b820191906000526020600020905b815481529060010190602001808311612ba057829003601f168201915b5050505050905095509550955095509550955091939550919395565b3373ffffffffffffffffffffffffffffffffffffffff16600560003373ffffffffffffffffffffffffffffffffffffffff1673ffffffffffffffffffffffffffffffffffffffff16815260200190815260200160002060000160009054906101000a900473ffffffffffffffffffffffffffffffffffffffff1673ffffffffffffffffffffffffffffffffffffffff1614612ca9576040517f08c379a0000000000000000000000000000000000000000000000000000000008152600401612ca090614915565b60405180910390fd5b6040518060400160405280600481526020017f7472756500000000000000000000000000000000000000000000000000000000815250600660008373ffffffffffffffffffffffffffffffffffffffff1673ffffffffffffffffffffffffffffffffffffffff1681526020019081526020016000206005019080519060200190612d349291906138e7565b5050565b3373ffffffffffffffffffffffffffffffffffffffff16600660003373ffffffffffffffffffffffffffffffffffffffff1673ffffffffffffffffffffffffffffffffffffffff16815260200190815260200160002060000160009054906101000a900473ffffffffffffffffffffffffffffffffffffffff1673ffffffffffffffffffffffffffffffffffffffff1614612e08576040517f08c379a0000000000000000000000000000000000000000000000000000000008152600401612dff90614ae2565b60405180910390fd5b8273ffffffffffffffffffffffffffffffffffffffff16600660008573ffffffffffffffffffffffffffffffffffffffff1673ffffffffffffffffffffffffffffffffffffffff16815260200190815260200160002060000160009054906101000a900473ffffffffffffffffffffffffffffffffffffffff1673ffffffffffffffffffffffffffffffffffffffff1614612ed8576040517f08c379a0000000000000000000000000000000000000000000000000000000008152600401612ecf90614b4e565b60405180910390fd5b604051602001612ee790614bc5565b60405160208183030381529060405280519060200120600660008573ffffffffffffffffffffffffffffffffffffffff1673ffffffffffffffffffffffffffffffffffffffff168152602001908152602001600020600501604051602001612f4f9190614c6e565b6040516020818303038152906040528051906020012014612fa5576040517f08c379a0000000000000000000000000000000000000000000000000000000008152600401612f9c90614cd1565b60405180910390fd5b3373ffffffffffffffffffffffffffffffffffffffff16600560003373ffffffffffffffffffffffffffffffffffffffff1673ffffffffffffffffffffffffffffffffffffffff16815260200190815260200160002060000160009054906101000a900473ffffffffffffffffffffffffffffffffffffffff1673ffffffffffffffffffffffffffffffffffffffff161415613076576040517f08c379a000000000000000000000000000000000000000000000000000000000815260040161306d90614d3d565b60405180910390fd5b8273ffffffffffffffffffffffffffffffffffffffff16600560008573ffffffffffffffffffffffffffffffffffffffff1673ffffffffffffffffffffffffffffffffffffffff16815260200190815260200160002060000160009054906101000a900473ffffffffffffffffffffffffffffffffffffffff1673ffffffffffffffffffffffffffffffffffffffff161415613147576040517f08c379a000000000000000000000000000000000000000000000000000000000815260040161313e90614da9565b60405180910390fd5b600760405180608001604052803373ffffffffffffffffffffffffffffffffffffffff1681526020018573ffffffffffffffffffffffffffffffffffffffff16815260200184815260200183815250908060018154018082558091505060019003906000526020600020906004020160009091909190915060008201518160000160006101000a81548173ffffffffffffffffffffffffffffffffffffffff021916908373ffffffffffffffffffffffffffffffffffffffff16021790555060208201518160010160006101000a81548173ffffffffffffffffffffffffffffffffffffffff021916908373ffffffffffffffffffffffffffffffffffffffff1602179055506040820151816002015560608201518160030190805190602001906132739291906138e7565b5050506008600081548092919061328990614880565b9190505550505050565b60603373ffffffffffffffffffffffffffffffffffffffff16600660003373ffffffffffffffffffffffffffffffffffffffff1673ffffffffffffffffffffffffffffffffffffffff16815260200190815260200160002060000160009054906101000a900473ffffffffffffffffffffffffffffffffffffffff1673ffffffffffffffffffffffffffffffffffffffff1614613365576040517f08c379a000000000000000000000000000000000000000000000000000000000815260040161335c90614ae2565b60405180910390fd5b600060085467ffffffffffffffff811115613383576133826140e6565b5b6040519080825280602002602001820160405280156133bc57816020015b6133a96139f7565b8152602001906001900390816133a15790505b5090506000805b600854811015613676573373ffffffffffffffffffffffffffffffffffffffff16600782815481106133f8576133f7614822565b5b906000526020600020906004020160000160009054906101000a900473ffffffffffffffffffffffffffffffffffffffff1673ffffffffffffffffffffffffffffffffffffffff1614806134bc57503373ffffffffffffffffffffffffffffffffffffffff166007828154811061347257613471614822565b5b906000526020600020906004020160010160009054906101000a900473ffffffffffffffffffffffffffffffffffffffff1673ffffffffffffffffffffffffffffffffffffffff16145b1561366357600781815481106134d5576134d4614822565b5b90600052602060002090600402016040518060800160405290816000820160009054906101000a900473ffffffffffffffffffffffffffffffffffffffff1673ffffffffffffffffffffffffffffffffffffffff1673ffffffffffffffffffffffffffffffffffffffff1681526020016001820160009054906101000a900473ffffffffffffffffffffffffffffffffffffffff1673ffffffffffffffffffffffffffffffffffffffff1673ffffffffffffffffffffffffffffffffffffffff168152602001600282015481526020016003820180546135b49061475e565b80601f01602080910402602001604051908101604052809291908181526020018280546135e09061475e565b801561362d5780601f106136025761010080835404028352916020019161362d565b820191906000526020600020905b81548152906001019060200180831161361057829003601f168201915b50505050508152505083838151811061364957613648614822565b5b6020026020010181905250818061365f90614880565b9250505b808061366e90614880565b9150506133c3565b50819250505090565b60603373ffffffffffffffffffffffffffffffffffffffff16600560003373ffffffffffffffffffffffffffffffffffffffff1673ffffffffffffffffffffffffffffffffffffffff16815260200190815260200160002060000160009054906101000a900473ffffffffffffffffffffffffffffffffffffffff1673ffffffffffffffffffffffffffffffffffffffff1614613751576040517f08c379a000000000000000000000000000000000000000000000000000000000815260040161374890614915565b60405180910390fd5b600560003373ffffffffffffffffffffffffffffffffffffffff1673ffffffffffffffffffffffffffffffffffffffff16815260200190815260200160002060040180548060200260200160405190810160405280929190818152602001828054801561381357602002820191906000526020600020905b8160009054906101000a900473ffffffffffffffffffffffffffffffffffffffff1673ffffffffffffffffffffffffffffffffffffffff16815260200190600101908083116137c9575b5050505050905090565b60008054906101000a900473ffffffffffffffffffffffffffffffffffffffff1681565b600060016040516020016138559190614c6e565b604051602081830303815290604052805190602001208260405160200161387c9190614dfa565b60405160208183030381529060405280519060200120149050919050565b60045481565b6040518060a00160405280600073ffffffffffffffffffffffffffffffffffffffff1681526020016060815260200160608152602001600015158152602001606081525090565b8280546138f39061475e565b90600052602060002090601f016020900481019282613915576000855561395c565b82601f1061392e57805160ff191683800117855561395c565b8280016001018555821561395c579182015b8281111561395b578251825591602001919060010190613940565b5b5090506139699190613a4b565b5090565b8280548282559060005260206000209081019282156139e6579160200282015b828111156139e55782518260006101000a81548173ffffffffffffffffffffffffffffffffffffffff021916908373ffffffffffffffffffffffffffffffffffffffff1602179055509160200191906001019061398d565b5b5090506139f39190613a4b565b5090565b6040518060800160405280600073ffffffffffffffffffffffffffffffffffffffff168152602001600073ffffffffffffffffffffffffffffffffffffffff16815260200160008152602001606081525090565b5b80821115613a64576000816000905550600101613a4c565b5090565b600081519050919050565b600082825260208201905092915050565b60005b83811015613aa2578082015181840152602081019050613a87565b83811115613ab1576000848401525b50505050565b6000601f19601f8301169050919050565b6000613ad382613a68565b613add8185613a73565b9350613aed818560208601613a84565b613af681613ab7565b840191505092915050565b60006020820190508181036000830152613b1b8184613ac8565b905092915050565b6000604051905090565b600080fd5b600080fd5b600073ffffffffffffffffffffffffffffffffffffffff82169050919050565b6000613b6282613b37565b9050919050565b613b7281613b57565b8114613b7d57600080fd5b50565b600081359050613b8f81613b69565b92915050565b600060208284031215613bab57613baa613b2d565b5b6000613bb984828501613b80565b91505092915050565b60008115159050919050565b613bd781613bc2565b82525050565b60006060820190508181036000830152613bf78186613ac8565b90508181036020830152613c0b8185613ac8565b9050613c1a6040830184613bce565b949350505050565b600081519050919050565b600082825260208201905092915050565b6000819050602082019050919050565b613c5781613b57565b82525050565b6000613c698383613c4e565b60208301905092915050565b6000602082019050919050565b6000613c8d82613c22565b613c978185613c2d565b9350613ca283613c3e565b8060005b83811015613cd3578151613cba8882613c5d565b9750613cc583613c75565b925050600181019050613ca6565b5085935050505092915050565b60006020820190508181036000830152613cfa8184613c82565b905092915050565b6000819050919050565b613d1581613d02565b82525050565b6000602082019050613d306000830184613d0c565b92915050565b613d3f81613b57565b82525050565b600061010082019050613d5b600083018b613d36565b8181036020830152613d6d818a613ac8565b90508181036040830152613d818189613ac8565b90508181036060830152613d958188613ac8565b90508181036080830152613da98187613ac8565b905081810360a0830152613dbd8186613ac8565b9050613dcc60c0830185613d36565b81810360e0830152613dde8184613ac8565b90509998505050505050505050565b6000604082019050613e026000830185613d36565b8181036020830152613e148184613ac8565b90509392505050565b6000602082019050613e326000830184613bce565b92915050565b600081519050919050565b600082825260208201905092915050565b6000819050602082019050919050565b600082825260208201905092915050565b6000613e8082613a68565b613e8a8185613e64565b9350613e9a818560208601613a84565b613ea381613ab7565b840191505092915050565b613eb781613bc2565b82525050565b600082825260208201905092915050565b6000613ed982613c22565b613ee38185613ebd565b9350613eee83613c3e565b8060005b83811015613f1f578151613f068882613c5d565b9750613f1183613c75565b925050600181019050613ef2565b5085935050505092915050565b600060a083016000830151613f446000860182613c4e565b5060208301518482036020860152613f5c8282613e75565b91505060408301518482036040860152613f768282613e75565b9150506060830151613f8b6060860182613eae565b5060808301518482036080860152613fa38282613ece565b9150508091505092915050565b6000613fbc8383613f2c565b905092915050565b6000602082019050919050565b6000613fdc82613e38565b613fe68185613e43565b935083602082028501613ff885613e54565b8060005b8581101561403457848403895281516140158582613fb0565b945061402083613fc4565b925060208a01995050600181019050613ffc565b50829750879550505050505092915050565b600060208201905081810360008301526140608184613fd1565b905092915050565b61407181613d02565b811461407c57600080fd5b50565b60008135905061408e81614068565b92915050565b6000602082840312156140aa576140a9613b2d565b5b60006140b88482850161407f565b91505092915050565b60006020820190506140d66000830184613d36565b92915050565b600080fd5b600080fd5b7f4e487b7100000000000000000000000000000000000000000000000000000000600052604160045260246000fd5b61411e82613ab7565b810181811067ffffffffffffffff8211171561413d5761413c6140e6565b5b80604052505050565b6000614150613b23565b905061415c8282614115565b919050565b600067ffffffffffffffff82111561417c5761417b6140e6565b5b61418582613ab7565b9050602081019050919050565b82818337600083830152505050565b60006141b46141af84614161565b614146565b9050828152602081018484840111156141d0576141cf6140e1565b5b6141db848285614192565b509392505050565b600082601f8301126141f8576141f76140dc565b5b81356142088482602086016141a1565b91505092915050565b6000806040838503121561422857614227613b2d565b5b600061423685828601613b80565b925050602083013567ffffffffffffffff81111561425757614256613b32565b5b614263858286016141e3565b9150509250929050565b60006080820190506142826000830187613d36565b81810360208301526142948186613ac8565b905081810360408301526142a88185613ac8565b90506142b76060830184613bce565b95945050505050565b60008060008060008060c087890312156142dd576142dc613b2d565b5b600087013567ffffffffffffffff8111156142fb576142fa613b32565b5b61430789828a016141e3565b965050602087013567ffffffffffffffff81111561432857614327613b32565b5b61433489828a016141e3565b955050604087013567ffffffffffffffff81111561435557614354613b32565b5b61436189828a016141e3565b945050606087013567ffffffffffffffff81111561438257614381613b32565b5b61438e89828a016141e3565b935050608061439f89828a01613b80565b92505060a087013567ffffffffffffffff8111156143c0576143bf613b32565b5b6143cc89828a016141e3565b9150509295509295509295565b600081519050919050565b600082825260208201905092915050565b6000819050602082019050919050565b61440e81613d02565b82525050565b600060808301600083015161442c6000860182613c4e565b50602083015161443f6020860182613c4e565b5060408301516144526040860182614405565b506060830151848203606086015261446a8282613e75565b9150508091505092915050565b60006144838383614414565b905092915050565b6000602082019050919050565b60006144a3826143d9565b6144ad81856143e4565b9350836020820285016144bf856143f5565b8060005b858110156144fb57848403895281516144dc8582614477565b94506144e78361448b565b925060208a019950506001810190506144c3565b50829750879550505050505092915050565b600060208201905081810360008301526145278184614498565b905092915050565b60006080820190506145446000830187613d36565b6145516020830186613d36565b61455e6040830185613d0c565b81810360608301526145708184613ac8565b905095945050505050565b6000806040838503121561459257614591613b2d565b5b600083013567ffffffffffffffff8111156145b0576145af613b32565b5b6145bc858286016141e3565b925050602083013567ffffffffffffffff8111156145dd576145dc613b32565b5b6145e9858286016141e3565b9150509250929050565b600060c082019050818103600083015261460d8189613ac8565b905081810360208301526146218188613ac8565b905081810360408301526146358187613ac8565b905081810360608301526146498186613ac8565b90506146586080830185613d36565b81810360a083015261466a8184613ac8565b9050979650505050505050565b6000806000606084860312156146905761468f613b2d565b5b600061469e86828701613b80565b93505060206146af8682870161407f565b925050604084013567ffffffffffffffff8111156146d0576146cf613b32565b5b6146dc868287016141e3565b9150509250925092565b6000602082840312156146fc576146fb613b2d565b5b600082013567ffffffffffffffff81111561471a57614719613b32565b5b614726848285016141e3565b91505092915050565b7f4e487b7100000000000000000000000000000000000000000000000000000000600052602260045260246000fd5b6000600282049050600182168061477657607f821691505b6020821081141561478a5761478961472f565b5b50919050565b7f4f6e6c792061646d696e2063616e2063616c6c20746869732066756e6374696f60008201527f6e00000000000000000000000000000000000000000000000000000000000000602082015250565b60006147ec602183613a73565b91506147f782614790565b604082019050919050565b6000602082019050818103600083015261481b816147df565b9050919050565b7f4e487b7100000000000000000000000000000000000000000000000000000000600052603260045260246000fd5b7f4e487b7100000000000000000000000000000000000000000000000000000000600052601160045260246000fd5b600061488b82613d02565b91507fffffffffffffffffffffffffffffffffffffffffffffffffffffffffffffffff8214156148be576148bd614851565b5b600182019050919050565b7f4f6e6c792062616e6b2063616e2063616c6c20746869732066756e6374696f6e600082015250565b60006148ff602083613a73565b915061490a826148c9565b602082019050919050565b6000602082019050818103600083015261492e816148f2565b9050919050565b600061494082613d02565b915061494b83613d02565b92508282101561495e5761495d614851565b5b828203905092915050565b7f4e487b7100000000000000000000000000000000000000000000000000000000600052603160045260246000fd5b7f437573746f6d657220616c726561647920657869737473000000000000000000600082015250565b60006149ce601783613a73565b91506149d982614998565b602082019050919050565b600060208201905081810360008301526149fd816149c1565b9050919050565b7f42616e6b20616c72656164792065786973747300000000000000000000000000600082015250565b6000614a3a601383613a73565b9150614a4582614a04565b602082019050919050565b60006020820190508181036000830152614a6981614a2d565b9050919050565b7f4f6e6c7920637573746f6d65722063616e2063616c6c20746869732066756e6360008201527f74696f6e00000000000000000000000000000000000000000000000000000000602082015250565b6000614acc602483613a73565b9150614ad782614a70565b604082019050919050565b60006020820190508181036000830152614afb81614abf565b9050919050565b7f526563697069656e7420646f6573206e6f742065786973740000000000000000600082015250565b6000614b38601883613a73565b9150614b4382614b02565b602082019050919050565b60006020820190508181036000830152614b6781614b2b565b9050919050565b600081905092915050565b7f7472756500000000000000000000000000000000000000000000000000000000600082015250565b6000614baf600483614b6e565b9150614bba82614b79565b600482019050919050565b6000614bd082614ba2565b9150819050919050565b60008190508160005260206000209050919050565b60008154614bfc8161475e565b614c068186614b6e565b94506001821660008114614c215760018114614c3257614c65565b60ff19831686528186019350614c65565b614c3b85614bda565b60005b83811015614c5d57815481890152600182019150602081019050614c3e565b838801955050505b50505092915050565b6000614c7a8284614bef565b915081905092915050565b7f526563697069656e74206e6f7420766572696669656400000000000000000000600082015250565b6000614cbb601683613a73565b9150614cc682614c85565b602082019050919050565b60006020820190508181036000830152614cea81614cae565b9050919050565b7f53656e6465722063616e6e6f7420626520612062616e6b000000000000000000600082015250565b6000614d27601783613a73565b9150614d3282614cf1565b602082019050919050565b60006020820190508181036000830152614d5681614d1a565b9050919050565b7f526563697069656e742063616e6e6f7420626520612062616e6b000000000000600082015250565b6000614d93601a83613a73565b9150614d9e82614d5d565b602082019050919050565b60006020820190508181036000830152614dc281614d86565b9050919050565b6000614dd482613a68565b614dde8185614b6e565b9350614dee818560208601613a84565b80840191505092915050565b6000614e068284614dc9565b91508190509291505056fea2646970667358221220e44d2bd22883e123857ee0a31b504c7e37fc49a29aae0014894c6afaad3fdea564736f6c63430008090033",
  "linkReferences": {},
  "deployedLinkReferences": {}
}