{
  "_format": "hh-sol-artifact-1",
  "contractName": "KYC",
  "sourceName": "contracts/KYC.sol",
  "abi": [
    {
      "inputs": [
        {
          "internalType": "string",
          "name": "_password",
          "type": "string"
        }
      ],
      "stateMutability": "nonpayable",
      "type": "constructor"
    },
    {
      "inputs": [
        {
          "internalType": "address",
          "name": "_address",
          "type": "address"
        }
      ],
      "name": "addCustomer",
      "outputs": [],
      "stateMutability": "nonpayable",
      "type": "function"
    },
    {
      "inputs": [],
      "name": "admin_address",
      "outputs": [
        {
          "internalType": "address",
          "name": "",
          "type": "address"
        }
      ],
      "stateMutability": "view",
      "type": "function"
    },
    {
      "inputs": [],
      "name": "admin_password",
      "outputs": [
        {
          "internalType": "string",
          "name": "",
          "type": "string"
        }
      ],
      "stateMutability": "view",
      "type": "function"
    },
    {
      "inputs": [
        {
          "internalType": "address",
          "name": "",
          "type": "address"
        }
      ],
      "name": "admins",
      "outputs": [
        {
          "internalType": "address",
          "name": "adminAddress",
          "type": "address"
        },
        {
          "internalType": "string",
          "name": "adminName",
          "type": "string"
        }
      ],
      "stateMutability": "view",
      "type": "function"
    },
    {
      "inputs": [],
      "name": "bankCount",
      "outputs": [
        {
          "internalType": "uint256",
          "name": "",
          "type": "uint256"
        }
      ],
      "stateMutability": "view",
      "type": "function"
    },
    {
      "inputs": [
        {
          "internalType": "uint256",
          "name": "",
          "type": "uint256"
        }
      ],
      "name": "bankRequests",
      "outputs": [
        {
          "internalType": "address",
          "name": "",
          "type": "address"
        }
      ],
      "stateMutability": "view",
      "type": "function"
    },
    {
      "inputs": [
        {
          "internalType": "address",
          "name": "",
          "type": "address"
        }
      ],
      "name": "banks",
      "outputs": [
        {
          "internalType": "address",
          "name": "bankAddress",
          "type": "address"
        },
        {
          "internalType": "string",
          "name": "bankName",
          "type": "string"
        },
        {
          "internalType": "string",
          "name": "regNumber",
          "type": "string"
        },
        {
          "internalType": "bool",
          "name": "isVerified",
          "type": "bool"
        }
      ],
      "stateMutability": "view",
      "type": "function"
    },
    {
      "inputs": [
        {
          "internalType": "address",
          "name": "_address",
          "type": "address"
        }
      ],
      "name": "compareAdminAddress",
      "outputs": [
        {
          "internalType": "bool",
          "name": "",
          "type": "bool"
        }
      ],
      "stateMutability": "view",
      "type": "function"
    },
    {
      "inputs": [
        {
          "internalType": "string",
          "name": "_password",
          "type": "string"
        }
      ],
      "name": "comparePassword",
      "outputs": [
        {
          "internalType": "bool",
          "name": "",
          "type": "bool"
        }
      ],
      "stateMutability": "view",
      "type": "function"
    },
    {
      "inputs": [
        {
          "internalType": "string",
          "name": "_name",
          "type": "string"
        },
        {
          "internalType": "string",
          "name": "_regNumber",
          "type": "string"
        }
      ],
      "name": "createBank",
      "outputs": [],
      "stateMutability": "nonpayable",
      "type": "function"
    },
    {
      "inputs": [
        {
          "internalType": "string",
          "name": "_name",
          "type": "string"
        },
        {
          "internalType": "string",
          "name": "_email",
          "type": "string"
        },
        {
          "internalType": "string",
          "name": "_password",
          "type": "string"
        },
        {
          "internalType": "string",
          "name": "_data",
          "type": "string"
        },
        {
          "internalType": "address",
          "name": "_bankAddress",
          "type": "address"
        },
        {
          "internalType": "string",
          "name": "_balance",
          "type": "string"
        }
      ],
      "name": "createCustomer",
      "outputs": [],
      "stateMutability": "nonpayable",
      "type": "function"
    },
    {
      "inputs": [
        {
          "internalType": "address",
          "name": "_to",
          "type": "address"
        },
        {
          "internalType": "uint256",
          "name": "_amount",
          "type": "uint256"
        },
        {
          "internalType": "string",
          "name": "_data",
          "type": "string"
        }
      ],
      "name": "createTransaction",
      "outputs": [],
      "stateMutability": "nonpayable",
      "type": "function"
    },
    {
      "inputs": [
        {
          "internalType": "address",
          "name": "",
          "type": "address"
        }
      ],
      "name": "customers",
      "outputs": [
        {
          "internalType": "address",
          "name": "customerAddress",
          "type": "address"
        },
        {
          "internalType": "string",
          "name": "customerName",
          "type": "string"
        },
        {
          "internalType": "string",
          "name": "customerEmail",
          "type": "string"
        },
        {
          "internalType": "string",
          "name": "password",
          "type": "string"
        },
        {
          "internalType": "string",
          "name": "customerData",
          "type": "string"
        },
        {
          "internalType": "string",
          "name": "isVerified",
          "type": "string"
        },
        {
          "internalType": "address",
          "name": "bankAddress",
          "type": "address"
        },
        {
          "internalType": "string",
          "name": "balance",
          "type": "string"
        }
      ],
      "stateMutability": "view",
      "type": "function"
    },
    {
      "inputs": [],
      "name": "getBankCount",
      "outputs": [
        {
          "internalType": "uint256",
          "name": "",
          "type": "uint256"
        }
      ],
      "stateMutability": "view",
      "type": "function"
    },
    {
      "inputs": [
        {
          "internalType": "address",
          "name": "_address",
          "type": "address"
        }
      ],
      "name": "getBankDetails",
      "outputs": [
        {
          "internalType": "string",
          "name": "",
          "type": "string"
        },
        {
          "internalType": "string",
          "name": "",
          "type": "string"
        },
        {
          "internalType": "bool",
          "name": "",
          "type": "bool"
        }
      ],
      "stateMutability": "view",
      "type": "function"
    },
    {
      "inputs": [],
      "name": "getBankRequests",
      "outputs": [
        {
          "internalType": "address[]",
          "name": "",
          "type": "address[]"
        }
      ],
      "stateMutability": "view",
      "type": "function"
    },
    {
      "inputs": [],
      "name": "getBankRequestsAllData",
      "outputs": [
        {
          "components": [
            {
              "internalType": "address",
              "name": "bankAddress",
              "type": "address"
            },
            {
              "internalType": "string",
              "name": "bankName",
              "type": "string"
            },
            {
              "internalType": "string",
              "name": "regNumber",
              "type": "string"
            },
            {
              "internalType": "bool",
              "name": "isVerified",
              "type": "bool"
            },
            {
              "internalType": "address[]",
              "name": "customers",
              "type": "address[]"
            }
          ],
          "internalType": "struct KYC.Bank[]",
          "name": "",
          "type": "tuple[]"
        }
      ],
      "stateMutability": "view",
      "type": "function"
    },
    {
      "inputs": [],
      "name": "getBankRequestsCount",
      "outputs": [
        {
          "internalType": "uint256",
          "name": "",
          "type": "uint256"
        }
      ],
      "stateMutability": "view",
      "type": "function"
    },
    {
      "inputs": [
        {
          "internalType": "address",
          "name": "_address",
          "type": "address"
        }
      ],
      "name": "getCustomer",
      "outputs": [
        {
          "internalType": "string",
          "name": "",
          "type": "string"
        },
        {
          "internalType": "string",
          "name": "",
          "type": "string"
        },
        {
          "internalType": "string",
          "name": "",
          "type": "string"
        },
        {
          "internalType": "string",
          "name": "",
          "type": "string"
        },
        {
          "internalType": "address",
          "name": "",
          "type": "address"
        },
        {
          "internalType": "string",
          "name": "",
          "type": "string"
        }
      ],
      "stateMutability": "view",
      "type": "function"
    },
    {
      "inputs": [],
      "name": "getCustomerTransaction",
      "outputs": [
        {
          "components": [
            {
              "internalType": "address",
              "name": "from",
              "type": "address"
            },
            {
              "internalType": "address",
              "name": "to",
              "type": "address"
            },
            {
              "internalType": "uint256",
              "name": "amount",
              "type": "uint256"
            },
            {
              "internalType": "string",
              "name": "transactionData",
              "type": "string"
            }
          ],
          "internalType": "struct KYC.Transaction[]",
          "name": "",
          "type": "tuple[]"
        }
      ],
      "stateMutability": "view",
      "type": "function"
    },
    {
      "inputs": [],
      "name": "getCustomers",
      "outputs": [
        {
          "internalType": "address[]",
          "name": "",
          "type": "address[]"
        }
      ],
      "stateMutability": "view",
      "type": "function"
    },
    {
      "inputs": [],
      "name": "getTransactionCount",
      "outputs": [
        {
          "internalType": "uint256",
          "name": "",
          "type": "uint256"
        }
      ],
      "stateMutability": "view",
      "type": "function"
    },
    {
      "inputs": [],
      "name": "getTransactions",
      "outputs": [
        {
          "components": [
            {
              "internalType": "address",
              "name": "from",
              "type": "address"
            },
            {
              "internalType": "address",
              "name": "to",
              "type": "address"
            },
            {
              "internalType": "uint256",
              "name": "amount",
              "type": "uint256"
            },
            {
              "internalType": "string",
              "name": "transactionData",
              "type": "string"
            }
          ],
          "internalType": "struct KYC.Transaction[]",
          "name": "",
          "type": "tuple[]"
        }
      ],
      "stateMutability": "view",
      "type": "function"
    },
    {
      "inputs": [],
      "name": "getVerifiedBanks",
      "outputs": [
        {
          "components": [
            {
              "internalType": "address",
              "name": "bankAddress",
              "type": "address"
            },
            {
              "internalType": "string",
              "name": "bankName",
              "type": "string"
            },
            {
              "internalType": "string",
              "name": "regNumber",
              "type": "string"
            },
            {
              "internalType": "bool",
              "name": "isVerified",
              "type": "bool"
            },
            {
              "internalType": "address[]",
              "name": "customers",
              "type": "address[]"
            }
          ],
          "internalType": "struct KYC.Bank[]",
          "name": "",
          "type": "tuple[]"
        }
      ],
      "stateMutability": "view",
      "type": "function"
    },
    {
      "inputs": [
        {
          "internalType": "address",
          "name": "_address",
          "type": "address"
        }
      ],
      "name": "rejectBank",
      "outputs": [],
      "stateMutability": "nonpayable",
      "type": "function"
    },
    {
      "inputs": [
        {
          "internalType": "address",
          "name": "_address",
          "type": "address"
        }
      ],
      "name": "rejectCustomer",
      "outputs": [],
      "stateMutability": "nonpayable",
      "type": "function"
    },
    {
      "inputs": [
        {
          "internalType": "address",
          "name": "_address",
          "type": "address"
        }
      ],
      "name": "removeBank",
      "outputs": [],
      "stateMutability": "nonpayable",
      "type": "function"
    },
    {
      "inputs": [
        {
          "internalType": "address",
          "name": "_address",
          "type": "address"
        }
      ],
      "name": "removeCustomer",
      "outputs": [],
      "stateMutability": "nonpayable",
      "type": "function"
    },
    {
      "inputs": [],
      "name": "transactionCount",
      "outputs": [
        {
          "internalType": "uint256",
          "name": "",
          "type": "uint256"
        }
      ],
      "stateMutability": "view",
      "type": "function"
    },
    {
      "inputs": [
        {
          "internalType": "uint256",
          "name": "",
          "type": "uint256"
        }
      ],
      "name": "transactions",
      "outputs": [
        {
          "internalType": "address",
          "name": "from",
          "type": "address"
        },
        {
          "internalType": "address",
          "name": "to",
          "type": "address"
        },
        {
          "internalType": "uint256",
          "name": "amount",
          "type": "uint256"
        },
        {
          "internalType": "string",
          "name": "transactionData",
          "type": "string"
        }
      ],
      "stateMutability": "view",
      "type": "function"
    },
    {
      "inputs": [
        {
          "internalType": "address",
          "name": "_address",
          "type": "address"
        },
        {
          "internalType": "string",
          "name": "_balance",
          "type": "string"
        }
      ],
      "name": "updateBalace",
      "outputs": [],
      "stateMutability": "nonpayable",
      "type": "function"
    },
    {
      "inputs": [
        {
          "internalType": "address",
          "name": "_address",
          "type": "address"
        }
      ],
      "name": "verifyBank",
      "outputs": [],
      "stateMutability": "nonpayable",
      "type": "function"
    },
    {
      "inputs": [
        {
          "internalType": "address",
          "name": "_address",
          "type": "address"
        }
      ],
      "name": "verifyCustomer",
      "outputs": [],
      "stateMutability": "nonpayable",
      "type": "function"
    }
  ],
  "bytecode": "0x60806040523480156200001157600080fd5b5060405162005a3338038062005a338339818101604052810190620000379190620003ec565b336000806101000a81548173ffffffffffffffffffffffffffffffffffffffff021916908373ffffffffffffffffffffffffffffffffffffffff16021790555080600190805190602001906200008f9291906200019f565b5060405180604001604052803373ffffffffffffffffffffffffffffffffffffffff1681526020016040518060400160405280600581526020017f41646d696e000000000000000000000000000000000000000000000000000000815250815250600260003373ffffffffffffffffffffffffffffffffffffffff1673ffffffffffffffffffffffffffffffffffffffff16815260200190815260200160002060008201518160000160006101000a81548173ffffffffffffffffffffffffffffffffffffffff021916908373ffffffffffffffffffffffffffffffffffffffff1602179055506020820151816001019080519060200190620001949291906200019f565b5090505050620004a2565b828054620001ad906200046c565b90600052602060002090601f016020900481019282620001d157600085556200021d565b82601f10620001ec57805160ff19168380011785556200021d565b828001600101855582156200021d579182015b828111156200021c578251825591602001919060010190620001ff565b5b5090506200022c919062000230565b5090565b5b808211156200024b57600081600090555060010162000231565b5090565b6000604051905090565b600080fd5b600080fd5b600080fd5b600080fd5b6000601f19601f8301169050919050565b7f4e487b7100000000000000000000000000000000000000000000000000000000600052604160045260246000fd5b620002b8826200026d565b810181811067ffffffffffffffff82111715620002da57620002d96200027e565b5b80604052505050565b6000620002ef6200024f565b9050620002fd8282620002ad565b919050565b600067ffffffffffffffff82111562000320576200031f6200027e565b5b6200032b826200026d565b9050602081019050919050565b60005b83811015620003585780820151818401526020810190506200033b565b8381111562000368576000848401525b50505050565b6000620003856200037f8462000302565b620002e3565b905082815260208101848484011115620003a457620003a362000268565b5b620003b184828562000338565b509392505050565b600082601f830112620003d157620003d062000263565b5b8151620003e38482602086016200036e565b91505092915050565b60006020828403121562000405576200040462000259565b5b600082015167ffffffffffffffff8111156200042657620004256200025e565b5b6200043484828501620003b9565b91505092915050565b7f4e487b7100000000000000000000000000000000000000000000000000000000600052602260045260246000fd5b600060028204905060018216806200048557607f821691505b602082108114156200049c576200049b6200043d565b5b50919050565b61558180620004b26000396000f3fe608060405234801561001057600080fd5b50600436106101fb5760003560e01c8063833ee7201161011a578063b97eb2dd116100ad578063e4da9ebc1161007c578063e4da9ebc146105d7578063f1ba7127146105f5578063f2e6277214610613578063f5bfe62214610631578063f879eb5714610661576101fb565b8063b97eb2dd1461054e578063cb949e511461056a578063daa6b8f11461059f578063e1f6048d146105bb576101fb565b80639ace38c2116100e95780639ace38c2146104c3578063ad973d74146104f6578063aebc2f0314610512578063b77bf60014610530576101fb565b8063833ee7201461045157806383920e901461046d5780638eb06ccf1461048b5780639649650c146104a7576101fb565b80634a5e9628116101925780636956686c116101615780636956686c146103c85780636a505df4146103e65780636da04e641461040257806380c3b8c21461041e576101fb565b80634a5e96281461032e57806352dffc961461035e57806353af8dd61461037c5780635ebbe30914610398576101fb565b80632e7700f0116101ce5780632e7700f01461028c578063336989ae146102aa57806335fab5d5146102e1578063429b62e5146102fd576101fb565b8063101ad1c81461020057806315101e021461021e5780632cc5c5f1146102505780632e44715d1461026e575b600080fd5b61020861067f565b604051610215919061423b565b60405180910390f35b610238600480360381019061023391906142cf565b61070d565b60405161024793929190614317565b60405180910390f35b61025861090b565b604051610265919061441a565b60405180910390f35b610276610a27565b6040516102839190614455565b60405180910390f35b610294610ac0565b6040516102a19190614455565b60405180910390f35b6102c460048036038101906102bf91906142cf565b610aca565b6040516102d898979695949392919061447f565b60405180910390f35b6102fb60048036038101906102f691906142cf565b610e82565b005b610317600480360381019061031291906142cf565b6110a1565b604051610325929190614527565b60405180910390f35b610348600480360381019061034391906142cf565b61116d565b6040516103559190614557565b60405180910390f35b6103666111c6565b6040516103739190614780565b60405180910390f35b610396600480360381019061039191906142cf565b611648565b005b6103b260048036038101906103ad91906147ce565b6117a7565b6040516103bf91906147fb565b60405180910390f35b6103d06117e6565b6040516103dd9190614780565b60405180910390f35b61040060048036038101906103fb919061494b565b611bc7565b005b61041c600480360381019061041791906142cf565b611cf2565b005b610438600480360381019061043391906142cf565b611f84565b60405161044894939291906149a7565b60405180910390f35b61046b600480360381019061046691906149fa565b6120f1565b005b6104756123e3565b6040516104829190614c47565b60405180910390f35b6104a560048036038101906104a091906142cf565b61258a565b005b6104c160048036038101906104bc91906142cf565b61270b565b005b6104dd60048036038101906104d891906147ce565b612849565b6040516104ed9493929190614c69565b60405180910390f35b610510600480360381019061050b91906142cf565b612951565b005b61051a612ac7565b6040516105279190614455565b60405180910390f35b610538612b63565b6040516105459190614455565b60405180910390f35b61056860048036038101906105639190614cb5565b612b69565b005b610584600480360381019061057f91906142cf565b612e2a565b60405161059696959493929190614d2d565b60405180910390f35b6105b960048036038101906105b491906142cf565b6132b2565b005b6105d560048036038101906105d09190614db1565b613411565b005b6105df61396c565b6040516105ec9190614c47565b60405180910390f35b6105fd613d58565b60405161060a919061441a565b60405180910390f35b61061b613ef6565b60405161062891906147fb565b60405180910390f35b61064b60048036038101906106469190614e20565b613f1a565b6040516106589190614557565b60405180910390f35b610669613f73565b6040516106769190614455565b60405180910390f35b6001805461068c90614e98565b80601f01602080910402602001604051908101604052809291908181526020018280546106b890614e98565b80156107055780601f106106da57610100808354040283529160200191610705565b820191906000526020600020905b8154815290600101906020018083116106e857829003601f168201915b505050505081565b6060806000600560008573ffffffffffffffffffffffffffffffffffffffff1673ffffffffffffffffffffffffffffffffffffffff168152602001908152602001600020600101600560008673ffffffffffffffffffffffffffffffffffffffff1673ffffffffffffffffffffffffffffffffffffffff168152602001908152602001600020600201600560008773ffffffffffffffffffffffffffffffffffffffff1673ffffffffffffffffffffffffffffffffffffffff16815260200190815260200160002060030160009054906101000a900460ff168280546107f290614e98565b80601f016020809104026020016040519081016040528092919081815260200182805461081e90614e98565b801561086b5780601f106108405761010080835404028352916020019161086b565b820191906000526020600020905b81548152906001019060200180831161084e57829003601f168201915b5050505050925081805461087e90614e98565b80601f01602080910402602001604051908101604052809291908181526020018280546108aa90614e98565b80156108f75780601f106108cc576101008083540402835291602001916108f7565b820191906000526020600020905b8154815290600101906020018083116108da57829003601f168201915b505050505091509250925092509193909250565b606060008054906101000a900473ffffffffffffffffffffffffffffffffffffffff1673ffffffffffffffffffffffffffffffffffffffff163373ffffffffffffffffffffffffffffffffffffffff161461099b576040517f08c379a000000000000000000000000000000000000000000000000000000000815260040161099290614f3c565b60405180910390fd5b6003805480602002602001604051908101604052809291908181526020018280548015610a1d57602002820191906000526020600020905b8160009054906101000a900473ffffffffffffffffffffffffffffffffffffffff1673ffffffffffffffffffffffffffffffffffffffff16815260200190600101908083116109d3575b5050505050905090565b60008060009054906101000a900473ffffffffffffffffffffffffffffffffffffffff1673ffffffffffffffffffffffffffffffffffffffff163373ffffffffffffffffffffffffffffffffffffffff1614610ab8576040517f08c379a0000000000000000000000000000000000000000000000000000000008152600401610aaf90614f3c565b60405180910390fd5b600454905090565b6000600854905090565b60066020528060005260406000206000915090508060000160009054906101000a900473ffffffffffffffffffffffffffffffffffffffff1690806001018054610b1390614e98565b80601f0160208091040260200160405190810160405280929190818152602001828054610b3f90614e98565b8015610b8c5780601f10610b6157610100808354040283529160200191610b8c565b820191906000526020600020905b815481529060010190602001808311610b6f57829003601f168201915b505050505090806002018054610ba190614e98565b80601f0160208091040260200160405190810160405280929190818152602001828054610bcd90614e98565b8015610c1a5780601f10610bef57610100808354040283529160200191610c1a565b820191906000526020600020905b815481529060010190602001808311610bfd57829003601f168201915b505050505090806003018054610c2f90614e98565b80601f0160208091040260200160405190810160405280929190818152602001828054610c5b90614e98565b8015610ca85780601f10610c7d57610100808354040283529160200191610ca8565b820191906000526020600020905b815481529060010190602001808311610c8b57829003601f168201915b505050505090806004018054610cbd90614e98565b80601f0160208091040260200160405190810160405280929190818152602001828054610ce990614e98565b8015610d365780601f10610d0b57610100808354040283529160200191610d36565b820191906000526020600020905b815481529060010190602001808311610d1957829003601f168201915b505050505090806005018054610d4b90614e98565b80601f0160208091040260200160405190810160405280929190818152602001828054610d7790614e98565b8015610dc45780601f10610d9957610100808354040283529160200191610dc4565b820191906000526020600020905b815481529060010190602001808311610da757829003601f168201915b5050505050908060060160009054906101000a900473ffffffffffffffffffffffffffffffffffffffff1690806007018054610dff90614e98565b80601f0160208091040260200160405190810160405280929190818152602001828054610e2b90614e98565b8015610e785780601f10610e4d57610100808354040283529160200191610e78565b820191906000526020600020905b815481529060010190602001808311610e5b57829003601f168201915b5050505050905088565b60008054906101000a900473ffffffffffffffffffffffffffffffffffffffff1673ffffffffffffffffffffffffffffffffffffffff163373ffffffffffffffffffffffffffffffffffffffff1614610f10576040517f08c379a0000000000000000000000000000000000000000000000000000000008152600401610f0790614f3c565b60405180910390fd5b60005b60038054905081101561109d578173ffffffffffffffffffffffffffffffffffffffff1660038281548110610f4b57610f4a614f5c565b5b9060005260206000200160009054906101000a900473ffffffffffffffffffffffffffffffffffffffff1673ffffffffffffffffffffffffffffffffffffffff16141561108a5760036001600380549050610fa69190614fba565b81548110610fb757610fb6614f5c565b5b9060005260206000200160009054906101000a900473ffffffffffffffffffffffffffffffffffffffff1660038281548110610ff657610ff5614f5c565b5b9060005260206000200160006101000a81548173ffffffffffffffffffffffffffffffffffffffff021916908373ffffffffffffffffffffffffffffffffffffffff16021790555060038054806110505761104f614fee565b5b6001900381819060005260206000200160006101000a81549073ffffffffffffffffffffffffffffffffffffffff0219169055905561109d565b80806110959061501d565b915050610f13565b5050565b60026020528060005260406000206000915090508060000160009054906101000a900473ffffffffffffffffffffffffffffffffffffffff16908060010180546110ea90614e98565b80601f016020809104026020016040519081016040528092919081815260200182805461111690614e98565b80156111635780601f1061113857610100808354040283529160200191611163565b820191906000526020600020905b81548152906001019060200180831161114657829003601f168201915b5050505050905082565b60008060009054906101000a900473ffffffffffffffffffffffffffffffffffffffff1673ffffffffffffffffffffffffffffffffffffffff168273ffffffffffffffffffffffffffffffffffffffff16149050919050565b606060008054906101000a900473ffffffffffffffffffffffffffffffffffffffff1673ffffffffffffffffffffffffffffffffffffffff163373ffffffffffffffffffffffffffffffffffffffff1614611256576040517f08c379a000000000000000000000000000000000000000000000000000000000815260040161124d90614f3c565b60405180910390fd5b600060045467ffffffffffffffff81111561127457611273614820565b5b6040519080825280602002602001820160405280156112ad57816020015b61129a613f79565b8152602001906001900390816112925790505b5090506000805b60038054905081101561163f5760056000600383815481106112d9576112d8614f5c565b5b9060005260206000200160009054906101000a900473ffffffffffffffffffffffffffffffffffffffff1673ffffffffffffffffffffffffffffffffffffffff1673ffffffffffffffffffffffffffffffffffffffff16815260200190815260200160002060030160009054906101000a900460ff161561162c57600560006003838154811061136c5761136b614f5c565b5b9060005260206000200160009054906101000a900473ffffffffffffffffffffffffffffffffffffffff1673ffffffffffffffffffffffffffffffffffffffff1673ffffffffffffffffffffffffffffffffffffffff1681526020019081526020016000206040518060a00160405290816000820160009054906101000a900473ffffffffffffffffffffffffffffffffffffffff1673ffffffffffffffffffffffffffffffffffffffff1673ffffffffffffffffffffffffffffffffffffffff16815260200160018201805461144290614e98565b80601f016020809104026020016040519081016040528092919081815260200182805461146e90614e98565b80156114bb5780601f10611490576101008083540402835291602001916114bb565b820191906000526020600020905b81548152906001019060200180831161149e57829003601f168201915b505050505081526020016002820180546114d490614e98565b80601f016020809104026020016040519081016040528092919081815260200182805461150090614e98565b801561154d5780601f106115225761010080835404028352916020019161154d565b820191906000526020600020905b81548152906001019060200180831161153057829003601f168201915b505050505081526020016003820160009054906101000a900460ff16151515158152602001600482018054806020026020016040519081016040528092919081815260200182805480156115f657602002820191906000526020600020905b8160009054906101000a900473ffffffffffffffffffffffffffffffffffffffff1673ffffffffffffffffffffffffffffffffffffffff16815260200190600101908083116115ac575b50505050508152505083838151811061161257611611614f5c565b5b602002602001018190525081806116289061501d565b9250505b80806116379061501d565b9150506112b4565b50819250505090565b3373ffffffffffffffffffffffffffffffffffffffff16600560003373ffffffffffffffffffffffffffffffffffffffff1673ffffffffffffffffffffffffffffffffffffffff16815260200190815260200160002060000160009054906101000a900473ffffffffffffffffffffffffffffffffffffffff1673ffffffffffffffffffffffffffffffffffffffff1614611718576040517f08c379a000000000000000000000000000000000000000000000000000000000815260040161170f906150b2565b60405180910390fd5b6040518060400160405280600581526020017f66616c7365000000000000000000000000000000000000000000000000000000815250600660008373ffffffffffffffffffffffffffffffffffffffff1673ffffffffffffffffffffffffffffffffffffffff16815260200190815260200160002060050190805190602001906117a3929190613fc0565b5050565b600381815481106117b757600080fd5b906000526020600020016000915054906101000a900473ffffffffffffffffffffffffffffffffffffffff1681565b606060008054906101000a900473ffffffffffffffffffffffffffffffffffffffff1673ffffffffffffffffffffffffffffffffffffffff163373ffffffffffffffffffffffffffffffffffffffff1614611876576040517f08c379a000000000000000000000000000000000000000000000000000000000815260040161186d90614f3c565b60405180910390fd5b600060038054905067ffffffffffffffff81111561189757611896614820565b5b6040519080825280602002602001820160405280156118d057816020015b6118bd613f79565b8152602001906001900390816118b55790505b50905060005b600380549050811015611bbf5760056000600383815481106118fb576118fa614f5c565b5b9060005260206000200160009054906101000a900473ffffffffffffffffffffffffffffffffffffffff1673ffffffffffffffffffffffffffffffffffffffff1673ffffffffffffffffffffffffffffffffffffffff1681526020019081526020016000206040518060a00160405290816000820160009054906101000a900473ffffffffffffffffffffffffffffffffffffffff1673ffffffffffffffffffffffffffffffffffffffff1673ffffffffffffffffffffffffffffffffffffffff1681526020016001820180546119d190614e98565b80601f01602080910402602001604051908101604052809291908181526020018280546119fd90614e98565b8015611a4a5780601f10611a1f57610100808354040283529160200191611a4a565b820191906000526020600020905b815481529060010190602001808311611a2d57829003601f168201915b50505050508152602001600282018054611a6390614e98565b80601f0160208091040260200160405190810160405280929190818152602001828054611a8f90614e98565b8015611adc5780601f10611ab157610100808354040283529160200191611adc565b820191906000526020600020905b815481529060010190602001808311611abf57829003601f168201915b505050505081526020016003820160009054906101000a900460ff1615151515815260200160048201805480602002602001604051908101604052809291908181526020018280548015611b8557602002820191906000526020600020905b8160009054906101000a900473ffffffffffffffffffffffffffffffffffffffff1673ffffffffffffffffffffffffffffffffffffffff1681526020019060010190808311611b3b575b505050505081525050828281518110611ba157611ba0614f5c565b5b60200260200101819052508080611bb79061501d565b9150506118d6565b508091505090565b3373ffffffffffffffffffffffffffffffffffffffff16600560003373ffffffffffffffffffffffffffffffffffffffff1673ffffffffffffffffffffffffffffffffffffffff16815260200190815260200160002060000160009054906101000a900473ffffffffffffffffffffffffffffffffffffffff1673ffffffffffffffffffffffffffffffffffffffff1614611c97576040517f08c379a0000000000000000000000000000000000000000000000000000000008152600401611c8e906150b2565b60405180910390fd5b80600660008473ffffffffffffffffffffffffffffffffffffffff1673ffffffffffffffffffffffffffffffffffffffff1681526020019081526020016000206007019080519060200190611ced929190613fc0565b505050565b60008054906101000a900473ffffffffffffffffffffffffffffffffffffffff1673ffffffffffffffffffffffffffffffffffffffff163373ffffffffffffffffffffffffffffffffffffffff1614611d80576040517f08c379a0000000000000000000000000000000000000000000000000000000008152600401611d7790614f3c565b60405180910390fd5b6001600560008373ffffffffffffffffffffffffffffffffffffffff1673ffffffffffffffffffffffffffffffffffffffff16815260200190815260200160002060030160006101000a81548160ff02191690831515021790555060046000815480929190611dee9061501d565b919050555060005b600380549050811015611f80578173ffffffffffffffffffffffffffffffffffffffff1660038281548110611e2e57611e2d614f5c565b5b9060005260206000200160009054906101000a900473ffffffffffffffffffffffffffffffffffffffff1673ffffffffffffffffffffffffffffffffffffffff161415611f6d5760036001600380549050611e899190614fba565b81548110611e9a57611e99614f5c565b5b9060005260206000200160009054906101000a900473ffffffffffffffffffffffffffffffffffffffff1660038281548110611ed957611ed8614f5c565b5b9060005260206000200160006101000a81548173ffffffffffffffffffffffffffffffffffffffff021916908373ffffffffffffffffffffffffffffffffffffffff1602179055506003805480611f3357611f32614fee565b5b6001900381819060005260206000200160006101000a81549073ffffffffffffffffffffffffffffffffffffffff02191690559055611f80565b8080611f789061501d565b915050611df6565b5050565b60056020528060005260406000206000915090508060000160009054906101000a900473ffffffffffffffffffffffffffffffffffffffff1690806001018054611fcd90614e98565b80601f0160208091040260200160405190810160405280929190818152602001828054611ff990614e98565b80156120465780601f1061201b57610100808354040283529160200191612046565b820191906000526020600020905b81548152906001019060200180831161202957829003601f168201915b50505050509080600201805461205b90614e98565b80601f016020809104026020016040519081016040528092919081815260200182805461208790614e98565b80156120d45780601f106120a9576101008083540402835291602001916120d4565b820191906000526020600020905b8154815290600101906020018083116120b757829003601f168201915b5050505050908060030160009054906101000a900460ff16905084565b3373ffffffffffffffffffffffffffffffffffffffff16600660003373ffffffffffffffffffffffffffffffffffffffff1673ffffffffffffffffffffffffffffffffffffffff16815260200190815260200160002060000160009054906101000a900473ffffffffffffffffffffffffffffffffffffffff1673ffffffffffffffffffffffffffffffffffffffff1614156121c2576040517f08c379a00000000000000000000000000000000000000000000000000000000081526004016121b99061511e565b60405180910390fd5b6040518061010001604052803373ffffffffffffffffffffffffffffffffffffffff1681526020018781526020018681526020018581526020018481526020016040518060400160405280600581526020017f66616c736500000000000000000000000000000000000000000000000000000081525081526020018373ffffffffffffffffffffffffffffffffffffffff16815260200182815250600660003373ffffffffffffffffffffffffffffffffffffffff1673ffffffffffffffffffffffffffffffffffffffff16815260200190815260200160002060008201518160000160006101000a81548173ffffffffffffffffffffffffffffffffffffffff021916908373ffffffffffffffffffffffffffffffffffffffff16021790555060208201518160010190805190602001906122ff929190613fc0565b50604082015181600201908051906020019061231c929190613fc0565b506060820151816003019080519060200190612339929190613fc0565b506080820151816004019080519060200190612356929190613fc0565b5060a0820151816005019080519060200190612373929190613fc0565b5060c08201518160060160006101000a81548173ffffffffffffffffffffffffffffffffffffffff021916908373ffffffffffffffffffffffffffffffffffffffff16021790555060e08201518160070190805190602001906123d7929190613fc0565b50905050505050505050565b60606007805480602002602001604051908101604052809291908181526020016000905b8282101561258157838290600052602060002090600402016040518060800160405290816000820160009054906101000a900473ffffffffffffffffffffffffffffffffffffffff1673ffffffffffffffffffffffffffffffffffffffff1673ffffffffffffffffffffffffffffffffffffffff1681526020016001820160009054906101000a900473ffffffffffffffffffffffffffffffffffffffff1673ffffffffffffffffffffffffffffffffffffffff1673ffffffffffffffffffffffffffffffffffffffff168152602001600282015481526020016003820180546124f090614e98565b80601f016020809104026020016040519081016040528092919081815260200182805461251c90614e98565b80156125695780601f1061253e57610100808354040283529160200191612569565b820191906000526020600020905b81548152906001019060200180831161254c57829003601f168201915b50505050508152505081526020019060010190612407565b50505050905090565b60008054906101000a900473ffffffffffffffffffffffffffffffffffffffff1673ffffffffffffffffffffffffffffffffffffffff163373ffffffffffffffffffffffffffffffffffffffff1614612618576040517f08c379a000000000000000000000000000000000000000000000000000000000815260040161260f90614f3c565b60405180910390fd5b600660008273ffffffffffffffffffffffffffffffffffffffff1673ffffffffffffffffffffffffffffffffffffffff168152602001908152602001600020600080820160006101000a81549073ffffffffffffffffffffffffffffffffffffffff021916905560018201600061268f9190614046565b60028201600061269f9190614046565b6003820160006126af9190614046565b6004820160006126bf9190614046565b6005820160006126cf9190614046565b6006820160006101000a81549073ffffffffffffffffffffffffffffffffffffffff02191690556007820160006127069190614046565b505050565b60008054906101000a900473ffffffffffffffffffffffffffffffffffffffff1673ffffffffffffffffffffffffffffffffffffffff163373ffffffffffffffffffffffffffffffffffffffff1614612799576040517f08c379a000000000000000000000000000000000000000000000000000000000815260040161279090614f3c565b60405180910390fd5b600560008273ffffffffffffffffffffffffffffffffffffffff1673ffffffffffffffffffffffffffffffffffffffff168152602001908152602001600020600080820160006101000a81549073ffffffffffffffffffffffffffffffffffffffff02191690556001820160006128109190614046565b6002820160006128209190614046565b6003820160006101000a81549060ff02191690556004820160006128449190614086565b505050565b6007818154811061285957600080fd5b90600052602060002090600402016000915090508060000160009054906101000a900473ffffffffffffffffffffffffffffffffffffffff16908060010160009054906101000a900473ffffffffffffffffffffffffffffffffffffffff16908060020154908060030180546128ce90614e98565b80601f01602080910402602001604051908101604052809291908181526020018280546128fa90614e98565b80156129475780601f1061291c57610100808354040283529160200191612947565b820191906000526020600020905b81548152906001019060200180831161292a57829003601f168201915b5050505050905084565b3373ffffffffffffffffffffffffffffffffffffffff16600560003373ffffffffffffffffffffffffffffffffffffffff1673ffffffffffffffffffffffffffffffffffffffff16815260200190815260200160002060000160009054906101000a900473ffffffffffffffffffffffffffffffffffffffff1673ffffffffffffffffffffffffffffffffffffffff1614612a21576040517f08c379a0000000000000000000000000000000000000000000000000000000008152600401612a18906150b2565b60405180910390fd5b600560003373ffffffffffffffffffffffffffffffffffffffff1673ffffffffffffffffffffffffffffffffffffffff168152602001908152602001600020600401819080600181540180825580915050600190039060005260206000200160009091909190916101000a81548173ffffffffffffffffffffffffffffffffffffffff021916908373ffffffffffffffffffffffffffffffffffffffff16021790555050565b60008060009054906101000a900473ffffffffffffffffffffffffffffffffffffffff1673ffffffffffffffffffffffffffffffffffffffff163373ffffffffffffffffffffffffffffffffffffffff1614612b58576040517f08c379a0000000000000000000000000000000000000000000000000000000008152600401612b4f90614f3c565b60405180910390fd5b600380549050905090565b60085481565b3373ffffffffffffffffffffffffffffffffffffffff16600560003373ffffffffffffffffffffffffffffffffffffffff1673ffffffffffffffffffffffffffffffffffffffff16815260200190815260200160002060000160009054906101000a900473ffffffffffffffffffffffffffffffffffffffff1673ffffffffffffffffffffffffffffffffffffffff161415612c3a576040517f08c379a0000000000000000000000000000000000000000000000000000000008152600401612c319061518a565b60405180910390fd5b6040518060a001604052803373ffffffffffffffffffffffffffffffffffffffff168152602001838152602001828152602001600015158152602001600067ffffffffffffffff811115612c9157612c90614820565b5b604051908082528060200260200182016040528015612cbf5781602001602082028036833780820191505090505b50815250600560003373ffffffffffffffffffffffffffffffffffffffff1673ffffffffffffffffffffffffffffffffffffffff16815260200190815260200160002060008201518160000160006101000a81548173ffffffffffffffffffffffffffffffffffffffff021916908373ffffffffffffffffffffffffffffffffffffffff1602179055506020820151816001019080519060200190612d65929190613fc0565b506040820151816002019080519060200190612d82929190613fc0565b5060608201518160030160006101000a81548160ff0219169083151502179055506080820151816004019080519060200190612dbf9291906140a7565b509050506003339080600181540180825580915050600190039060005260206000200160009091909190916101000a81548173ffffffffffffffffffffffffffffffffffffffff021916908373ffffffffffffffffffffffffffffffffffffffff1602179055505050565b60608060608060006060600660008873ffffffffffffffffffffffffffffffffffffffff1673ffffffffffffffffffffffffffffffffffffffff168152602001908152602001600020600101600660008973ffffffffffffffffffffffffffffffffffffffff1673ffffffffffffffffffffffffffffffffffffffff168152602001908152602001600020600201600660008a73ffffffffffffffffffffffffffffffffffffffff1673ffffffffffffffffffffffffffffffffffffffff168152602001908152602001600020600301600660008b73ffffffffffffffffffffffffffffffffffffffff1673ffffffffffffffffffffffffffffffffffffffff168152602001908152602001600020600401600660008c73ffffffffffffffffffffffffffffffffffffffff1673ffffffffffffffffffffffffffffffffffffffff16815260200190815260200160002060060160009054906101000a900473ffffffffffffffffffffffffffffffffffffffff16600660008d73ffffffffffffffffffffffffffffffffffffffff1673ffffffffffffffffffffffffffffffffffffffff168152602001908152602001600020600701858054612fed90614e98565b80601f016020809104026020016040519081016040528092919081815260200182805461301990614e98565b80156130665780601f1061303b57610100808354040283529160200191613066565b820191906000526020600020905b81548152906001019060200180831161304957829003601f168201915b5050505050955084805461307990614e98565b80601f01602080910402602001604051908101604052809291908181526020018280546130a590614e98565b80156130f25780601f106130c7576101008083540402835291602001916130f2565b820191906000526020600020905b8154815290600101906020018083116130d557829003601f168201915b5050505050945083805461310590614e98565b80601f016020809104026020016040519081016040528092919081815260200182805461313190614e98565b801561317e5780601f106131535761010080835404028352916020019161317e565b820191906000526020600020905b81548152906001019060200180831161316157829003601f168201915b5050505050935082805461319190614e98565b80601f01602080910402602001604051908101604052809291908181526020018280546131bd90614e98565b801561320a5780601f106131df5761010080835404028352916020019161320a565b820191906000526020600020905b8154815290600101906020018083116131ed57829003601f168201915b5050505050925080805461321d90614e98565b80601f016020809104026020016040519081016040528092919081815260200182805461324990614e98565b80156132965780601f1061326b57610100808354040283529160200191613296565b820191906000526020600020905b81548152906001019060200180831161327957829003601f168201915b5050505050905095509550955095509550955091939550919395565b3373ffffffffffffffffffffffffffffffffffffffff16600560003373ffffffffffffffffffffffffffffffffffffffff1673ffffffffffffffffffffffffffffffffffffffff16815260200190815260200160002060000160009054906101000a900473ffffffffffffffffffffffffffffffffffffffff1673ffffffffffffffffffffffffffffffffffffffff1614613382576040517f08c379a0000000000000000000000000000000000000000000000000000000008152600401613379906150b2565b60405180910390fd5b6040518060400160405280600481526020017f7472756500000000000000000000000000000000000000000000000000000000815250600660008373ffffffffffffffffffffffffffffffffffffffff1673ffffffffffffffffffffffffffffffffffffffff168152602001908152602001600020600501908051906020019061340d929190613fc0565b5050565b3373ffffffffffffffffffffffffffffffffffffffff16600660003373ffffffffffffffffffffffffffffffffffffffff1673ffffffffffffffffffffffffffffffffffffffff16815260200190815260200160002060000160009054906101000a900473ffffffffffffffffffffffffffffffffffffffff1673ffffffffffffffffffffffffffffffffffffffff16146134e1576040517f08c379a00000000000000000000000000000000000000000000000000000000081526004016134d89061521c565b60405180910390fd5b8273ffffffffffffffffffffffffffffffffffffffff16600660008573ffffffffffffffffffffffffffffffffffffffff1673ffffffffffffffffffffffffffffffffffffffff16815260200190815260200160002060000160009054906101000a900473ffffffffffffffffffffffffffffffffffffffff1673ffffffffffffffffffffffffffffffffffffffff16146135b1576040517f08c379a00000000000000000000000000000000000000000000000000000000081526004016135a890615288565b60405180910390fd5b6040516020016135c0906152ff565b60405160208183030381529060405280519060200120600660008573ffffffffffffffffffffffffffffffffffffffff1673ffffffffffffffffffffffffffffffffffffffff16815260200190815260200160002060050160405160200161362891906153a8565b604051602081830303815290604052805190602001201461367e576040517f08c379a00000000000000000000000000000000000000000000000000000000081526004016136759061540b565b60405180910390fd5b3373ffffffffffffffffffffffffffffffffffffffff16600560003373ffffffffffffffffffffffffffffffffffffffff1673ffffffffffffffffffffffffffffffffffffffff16815260200190815260200160002060000160009054906101000a900473ffffffffffffffffffffffffffffffffffffffff1673ffffffffffffffffffffffffffffffffffffffff16141561374f576040517f08c379a000000000000000000000000000000000000000000000000000000000815260040161374690615477565b60405180910390fd5b8273ffffffffffffffffffffffffffffffffffffffff16600560008573ffffffffffffffffffffffffffffffffffffffff1673ffffffffffffffffffffffffffffffffffffffff16815260200190815260200160002060000160009054906101000a900473ffffffffffffffffffffffffffffffffffffffff1673ffffffffffffffffffffffffffffffffffffffff161415613820576040517f08c379a0000000000000000000000000000000000000000000000000000000008152600401613817906154e3565b60405180910390fd5b600760405180608001604052803373ffffffffffffffffffffffffffffffffffffffff1681526020018573ffffffffffffffffffffffffffffffffffffffff16815260200184815260200183815250908060018154018082558091505060019003906000526020600020906004020160009091909190915060008201518160000160006101000a81548173ffffffffffffffffffffffffffffffffffffffff021916908373ffffffffffffffffffffffffffffffffffffffff16021790555060208201518160010160006101000a81548173ffffffffffffffffffffffffffffffffffffffff021916908373ffffffffffffffffffffffffffffffffffffffff16021790555060408201518160020155606082015181600301908051906020019061394c929190613fc0565b505050600860008154809291906139629061501d565b9190505550505050565b60603373ffffffffffffffffffffffffffffffffffffffff16600660003373ffffffffffffffffffffffffffffffffffffffff1673ffffffffffffffffffffffffffffffffffffffff16815260200190815260200160002060000160009054906101000a900473ffffffffffffffffffffffffffffffffffffffff1673ffffffffffffffffffffffffffffffffffffffff1614613a3e576040517f08c379a0000000000000000000000000000000000000000000000000000000008152600401613a359061521c565b60405180910390fd5b600060085467ffffffffffffffff811115613a5c57613a5b614820565b5b604051908082528060200260200182016040528015613a9557816020015b613a82614131565b815260200190600190039081613a7a5790505b5090506000805b600854811015613d4f573373ffffffffffffffffffffffffffffffffffffffff1660078281548110613ad157613ad0614f5c565b5b906000526020600020906004020160000160009054906101000a900473ffffffffffffffffffffffffffffffffffffffff1673ffffffffffffffffffffffffffffffffffffffff161480613b9557503373ffffffffffffffffffffffffffffffffffffffff1660078281548110613b4b57613b4a614f5c565b5b906000526020600020906004020160010160009054906101000a900473ffffffffffffffffffffffffffffffffffffffff1673ffffffffffffffffffffffffffffffffffffffff16145b15613d3c5760078181548110613bae57613bad614f5c565b5b90600052602060002090600402016040518060800160405290816000820160009054906101000a900473ffffffffffffffffffffffffffffffffffffffff1673ffffffffffffffffffffffffffffffffffffffff1673ffffffffffffffffffffffffffffffffffffffff1681526020016001820160009054906101000a900473ffffffffffffffffffffffffffffffffffffffff1673ffffffffffffffffffffffffffffffffffffffff1673ffffffffffffffffffffffffffffffffffffffff16815260200160028201548152602001600382018054613c8d90614e98565b80601f0160208091040260200160405190810160405280929190818152602001828054613cb990614e98565b8015613d065780601f10613cdb57610100808354040283529160200191613d06565b820191906000526020600020905b815481529060010190602001808311613ce957829003601f168201915b505050505081525050838381518110613d2257613d21614f5c565b5b60200260200101819052508180613d389061501d565b9250505b8080613d479061501d565b915050613a9c565b50819250505090565b60603373ffffffffffffffffffffffffffffffffffffffff16600560003373ffffffffffffffffffffffffffffffffffffffff1673ffffffffffffffffffffffffffffffffffffffff16815260200190815260200160002060000160009054906101000a900473ffffffffffffffffffffffffffffffffffffffff1673ffffffffffffffffffffffffffffffffffffffff1614613e2a576040517f08c379a0000000000000000000000000000000000000000000000000000000008152600401613e21906150b2565b60405180910390fd5b600560003373ffffffffffffffffffffffffffffffffffffffff1673ffffffffffffffffffffffffffffffffffffffff168152602001908152602001600020600401805480602002602001604051908101604052809291908181526020018280548015613eec57602002820191906000526020600020905b8160009054906101000a900473ffffffffffffffffffffffffffffffffffffffff1673ffffffffffffffffffffffffffffffffffffffff1681526020019060010190808311613ea2575b5050505050905090565b60008054906101000a900473ffffffffffffffffffffffffffffffffffffffff1681565b60006001604051602001613f2e91906153a8565b6040516020818303038152906040528051906020012082604051602001613f559190615534565b60405160208183030381529060405280519060200120149050919050565b60045481565b6040518060a00160405280600073ffffffffffffffffffffffffffffffffffffffff1681526020016060815260200160608152602001600015158152602001606081525090565b828054613fcc90614e98565b90600052602060002090601f016020900481019282613fee5760008555614035565b82601f1061400757805160ff1916838001178555614035565b82800160010185558215614035579182015b82811115614034578251825591602001919060010190614019565b5b5090506140429190614185565b5090565b50805461405290614e98565b6000825580601f106140645750614083565b601f0160209004906000526020600020908101906140829190614185565b5b50565b50805460008255906000526020600020908101906140a49190614185565b50565b828054828255906000526020600020908101928215614120579160200282015b8281111561411f5782518260006101000a81548173ffffffffffffffffffffffffffffffffffffffff021916908373ffffffffffffffffffffffffffffffffffffffff160217905550916020019190600101906140c7565b5b50905061412d9190614185565b5090565b6040518060800160405280600073ffffffffffffffffffffffffffffffffffffffff168152602001600073ffffffffffffffffffffffffffffffffffffffff16815260200160008152602001606081525090565b5b8082111561419e576000816000905550600101614186565b5090565b600081519050919050565b600082825260208201905092915050565b60005b838110156141dc5780820151818401526020810190506141c1565b838111156141eb576000848401525b50505050565b6000601f19601f8301169050919050565b600061420d826141a2565b61421781856141ad565b93506142278185602086016141be565b614230816141f1565b840191505092915050565b600060208201905081810360008301526142558184614202565b905092915050565b6000604051905090565b600080fd5b600080fd5b600073ffffffffffffffffffffffffffffffffffffffff82169050919050565b600061429c82614271565b9050919050565b6142ac81614291565b81146142b757600080fd5b50565b6000813590506142c9816142a3565b92915050565b6000602082840312156142e5576142e4614267565b5b60006142f3848285016142ba565b91505092915050565b60008115159050919050565b614311816142fc565b82525050565b600060608201905081810360008301526143318186614202565b905081810360208301526143458185614202565b90506143546040830184614308565b949350505050565b600081519050919050565b600082825260208201905092915050565b6000819050602082019050919050565b61439181614291565b82525050565b60006143a38383614388565b60208301905092915050565b6000602082019050919050565b60006143c78261435c565b6143d18185614367565b93506143dc83614378565b8060005b8381101561440d5781516143f48882614397565b97506143ff836143af565b9250506001810190506143e0565b5085935050505092915050565b6000602082019050818103600083015261443481846143bc565b905092915050565b6000819050919050565b61444f8161443c565b82525050565b600060208201905061446a6000830184614446565b92915050565b61447981614291565b82525050565b600061010082019050614495600083018b614470565b81810360208301526144a7818a614202565b905081810360408301526144bb8189614202565b905081810360608301526144cf8188614202565b905081810360808301526144e38187614202565b905081810360a08301526144f78186614202565b905061450660c0830185614470565b81810360e08301526145188184614202565b90509998505050505050505050565b600060408201905061453c6000830185614470565b818103602083015261454e8184614202565b90509392505050565b600060208201905061456c6000830184614308565b92915050565b600081519050919050565b600082825260208201905092915050565b6000819050602082019050919050565b600082825260208201905092915050565b60006145ba826141a2565b6145c4818561459e565b93506145d48185602086016141be565b6145dd816141f1565b840191505092915050565b6145f1816142fc565b82525050565b600082825260208201905092915050565b60006146138261435c565b61461d81856145f7565b935061462883614378565b8060005b838110156146595781516146408882614397565b975061464b836143af565b92505060018101905061462c565b5085935050505092915050565b600060a08301600083015161467e6000860182614388565b506020830151848203602086015261469682826145af565b915050604083015184820360408601526146b082826145af565b91505060608301516146c560608601826145e8565b50608083015184820360808601526146dd8282614608565b9150508091505092915050565b60006146f68383614666565b905092915050565b6000602082019050919050565b600061471682614572565b614720818561457d565b9350836020820285016147328561458e565b8060005b8581101561476e578484038952815161474f85826146ea565b945061475a836146fe565b925060208a01995050600181019050614736565b50829750879550505050505092915050565b6000602082019050818103600083015261479a818461470b565b905092915050565b6147ab8161443c565b81146147b657600080fd5b50565b6000813590506147c8816147a2565b92915050565b6000602082840312156147e4576147e3614267565b5b60006147f2848285016147b9565b91505092915050565b60006020820190506148106000830184614470565b92915050565b600080fd5b600080fd5b7f4e487b7100000000000000000000000000000000000000000000000000000000600052604160045260246000fd5b614858826141f1565b810181811067ffffffffffffffff8211171561487757614876614820565b5b80604052505050565b600061488a61425d565b9050614896828261484f565b919050565b600067ffffffffffffffff8211156148b6576148b5614820565b5b6148bf826141f1565b9050602081019050919050565b82818337600083830152505050565b60006148ee6148e98461489b565b614880565b90508281526020810184848401111561490a5761490961481b565b5b6149158482856148cc565b509392505050565b600082601f83011261493257614931614816565b5b81356149428482602086016148db565b91505092915050565b6000806040838503121561496257614961614267565b5b6000614970858286016142ba565b925050602083013567ffffffffffffffff8111156149915761499061426c565b5b61499d8582860161491d565b9150509250929050565b60006080820190506149bc6000830187614470565b81810360208301526149ce8186614202565b905081810360408301526149e28185614202565b90506149f16060830184614308565b95945050505050565b60008060008060008060c08789031215614a1757614a16614267565b5b600087013567ffffffffffffffff811115614a3557614a3461426c565b5b614a4189828a0161491d565b965050602087013567ffffffffffffffff811115614a6257614a6161426c565b5b614a6e89828a0161491d565b955050604087013567ffffffffffffffff811115614a8f57614a8e61426c565b5b614a9b89828a0161491d565b945050606087013567ffffffffffffffff811115614abc57614abb61426c565b5b614ac889828a0161491d565b9350506080614ad989828a016142ba565b92505060a087013567ffffffffffffffff811115614afa57614af961426c565b5b614b0689828a0161491d565b9150509295509295509295565b600081519050919050565b600082825260208201905092915050565b6000819050602082019050919050565b614b488161443c565b82525050565b6000608083016000830151614b666000860182614388565b506020830151614b796020860182614388565b506040830151614b8c6040860182614b3f565b5060608301518482036060860152614ba482826145af565b9150508091505092915050565b6000614bbd8383614b4e565b905092915050565b6000602082019050919050565b6000614bdd82614b13565b614be78185614b1e565b935083602082028501614bf985614b2f565b8060005b85811015614c355784840389528151614c168582614bb1565b9450614c2183614bc5565b925060208a01995050600181019050614bfd565b50829750879550505050505092915050565b60006020820190508181036000830152614c618184614bd2565b905092915050565b6000608082019050614c7e6000830187614470565b614c8b6020830186614470565b614c986040830185614446565b8181036060830152614caa8184614202565b905095945050505050565b60008060408385031215614ccc57614ccb614267565b5b600083013567ffffffffffffffff811115614cea57614ce961426c565b5b614cf68582860161491d565b925050602083013567ffffffffffffffff811115614d1757614d1661426c565b5b614d238582860161491d565b9150509250929050565b600060c0820190508181036000830152614d478189614202565b90508181036020830152614d5b8188614202565b90508181036040830152614d6f8187614202565b90508181036060830152614d838186614202565b9050614d926080830185614470565b81810360a0830152614da48184614202565b9050979650505050505050565b600080600060608486031215614dca57614dc9614267565b5b6000614dd8868287016142ba565b9350506020614de9868287016147b9565b925050604084013567ffffffffffffffff811115614e0a57614e0961426c565b5b614e168682870161491d565b9150509250925092565b600060208284031215614e3657614e35614267565b5b600082013567ffffffffffffffff811115614e5457614e5361426c565b5b614e608482850161491d565b91505092915050565b7f4e487b7100000000000000000000000000000000000000000000000000000000600052602260045260246000fd5b60006002820490506001821680614eb057607f821691505b60208210811415614ec457614ec3614e69565b5b50919050565b7f4f6e6c792061646d696e2063616e2063616c6c20746869732066756e6374696f60008201527f6e00000000000000000000000000000000000000000000000000000000000000602082015250565b6000614f266021836141ad565b9150614f3182614eca565b604082019050919050565b60006020820190508181036000830152614f5581614f19565b9050919050565b7f4e487b7100000000000000000000000000000000000000000000000000000000600052603260045260246000fd5b7f4e487b7100000000000000000000000000000000000000000000000000000000600052601160045260246000fd5b6000614fc58261443c565b9150614fd08361443c565b925082821015614fe357614fe2614f8b565b5b828203905092915050565b7f4e487b7100000000000000000000000000000000000000000000000000000000600052603160045260246000fd5b60006150288261443c565b91507fffffffffffffffffffffffffffffffffffffffffffffffffffffffffffffffff82141561505b5761505a614f8b565b5b600182019050919050565b7f4f6e6c792062616e6b2063616e2063616c6c20746869732066756e6374696f6e600082015250565b600061509c6020836141ad565b91506150a782615066565b602082019050919050565b600060208201905081810360008301526150cb8161508f565b9050919050565b7f437573746f6d657220616c726561647920657869737473000000000000000000600082015250565b60006151086017836141ad565b9150615113826150d2565b602082019050919050565b60006020820190508181036000830152615137816150fb565b9050919050565b7f42616e6b20616c72656164792065786973747300000000000000000000000000600082015250565b60006151746013836141ad565b915061517f8261513e565b602082019050919050565b600060208201905081810360008301526151a381615167565b9050919050565b7f4f6e6c7920637573746f6d65722063616e2063616c6c20746869732066756e6360008201527f74696f6e00000000000000000000000000000000000000000000000000000000602082015250565b60006152066024836141ad565b9150615211826151aa565b604082019050919050565b60006020820190508181036000830152615235816151f9565b9050919050565b7f526563697069656e7420646f6573206e6f742065786973740000000000000000600082015250565b60006152726018836141ad565b915061527d8261523c565b602082019050919050565b600060208201905081810360008301526152a181615265565b9050919050565b600081905092915050565b7f7472756500000000000000000000000000000000000000000000000000000000600082015250565b60006152e96004836152a8565b91506152f4826152b3565b600482019050919050565b600061530a826152dc565b9150819050919050565b60008190508160005260206000209050919050565b6000815461533681614e98565b61534081866152a8565b9450600182166000811461535b576001811461536c5761539f565b60ff1983168652818601935061539f565b61537585615314565b60005b8381101561539757815481890152600182019150602081019050615378565b838801955050505b50505092915050565b60006153b48284615329565b915081905092915050565b7f526563697069656e74206e6f7420766572696669656400000000000000000000600082015250565b60006153f56016836141ad565b9150615400826153bf565b602082019050919050565b60006020820190508181036000830152615424816153e8565b9050919050565b7f53656e6465722063616e6e6f7420626520612062616e6b000000000000000000600082015250565b60006154616017836141ad565b915061546c8261542b565b602082019050919050565b6000602082019050818103600083015261549081615454565b9050919050565b7f526563697069656e742063616e6e6f7420626520612062616e6b000000000000600082015250565b60006154cd601a836141ad565b91506154d882615497565b602082019050919050565b600060208201905081810360008301526154fc816154c0565b9050919050565b600061550e826141a2565b61551881856152a8565b93506155288185602086016141be565b80840191505092915050565b60006155408284615503565b91508190509291505056fea26469706673582212204f6f391176c21f62f565c9f8ab45f3c22f09d39d87e10d6c728bdf883943689364736f6c63430008090033",
  "linkReferences": {},
  "deployedLinkReferences": {}
}